:060000000A128A110C280F
:10000800FE00030EF0000A08F1000A128A15352ACC
:100018000A128A110F288313D130FD000A30FE001E
:100028009630FF00A03084000A128A15F0200A12C8
:100038008A116230FD000830FE00DE30FF005430C7
:1000480084000A128A15F0200A128A110A128A11EB
:10005800FF27FB008316D101D201D301D401D501BA
:10006800D601D701D801D901DA018312E201E301EF
:10007800E401E501E601E701E801E901EA01EB0134
:10008800EC01ED01FA0183010A128A11602DC0000A
:10009800353084000A30FF0083138001840AFF0B87
:1000A8005028DA295F08B4003408F200F301F30A93
:1000B8005E080A128A15DB260A128A1183125D0865
:1000C800B4003408F200F3015C080A128A15DB2632
:1000D80008005F08B4003408F200F3015E080A1251
:1000E8008A15DB260A128A1183125D08B4003408C7
:1000F800F200F3015C080A128A15DB260A128A113B
:10010800831240080A128A1581240A128A11B4003F
:100118003408BF0050303F02031C98280230831275
:10012800B4003408EA0008000430B4003408EA00D7
:100138000030E5000030E4000030E3000030E20069
:1001480008005F08B4003408F200F3015E080A12E0
:100158008A15DB260A128A1183125D08B400340856
:10016800F200F3015C080A128A15DB260A128A11CA
:100178000030F5000030F4002730F3001030F200B2
:1001880083126508F9006408F8006308F70062083C
:10019800F6000A128A15CC240A128A11750874040A
:1001A80073047204031DDE2840080A128A1581248C
:1001B8000A128A116508031D0F296408031D0F29F7
:1001C8006308031D0F290B306202031DEB28031877
:1001D8000F2983160313C401C40A3F30BE00003040
:1001E800BF00BE300A128A1571230A128A118316BB
:1001F800A601A60A3F30A0000030A100A0300A12D4
:100208008A1571230030E5000030E4000030E30077
:100218000B30E200080070308312031362061130BD
:1002280003196306031D3C2964036504031D3C2967
:1002380083160313C4013F30BE000030BF00BE3038
:100248000A128A1571230A128A118316A6013F30F1
:10025800A0000030A100A0300A128A1571230030D6
:10026800E5000130E4001130E3007130E2000800DD
:10027800831203136508031D4F2901306402031D0F
:100288004D2911306302031D4D2971306202031D8F
:100298004D29031C7E29831203136508031D7E293B
:1002A80002306402031D602922306302031D6029A5
:1002B800E0306202031D602903187E2983160313A8
:1002C8004308031D08004208031D08001F304102AF
:1002D800031D722940304002031D722903180800CB
:1002E800831603134408031D0800BE300A128A153A
:1002F80056210800E03083120313620622300319E6
:1003080063060230031964066504031DA3298316D6
:100318000313C4010230BE000030BF00BE300A1211
:100328008A1571230A128A118316A6010330A000C8
:100338000030A100A0300A128A1571230800831228
:1003480003136508031DB62902306402031DB4298E
:1003580049306302031DB429F0306202031DB42939
:10036800031C0800BE300A128A1556210A128A1187
:10037800A0300A128A1556210A128A1192285F089B
:10038800B4003408F200F3015E080A128A15DB266D
:100398000A128A1183125D08B4003408F200F301CE
:1003A800F30A5C080A128A15DB2608006A08003A74
:1003B80003195628013A03196D28033A0319C3296A
:1003C800063A0319A528E8290800AA002A0A840081
:1003D80083130008A0002008F200F3012A08840013
:1003E80000080A128A15DB260A128A1102308312C3
:1003F8000313A000A00BFE290000831203132A0A8E
:10040800840083130008A0002008F200F301F30A17
:100418002A08840000080A128A15DB260A128A11A3
:10042800073083120313A000A00B182A00008312C0
:1004380003132A0A840083130008A0002008F2008E
:10044800F3012A08840000080A128A15DB260A121A
:100458008A1183122A08033E84000008A00020089D
:10046800F2002A08023E840000080A128A151121A7
:100478000A128A11003A031D542A2A08033E8400EE
:100488000008A0002008F2002A08023E84000008A4
:100498000A128A1511210A128A11003A0319412AEF
:1004A800770884000008A000840A0008A10020083A
:1004B800A6002108A700A801A901831203132A088E
:1004C800033E840083130008A0002008F2002A08D5
:1004D800023E840000080A128A1511210A128A11A4
:1004E800003A0319A82A770884000008A000840AA3
:1004F8000008A1002008A2002108A300A401A5016A
:100508002608A2022708031C270F8B2A8C2AA3027D
:100518002808031C280F912A922AA4022908031CE0
:10052800290F972A982AA5022508031DA82A240816
:10053800031DA82A01302302031DA62A2D302202FA
:10054800031DA62A031C612A770884008313000868
:1005580083120313A000840A0008A1002008A20047
:100568002108A300A401A5012608A2022708031C4C
:10057800270FBF2AC02AA3022808031C280FC52A50
:10058800C62AA4022908031C290FCB2ACC2AA502B3
:100598002508A9002408A8002308A7002208A60007
:1005A8002908031DE32A2808031DE32A2708031D39
:1005B800E32A97302602031DE12A031CED2A0030A6
:1005C80083120313A9000030A8000030A7000030F0
:1005D800A60083120313260808002408AA00250889
:1005E800AB002608AC0003102B0D2C0DAD002D0818
:1005F800B0002708AA002808AB002908AC0003109F
:100608002B0D2C0DAD002D08AF0030080319182B49
:100618002F08300203181F2B2F08AA003008AA023F
:1006280019302A02031C1F2B2708A4002808A5003C
:100638002908A60008002F080319080030082F020F
:1006480003182E2B3008AA002F08AA0219302A02F4
:10065800031808000630AA002A08AE00A61BAE1729
:10066800A91B2E17A517FF30A405FF30A5050030DC
:10067800A605A817FF30A705FF30A8050030A90573
:100688002F08300203186E2B01300310A70DA80D98
:10069800A90DFF3E031D492B0130AF022F0830067C
:1006A8000319692B0130AE022E0807390319692B8B
:1006B800482B01300310A60CA50CA40CFF3E031D0B
:1006C8005E2B0130AA002A08B00730082F0603194C
:1006D800972B5D2B30082F020318972B013003103E
:1006E800A40DA50DA60DFF3E031D732B0130B0020E
:1006F8002F0830060319932B0130AE022E08073954
:100708000319932B722B01300310A90CA80CA70C0A
:10071800FF3E031D882B0130AA002A08AF073008C6
:100728002F06031D872BAE1FA92BFF30A406FF3011
:10073800A506FF30A6060130A407003003180130D3
:10074800A507003003180130A6072E1FBB2BFF306A
:10075800A706FF30A806FF30A9060130A70700301A
:1007680003180130A807003003180130A907AE01AB
:100778002408A707250803110318250A031DA8073D
:10078800260803110318260A031DA907A91FDE2B33
:10079800FF30A706FF30A806FF30A9060130A707DB
:1007A800003003180130A807003003180130A907EA
:1007B800AE01AE0A2708F2002808F3002908F40061
:1007C8003008AA002A08F5002E08AB002B08F6000E
:1007D8000A128A156B257208A4007308A50074080C
:1007E800A6000800CF005708C9004908F2005608BB
:1007F8000A128A1511210A128A11003A031D142CB3
:10080800352C033083120313CB000830CA0076302E
:10081800C900C90B0D2CCA0B0D2CCB0B0D2C0000DD
:10082800831203135708C9004908F20056080A1230
:100838008A1511210A128A11003A031D052C4F0846
:10084800840000080319332C4F0884000230000686
:100858000319332C4F0884008001800A8B2C033045
:10086800862CB830F2000B30F300480884000008EA
:10087800F400840A0008F5000A128A15C7220A1231
:100888008A1172087304031D932C0A128A115127C6
:100898000A128A114008CC004108CD004208CE0057
:1008A8004C08F2004D08F3004E08F4009A30F500A9
:1008B8009930F6003F30F7000A128A1508220A120A
:1008C8008A11031C7E2C4F08840005308313000610
:1008D8000319932C4F088400063000060319932C43
:1008E8004F08840002300006031D7C2C0630862C3D
:1008F8000530862C4F088400063083130006031D3C
:10090800932C0230C9004F08840049088000003049
:10091800E5000030E4000030E3000030E2004F085A
:10092800840000080319A32C4F088400000303194E
:10093800A32C4F08840002300006031DA82C4F0882
:100948000A128A15D72508004F080A128A1110269C
:1009580008002008A6002108A7002208A800031004
:10096800270D280DA9002908AA002A08031DC32C51
:100978000030A0000030A1000030A20008002308C9
:10098800A6002408A7002508A8000310270D280D95
:10099800A9002908AF002F08031DD92C0030A0009A
:1009A8000030A1000030A20008002F087B3EA600FE
:1009B8002608AA072208A6002608AF002508A600D0
:1009C8002608AF068030A6002608AF05A117A41791
:1009D800FF30A305FF30A4050030A5050030AB00AB
:1009E8000030AC000030AD000730A6002608AE008D
:1009F800201C0C2D2308AB07240803110318240A14
:100A0800031DAC07250803110318250A031DAD07AC
:100A180001300310A20CA10CA00CFF3E031D0D2DEC
:100A280001300310A30DA40DA50DFF3E031D152DC8
:100A38000130AE02031DFC2C0930A6002608AE00CA
:100A4800201C342D2308AB07240803110318240A9B
:100A5800031DAC07250803110318250A031DAD075C
:100A680001300310A20CA10CA00CFF3E031D352D74
:100A780001300310AD0CAC0CAB0CFF3E031D3D2D3B
:100A88000130AE02031D242D2B08F2002C08F300C0
:100A98002D08F4002A08A6002608F5002F08A7004C
:100AA8002708F6000A128A156B257208A000730839
:100AB800A1007408A2000800D3010A128A1518259B
:100AC8000A128A1183125B08D2005208F200F3015D
:100AD800F30A5A080A128A15DB260A128A118312A7
:100AE8005708D2005208F20056080A128A15112136
:100AF8000A128A11013A031D832DD301D30A530820
:100B0800031D8D2D6B300A128A15AF230A128A1124
:100B1800072E5708D2005208F20056080A128A1502
:100B280011210A128A11013A031DC22D8316C4012C
:100B3800C40A9030BE000130BF00BE300A128A15C8
:100B480071230A128A11BE300A128A156D270A12F9
:100B58008A1183160313A601A60A9030A00001305B
:100B6800A100A0300A128A1571230A128A11A03036
:100B78000A128A156D270A128A11072E5508D20003
:100B88005208F20054080A128A1511210A128A1111
:100B9800013A031DF52D8316C4019030BE000130C3
:100BA800BF00BE300A128A1571230A128A11BE309C
:100BB8000A128A156D270A128A1183160313A601D1
:100BC8009030A0000130A100A0300A128A157123CC
:100BD8000A128A11A0300A128A156D270A128A1180
:100BE800072EBE300A128A1556210A128A11AF3012
:100BF8000A128A1556210A128A11A0300A128A1579
:100C080056210A128A11831203136808690403190A
:100C1800832DE801E901832DA40024088400053010
:100C28000006031D652E6508031D472E6408031D75
:100C3800472E6308031D472E0B306202031D242E26
:100C48000318472E831203136108F9007908F2008C
:100C5800F301F30A60080A128A15DB260A128A11C0
:100C6800B501B50A0530AF000030B000AF300A1248
:100C78008A1571230030E5000030E4000030E300FD
:100C88000B30E2000800831203136508031D592E78
:100C98006408031D592E0B306302031D572EB9300B
:100CA8006202031D572E031C0800AF300A128A1572
:100CB80056210630F9008312240884007908800040
:100CC80008002408840003300006031D0800650896
:100CD800031D9B2E6408031D9B2E6308031D9B2E7A
:100CE8000B306202031D782E03189B2E8312031308
:100CF8006108F9007908F200F301F30A60080A12A2
:100D08008A15DB260A128A11B501B50A0530AF002B
:100D18000030B000AF300A128A1571230030E500A8
:100D28000030E4000030E3000B30E20008008312DA
:100D380003136508031DAD2E6408031DAD2E0B308B
:100D48006302031DAB2EB9306202031DAB2E031CD8
:100D58000800AF300A128A1556210430F9008312B0
:100D6800240884007908800008003308B600340895
:100D7800B7003508B8000310370D380DB900390829
:100D8800BE003E08031DCF2E0030B0000030B10079
:100D98000030B20008003008B6003108B700320849
:100DA800B8000310370D380DB9003908BF003F08E7
:100DB800031DE52E0030B0000030B1000030B20055
:100DC80008000030BB000030BC000030BD00893096
:100DD8003F07B6003608BE023508B6003608BF0021
:100DE8003208B6003608BF068030B6003608BF05A0
:100DF800B417FF30B305FF30B4050030B505B1179F
:100E0800FF30B005FF30B1050030B2051830B6002C
:100E18003608BA0001300310BB0DBC0DBD0DFF3EF6
:100E2800031D0F2F32083502031D202F310834020D
:100E3800031D202F30083302031C2D2F3008B30266
:100E48003108031C310FB4023208031C320AB50200
:100E58003B1401300310B30DB40DB50DFF3E031D57
:100E68002E2F0130BA02031D0E2F3B08F2003C085A
:100E7800F3003D08F4003E08B6003608F5003F08C8
:100E8800B7003708F6000A128A156B257208B000F9
:100E98007308B1007408B20008000030C5000030C3
:100EA800C6000030C700C40100300A128A15352375
:100EB8000A128A1174088312A1007308A0000A128A
:100EC8008A15FD200A128A112008A4002108A5000D
:100ED8002208A6004508A7004608A8004708A90058
:100EE8000A128A11F1220A128A112408C50025085B
:100EF800C6002608C7004508F2004608F300470860
:100F0800F4000030F500C830F6004230F7000A124D
:100F18008A1508220A128A11031C9A2F0130C3006D
:100F28004308C4070B304402031C582F44080A1214
:100F38008A153C210A128A112008B0002108B10044
:100F48002208B2004508B3004608B4004708B500B7
:100F58000A128A11B9260A128A113008C500310806
:100F6800C6003208C7000030B0008030B1004430FD
:100F7800B2000030A000A030A1004030A200450817
:100F8800A3004608A4004708A5000A128A11AD2448
:100F98000A128A112008B3002108B4002208B500FB
:100FA8000A128A11B9263008C5003108C60032086D
:100FB800C7004508C0004608C1004708C20008002D
:100FC800F5007508F4007408F600760884000A1223
:100FD8008A1500200A128A11003A0319F82F0130E5
:100FE800F4007408F607E92F75087602F200F30199
:100FF800F21BF3030800023408308A000408840A4C
:1010080082070034523445345334453454343A3426
:0A10180020344F344B340A34003406
:10114E009F0183169F010730F20072089F0408006A
:10115E00F200720899000C1EB2280C128316981811
:10116E000800B5289F0183169F0183121F088E3039
:10117E00F200720883169F04080083120313920173
:10118E00121592148B170B1783168C1483128C1056
:10119E00080072087304031908000130F2020030CF
:1011AE00031CF303F302DB28DC280000D0280534EF
:1011BE000534053404340534003406340034063462
:1011CE00023406340334063401347E088A007F0864
:1011DE008200EC200A128A158000840A04087D061B
:1011EE0003190034FF0A0319FE0AF0282008F20042
:1011FE002108F300F4018E30A3002308F500F60158
:10120E000A128A156B257208A0007308A1007408D3
:10121E00A2000800F400740884000130F300720A82
:10122E001A290310F30DFF3E031D182973088313AB
:10123E00000503192429013008000030080002308F
:10124E00831203136A0603192E29FB0108007B087B
:10125E00031D0800FB01FB0A0030E5000030E4002E
:10126E000030E3000030E2000800A7002708A300CA
:10127E00A401A5012308F2002408F3002508F400B8
:10128E008E30A6002608F500F6010A128A156B2587
:10129E007208A0007308A1007408A2000800F800EC
:1012AE0002307807F7007708840083138001840AE0
:1012BE008001840A8001840A800178080E3E840031
:1012CE000008F7007708F200F301F30A78080D3EE4
:1012DE00840000080A128A15DB2608008312031305
:1012EE006D08031982296D03031982290330F20058
:1012FE007208EA00080002306A06031908006D033E
:10130E00031D8B29EA0108006A0303190800043043
:10131E006A0603190800EA01EA0A0800F601F70155
:10132E00721C9F297408F6070318F70A7508F70749
:10133E0001300310F40DF50DFF3E031DA029013001
:10134E000310F30CF20CFF3E031DA7297208730461
:10135E00031D97297708F3007608F2000800F400C1
:10136E00740884000008F200840A0008F30067087D
:10137E007306031DC4296608720603190800740853
:10138E0084000008E600840A0008E7000130E20746
:10139E00003003180130E307003003180130E40772
:1013AE00003003180130E507080083120313A20072
:1013BE0022080A128A11E4270A128A157308A1005C
:1013CE007208A000A3012308F700F8017808210293
:1013DE00031DF32977082002031C080023082207A7
:1013EE0084000A128A1500200A128A150A128A151A
:1013FE00AF200A128A150130F70077088312A3076F
:10140E00EA29F41F172A7208003CF2007308031C25
:10141E00730F003CF3007408031C740F803CF4003F
:10142E00F71F262A7508003CF5007608031C760F78
:10143E00003CF6007708031C770F803CF7008030E5
:10144E00F4068030F70677087402031D080076084C
:10145E007302031D08007508720208008316031339
:10146E008C1C562A83128C1C562A0130E80703184E
:10147E00E90A0030E9070130EB070318EC0A0030E7
:10148E00EC0775306C02313003196B02031C532AC2
:10149E000130EB000030EC00DD3091008C10133089
:1014AE0083126902883003196802031C64007108F4
:1014BE008A00700E8300FE0E7E0E090080308316A9
:1014CE008700243098009030831298002708AB00D4
:1014DE002808AC002908AD002A08AE00043003101D
:1014EE00AB0DAC0DAD0DAE0DFF3E031D762A2E08D5
:1014FE00F5002D08F4002C08F3002B08F200013043
:10150E00F9003130F8002D30F7000030F6000A12E5
:10151E008A154E267208FF3E831699000800003485
:10152E000034003400340034003401344B340034C1
:10153E0009340234073400340934013400340034E1
:10154E00003400340034003401345A34003407348B
:10155E0003340834003407340234003400340034C9
:10156E0000340034003401345A3400340834063464
:10157E000834053408340734053402340534033492
:10158E00720873040319F42AF701F70AF31BDB2A16
:10159E0001300310F20DF30DFF3E031DD02A013072
:1015AE00F6007608F707CD2A73087502031DE12AA7
:1015BE0072087402031CE92A7208F4027308031CF1
:1015CE00F503F50201300310F30CF20CFF3E031D80
:1015DE00EA2A0130F702031DDB2A7508F3007408AE
:1015EE00F2000800F701F801720873040319302B9A
:1015FE00F901F90AF31B0F2B01300310F20DF30D55
:10160E00FF3E031D042B0130F6007608F907012B6F
:10161E0001300310F70DF80DFF3E031D102B73085C
:10162E007502031D1C2B72087402031C252B7208F5
:10163E00F4027308031CF503F5027714013003104E
:10164E00F30CF20CFF3E031D262B0130F902031D95
:10165E000F2B7808F3007708F2000800F7000A1243
:10166E008A15B9200A128A150730F6007D30F5006A
:10167E00F50B3F2BF60B3F2B7708F50002300310CE
:10168E00F50DFF3E031D462B0310750DF600760873
:10169E00831203139F041F140730F6007D30F500EC
:1016AE00F50B572BF60B572B831203131F151F1910
:1016BE005E2B83169F010730F50075089F04672B7C
:1016CE00682B0000831203131E08F40083161E08F5
:1016DE00F3000800F80078080A3E8400831300081F
:1016EE008312A0002008F2007808063E840000084D
:1016FE00A1002108F3007808093E840000080A12B0
:10170E008A15DB260A128A15780884000008F20072
:10171E00840A0008F3004030F4000630F5000A1287
:10172E008A15952172088312A0007308A100A201E8
:10173E00A3017808023E840020088000840A210854
:10174E008000840A22088000840A23088000080092
:10175E00D10004306A060319C12B6A030319C12B89
:10176E005108D0005008C8006D300A128A11F623B5
:10177E000A128A150A128A1575210A128A1551083B
:10178E000A128A114B200A128A150A128A1526216C
:10179E000A128A150A128A1537240A128A15BE30C1
:1017AE000A128A156D270A128A15A0300A128A1596
:1017BE006D270A128A15AF300A128A156D270A1282
:1017CE008A158312031351080A128A15B6210800CE
:1017DE00F8000130F702770A03190800780A84002E
:1017EE008313000883120313A0002008F200F301F4
:1017FE00F30A7808840000080A128A15DB260A12FA
:10180E008A15033083120313A2008A30A1005530CB
:10181E00A000A00B102CA10B102CA20B102C780AE0
:10182E0084008313000883120313A0002008F20023
:10183E00F3017808840000080A128A15DB260A12C2
:10184E008A15033083120313A2008A30A10055308B
:10185E00A000A00B302CA10B302CA20B302CF02BA7
:10186E007B03031D08006508031D5E2C6408031D21
:10187E005E2C6308031D5E2C06306202031D472C8E
:10188E0003185E2C831203135B08F7007708F2002F
:10189E00F3015A080A128A15DB2600308312E5007E
:1018AE000030E4000030E3000630E200080083124E
:1018BE0003136508031D702C6408031D702C4E3035
:1018CE006302031D6E2C20306202031D6E2C031C5E
:1018DE000800831203135B08F7007708F200F30188
:1018EE00F30A5A080A128A15DB260230F700770827
:1018FE00FB000800AE00B201B301B101B1012E0828
:10190E00AB002B08F700CD300A128A11E9210A121A
:10191E008A15AC00AD0103102C0DAF002D0DB000DB
:10192E00003030028D3003192F02031CA02C2F081B
:10193E0008002F08B2070318B30A3008B3070130A6
:10194E00AB002B08B1070B303102031C862C31087B
:10195E00AB00AC012B08F2002C08F3003308F500A5
:10196E003208F4000A128A15F9220A128A1573082F
:10197E00B3007208B20032083304031DCA2C96302D
:10198E00B2000030B3003208080075087404730406
:10199E00720403190F2DA101A10AF51BE42C0130CD
:1019AE00A0000310F20DF30DF40DF50DA00BD82CC5
:1019BE000130A0002008A107D42C75087902031D60
:1019CE00F22C74087802031DF22C73087702031DA3
:1019DE00F22C72087602031C022D7208F6027308AE
:1019EE00031C730FF7027408031C740FF8027508BA
:1019FE00031C750FF90201300310F50CF40CF30CF7
:101A0E00F20CFF3E031D032D0130A102031DE42C39
:101A1E007908F5007808F4007708F3007608F200EC
:101A2E0008000530AF002F08F70060300A128A1543
:101A3E00EF230A128A150A128A15C4200A128A1571
:101A4E000A128A15A7200A128A1500308312AA00DC
:101A5E000030A9002530A8008030A7000A128A1590
:101A6E0065220A128A150D3083120313B100AF30AE
:101A7E00B000B530AF00AF0B422DB00B422DB10B05
:101A8E00422D492D01300A128A15DC210A128A15BF
:101A9E005D08AF002F08F200F3015C080A128A15E8
:101AAE00DB260A128A15BE300A128A1556210A1230
:101ABE008A15A0300A128A1556210A128A15AF30DD
:101ACE000A128A155621080075080319732D740819
:101ADE0073047204031D862D0030F2000030F300F3
:101AEE000030F40008000130F7007708F5070130E8
:101AFE000310F40CF30CF20CFF3E031D7F2DFE3091
:101B0E0074050319A12D7A2D0130F7007708F5071A
:101B1E000130F207003003180130F30700300318CC
:101B2E000130F40701300310F40CF30CF20CFF3EFD
:101B3E00031D9A2DFF3074050319B42D8B2D023021
:101B4E007502031CB62D0130F50201300310F20DA3
:101B5E00F30DF40DFF3E031DAD2DF31FA62D7518CD
:101B6E00BE2DFF30F2057F30F305FF30F405031074
:101B7E00F50C7508F700F801F90110300310F70D98
:101B8E00F80DF90DFF3E031DC52D7708F2047808F8
:101B9E00F3047908F404760803190800F417080012
:101BAE00A4002408840002300006031DFE2D6508E3
:101BBE00031DEE2D6408031DEE2DEA306302031D96
:101BCE00EC2D61306202031DEC2D031C0800831204
:101BDE0003132408840083138001800A0030E5007B
:101BEE000030E4000030E3000030E200080024087A
:101BFE0084000003031D08006508031D262E6408DB
:101C0E00031D262E6308031D262E0B306202031DB4
:101C1E00102E0318262E83160313B5010530AF00C0
:101C2E000030B000AF300A128A1571230030E50083
:101C3E000030E4000030E3000B30E20008008312B5
:101C4E0003136508031D382E6408031D382E0B3050
:101C5E006302031D362EB9306202031D362E031C9D
:101C6E000800831203136108F9007908F200F301EA
:101C7E0060080A128A15DB260A128A15AF300A127C
:101C8E008A15562183122408840080010800A201BF
:101C9E00F51F5E2EF209F309F409F509F20A03198C
:101CAE00F30A0319F40A0319F50AA201A20AF91F8D
:101CBE006F2EF609F709F809F909F60A0319F70A5A
:101CCE000319F80A0319F90A0130A0002008A20628
:101CDE000030A6000030A5000030A4000030A300A4
:101CEE0075087404730472040319C42EA101A10AA9
:101CFE00F51B8F2E0130A0000310F20DF30DF40D25
:101D0E00F50DA00B832E0130A0002008A1077F2E19
:101D1E000130A0000310A30DA40DA50DA60DA00B60
:101D2E00912E75087902031DA62E74087802031DE4
:101D3E00A62E73087702031DA62E72087602031CC8
:101D4E00B72E7208F6027308031C730FF70274089D
:101D5E00031C740FF8027508031C750FF902231487
:101D6E0001300310F50CF40CF30CF20CFF3E031DC6
:101D7E00B82E0130A102031D8F2E22080319D22E78
:101D8E00A309A409A509A609A30A0319A40A0319FC
:101D9E00A50A0319A60A2608F5002508F40024084A
:101DAE00F3002308F2000800F6007608053A031D3A
:101DBE00F12E0130F400720AE62E0310F40DFF3EF0
:101DCE00031DE42E7408FF3AF500750883160313FD
:101DDE008505642F7608063A031D062F0130F400A0
:101DEE00720AFB2E0310F40DFF3E031DF92E74082C
:101DFE00FF3AF5007508831603138605642F7608DF
:101E0E00073A031D1B2F0130F400720A102F031026
:101E1E00F40DFF3E031D0E2F7408FF3AF5007508F2
:101E2E00831603138705642F7608083A031D302F97
:101E3E000130F400720A252F0310F40DFF3E031D2E
:101E4E00232F7408FF3AF5007508831603138805CF
:101E5E00642F0130F400720A362F0310F40DFF3E8A
:101E6E00031D342F7408FF3AF5007508831603130B
:101E7E008905642F0130F400720A472F0310F40D08
:101E8E00FF3E031D452F7408F50076088400750883
:101E9E008313800408000130F400720A582F0310D7
:101EAE00F40DFF3E031D562F7408FF3AF500760819
:101EBE00840075088313800508007308003A03191F
:101ECE00522F013A0319412F522F0800F7007708BD
:101EDE00023E84008313000883120313A000840AB9
:101EEE000008A100840A0008A200840A0008A300CA
:101EFE0023082204210420040319080077080E3E4B
:101F0E0084000008A0002008F20077080D3E84002F
:101F1E0000080A128A1511210A128A15013A031DA8
:101F2E00A92F77080E3E84000008A0002008F200BA
:101F3E00F30177080D3E840000080A128A15DB268D
:101F4E000A128A1577080C3E840000088312A0003E
:101F5E002008F200F30177080B3E840000080A12F5
:101F6E008A15DB260A128A157708073E84000008B8
:101F7E00F200840A0008F3000A128A15D0200A1211
:101F8E008A1577080C3E840083130008831203130E
:101F9E00A0002008F200F301F30A77080B3E84003C
:101FAE0000080A128A15DB260A128A157708073EE0
:101FBE0084000008F200840A0008F3000A128A1551
:101FCE00D0207708023E8400013083138002840AF9
:101FDE000030031C01308002840A0030031C0130E3
:101FEE008002840A0030031C013080020330840218
:021FFE000800D9
:02400E003E3D35
:00000001FF
