:060000000A128A110C280F
:10000800FE00030EF0000A08F1000A128A11BC2B48
:100018000A128A110F288313AF30FD000430FE0046
:10002800A830FF00A03084000A128A119B240A120B
:100038008A115130FD000330FE005A30FF00203095
:1000480084000A128A119B248316AF01B001B10102
:10005800B201B301B401B501B601B701B801831209
:10006800E401E501E601E701E801E901EA01EB0144
:10007800EC01ED01EE01FA01FB0183010A128A117C
:1000880045280A128A1183220A128A118312270824
:10009800E3006308F200F301F30A26080A128A1142
:1000A800F6210A128A1183122308E3006308F2007A
:1000B80022080A128A1172240A128A11013A031DAF
:1000C8008C28C201C20A9030BC000130BD003C300F
:1000D8000A128A111E230A128A113C300A128A1146
:1000E800D9200A128A1183120313B301B30A90307C
:1000F800AD000130AE002D300A128A111E230A12FB
:100108008A112D300A128A11D9200A128A11D02890
:100118002108E3006308F20020080A128A117224F9
:100128000A128A11013A031DBE28C2019030BC0090
:100138000130BD003C300A128A111E230A128A11AE
:100148003C300A128A11D9200A128A118312031329
:10015800B3019030AD000130AE002D300A128A1183
:100168001E230A128A112D300A128A11D9200A1266
:100178008A11D0283C300A128A1139240A128A11AD
:10018800A0300A128A1139240A128A112D300A1253
:100198008A1139240A128A11831203136A086B041C
:1001A80003195728EA01EB015728F7007708023EA0
:1001B80084000008D100840A0008D200840A0008DC
:1001C800D300840A0008D40054085304520451048C
:1001D8000319080077080E3E84000008D100510872
:1001E800F20077080D3E840000080A128A11722472
:1001F8000A128A11013A031D122977080E3E84005B
:100208000008D1005108F200F30177080D3E840080
:1002180000080A128A11F6210A128A1177080C3E80
:10022800840000088312D1005108F200F301770816
:100238000B3E840000080A128A11F6210A128A115C
:100248007708073E84000008F200840A0008F300DB
:100258000A128A11B7240A128A1177080C3E840000
:100268008313000883120313D1005108F200F3012D
:10027800F30A77080B3E840000080A128A11F62157
:100288000A128A117708073E84000008F200840ADF
:100298000008F3000A128A11B7247708023E840086
:1002A800013083138002840A0030031C013080026D
:1002B800840A0030031C01308002840A0030031CC9
:1002C80001308002033084020800D301F51F792928
:1002D800F209F309F409F509F20A0319F30A0319F3
:1002E800F40A0319F50AD301D30AF91F8A29F60972
:1002F800F709F809F909F60A0319F70A0319F80AB8
:100308000319F90A0130D1005108D3060030D7008B
:100318000030D6000030D5000030D40075087404D1
:10032800730472040319DF29D201D20AF51BAA2922
:100338000130D1000310F20DF30DF40DF50DD10BC2
:100348009E290130D1005108D2079A290130D100E5
:100358000310D40DD50DD60DD70DD10BAC297508CA
:100368007902031DC12974087802031DC129730885
:100378007702031DC12972087602031CD22972086C
:10038800F6027308031C730FF7027408031C740F3A
:10039800F8027508031C750FF90254140130031094
:1003A800F50CF40CF30CF20CFF3E031DD3290130BD
:1003B800D202031DAA2953080319ED29D409D50926
:1003C800D609D709D40A0319D50A0319D60A031975
:1003D800D70A5708F5005608F4005508F3005408E2
:1003E800F2000800F6007608053A031D0B2A0130D2
:1003F800F400720A012A0310F40DFF3E031DFF29C1
:100408007408FF3AF5007508831685057A2A760878
:10041800063A031D1F2A0130F400720A152A031038
:10042800F40DFF3E031D132A7408FF3AF500750802
:10043800831686057A2A7608073A031D332A01307F
:10044800F400720A292A0310F40DFF3E031D272A1F
:100458007408FF3AF5007508831687057A2A760826
:10046800083A031D472A0130F400720A3D2A031096
:10047800F40DFF3E031D3B2A7408FF3AF50075088A
:10048800831688057A2A0130F400720A4D2A03106F
:10049800F40DFF3E031D4B2A7408FF3AF50075085A
:1004A800831689057A2A0130F400720A5D2A03103E
:1004B800F40DFF3E031D5B2A7408F50076088400DE
:1004C80075088313800408000130F400720A6E2A4C
:1004D8000310F40DFF3E031D6C2A7408FF3AF50063
:1004E8007608840075088313800508007308003AAD
:1004F8000319682A013A0319572A682A080005309F
:10050800E0006008F7004F300A128A11D6220A125A
:100518008A110A128A11C5240A128A110A128A112A
:10052800DB240A128A1100308312DB000030DA0063
:100538002530D9008030D8000A128A118B230A127C
:100548008A110D3083120313E200AF30E100B53099
:10055800E000E00BAD2AE10BAD2AE20BAD2AB42A8C
:1005680001300A128A11EC230A128A112908E000C4
:100578006008F200F30128080A128A11F6210A120B
:100588008A113C300A128A1139240A128A112D3034
:100598000A128A1139240A128A11A0300A128A1101
:1005A80039240800F8000130F702770A0319080017
:1005B800780A84008313000883120313D1005108BA
:1005C800F200F301F30A7808840000080A128A117D
:1005D800F6210A128A11033083120313D3008A30DA
:1005E800D2005530D100D10BF72AD20BF72AD30B02
:1005F800F72A780A84008313000883120313D100B2
:100608005108F200F3017808840000080A128A11E0
:10061800F6210A128A11033083120313D3008A3099
:10062800D2005530D100D10B172BD20B172BD30B7F
:10063800172BD72AF80078080A3E84000008D10052
:100648005108F2007808063E84000008D2005208DB
:10065800F3007808093E840000080A128A11F6217E
:100668000A128A11780884000008F200840A000837
:10067800F3004030F4000630F5000A128A111824FD
:1006880072088312D1007308D200D301D40178080C
:10069800023E840051088000840A52088000840ABF
:1006A80053088000840A5408800008000534053483
:1006B8000534043405340034063400340634023476
:1006C8000634033402340034003400340034003477
:1006D800003401344B340034093402340734003414
:1006E8000934013400340034003400340034003458
:1006F80001345A34003408340634083405340834D4
:1007080007340534023405340334063401348030A8
:100718008316870024309800903083129800580878
:10072800DC005908DD005A08DE005B08DF000430F1
:100738000310DC0DDD0DDE0DDF0DFF3E031D9C2BD0
:100748005F08F5005E08F4005D08F3005C08F2003D
:100758000130F9003130F8002D30F7000030F60094
:100768000A128A1169217208FF3E8316990008004F
:10077800831603138C1CDD2B83128C1CDD2B01309C
:10078800EA070318EB0A0030EB070130EC070318FF
:10079800ED0A0030ED0775306D02313003196C0237
:1007A800031CDA2B0130EC000030ED00DD30910045
:1007B8008C10133083126B02883003196A02031CF1
:1007C800640071088A00700E8300FE0E7E0E090018
:1007D80083120313D30053080A128A1157240A12EA
:1007E8008A117308D2007208D100D4015408F700A6
:1007F800F80178085202031D032C77085102031CE4
:1008080008005408530784000A128A1186240A1221
:100818008A110A128A11D1240A128A110130F700AA
:1008280077088312D407FA2BF601F701721C222CE1
:100838007408F6070318F70A7508F707013003105C
:10084800F40DF50DFF3E031D232C01300310F30CAE
:10085800F20CFF3E031D2A2C72087304031D1A2C88
:100868007708F3007608F2000800F80002307807ED
:10087800F700770884008001840A8001840A8001D7
:10088800840A800178080E3E84000008F700770883
:10089800F200F301F30A78080D3E840000080A12FA
:1008A8008A11F6210800F5007508F4007408F600AE
:1008B800760884000A128A1186240A128A11003ADC
:1008C80003196B2C0130F4007408F6075C2C7508CA
:1008D8007602F200F301F21BF3030800F400740837
:1008E80084000130F300720A7B2C0310F30DFF3EE5
:1008F800031D792C730800050319842C01300800A6
:100908000030080004308A000408840A8207003492
:10091800523445345334453454343A3420344F3403
:100928004B340A3400347E088A007F0882009724FA
:100938000A128A118000840A04087D06031900340B
:10094800FF0A0319FE0A9B2C0034003400340034DB
:100958000034003401345A34003407340334083482
:100968000034073402347208730403190800013094
:10097800F2020030031CF303F302C22CC32C000064
:10098800B72C831203139201121592148B170B17AD
:1009980083168C1483128C100800F20072089900D8
:1009A8000C1ED42C0C12831698180800D72C9F0103
:0E09B80083169F010730F20072089F040800AA
:02400E003E3D35
:00000001FF
