:060000000A128A110C280F
:10000800FE00030EF0000A08F1000A128A15F02912
:100018000A128A110F288313D130FD000A30FE001E
:100028005130FF00A03084000A128A1590200A126D
:100038008A116230FD000830FE007E30FF00543027
:1000480084000A128A1590200A128A110A128A114B
:10005800F927FB008316D101D201D301D401D501C0
:10006800D601D701D801D901DA018312E201E301EF
:10007800E401E501E601E701E801E901EA01EB0134
:10008800EC01ED01FA0183010A128A11002CC30068
:10009800383084000A30FF0083138001840AFF0B84
:1000A8005028E4295F08B4003408F200F301F30A89
:1000B8005E080A128A1543260A128A1183125D08FD
:1000C800B4003408F200F3015C080A128A154326CA
:1000D80008005F08B4003408F200F3015E080A1251
:1000E8008A1543260A128A1183125D08B40034085F
:1000F800F200F3015C080A128A1543260A128A11D3
:10010800831243080A128A153C240A128A11B40081
:100118003408C20050304202031C9828023083126F
:10012800B4003408EA0008000430B4003408EA00D7
:100138000030E5000030E4000030E3000030E20069
:1001480008005F08B4003408F200F3015E080A12E0
:100158008A1543260A128A1183125D08B4003408EE
:10016800F200F3015C080A128A1543260A128A1162
:100178000030F5000030F4002730F3001030F200B2
:1001880083126508F9006408F8006308F70062083C
:10019800F6000A128A1587240A128A11750874044F
:1001A80073047204031DDE2843080A128A153C24CE
:1001B8000A128A116508031D08296408031D082905
:1001C8006308031D08290B306202031DEB2803187E
:1001D800082983160313C401C40A3F30BE00003047
:1001E800BF00A601A60A3F30A0000030A100A03041
:1001F8000A128A152C230030E5000030E400003094
:10020800E3000B30E200080070308312031362062B
:10021800113003196306031D352964036504031DA2
:10022800352983160313C4013F30BE000030BF00D8
:10023800BE300A128A152C230A128A118316A601C7
:100248003F30A0000030A100A0300A128A152C23EC
:100258000030E5000130E4001130E3007130E200C5
:100268000800831203136508031D64290230640221
:10027800031D462922306302031D4629E03062022D
:10028800031D462903186429831603134308031D15
:1002980008004208031D08001F304102031D5829A9
:1002A80040304002031D5829031808008316031321
:1002B8004408031D0800BE300A128A1511210800DF
:1002C800E0308312031362062230031963060230FA
:1002D800031964066504031DAD2983160313C401BD
:1002E8000130BE000030BF00BE300A128A152C2330
:1002F8000A128A118316A6010130A0000030A1005D
:10030800A0300A128A152C230A128A110130B4006F
:100318000030B5000030B6000030B7006208B407FE
:1003280063080318630F99299A29B5076408031805
:10033800640F9F29A029B60765080318650AB7073F
:100348003708E5003608E4003508E3003408E20021
:100358000800831203136508031DC02902306402D4
:10036800031DBE2949306302031DBE29F030620215
:10037800031DBE29031C0800BE300A128A1511216C
:100388000A128A11A0300A128A1511210A128A113A
:1003980092285F08B4003408F200F3015E080A12DC
:1003A8008A1543260A128A1183125D08B40034089C
:1003B800F200F301F30A5C080A128A1543260800C2
:1003C8006A08003A03195628013A03196D28033AB6
:1003D8000319CD29063A0319A528F2290800AA000D
:1003E8002A0A840083130008A0002008F200F30101
:1003F8002A08840000080A128A1543260A128A115C
:10040800023083120313A000A00B082A00008312F5
:1004180003132A0A840083130008A0002008F200AE
:10042800F301F30A2A08840000080A128A154326F1
:100438000A128A11073083120313A000A00B222A84
:100448000000831203132A0A840083130008A00003
:100458002008F200F3012A08840000080A128A150D
:1004680043260A128A1183122A08033E84000008D0
:10047800A0002008F2002A08023E840000080A12A0
:100488008A15B1200A128A11003A031D5E2A2A0829
:10049800033E84000008A0002008F2002A08023E5B
:1004A800840000080A128A15B1200A128A11003A3B
:1004B80003194B2A770884000008A000840A000862
:1004C800A1002008A6002108A700A801A9018312FD
:1004D80003132A08033E840083130008A0002008A1
:1004E800F2002A08023E840000080A128A15B12088
:1004F8000A128A11003A0319B22A77088400000800
:10050800A000840A0008A1002008A2002108A30076
:10051800A401A5012608A2022708031C270F952A73
:10052800962AA3022808031C280F9B2A9C2AA402A7
:100538002908031C290FA12AA22AA5022508031DA0
:10054800B22A2408031DB22A01302302031DB02A4F
:100558002D302202031DB02A031C6B2A7708840061
:100568008313000883120313A000840A0008A10063
:100578002008A2002108A300A401A5012608A202C0
:100588002708031C270FC92ACA2AA3022808031C04
:10059800280FCF2AD02AA4022908031C290FD52AFC
:1005A800D62AA5022508A9002408A8002308A70020
:1005B8002208A6002908031DED2A2808031DED2A94
:1005C8002708031DED2A97302602031DEB2A031C7A
:1005D800F72A003083120313A9000030A800003066
:1005E800A7000030A6008312031326080800240879
:1005F800AA002508AB002608AC0003102B0D2C0D13
:10060800AD002D08B0002708AA002808AB0029086B
:10061800AC0003102B0D2C0DAD002D08AF003008D9
:100628000319222B2F0830020318292B2F08AA00A0
:100638003008AA0219302A02031C292B2708A40013
:100648002808A5002908A60008002F080319080093
:1006580030082F020318382B3008AA002F08AA02E6
:1006680019302A02031808000630AA002A08AE002A
:10067800A61BAE17A91B2E17A517FF30A405FF3020
:10068800A5050030A605A817FF30A705FF30A80567
:100698000030A9052F0830020318782B0130031009
:1006A800A70DA80DA90DFF3E031D532B0130AF0266
:1006B8002F0830060319732B0130AE022E080739B4
:1006C8000319732B522B01300310A60CA50CA40C94
:1006D800FF3E031D682B0130AA002A08B007300826
:1006E8002F060319A12B672B30082F020318A12B03
:1006F80001300310A40DA50DA60DFF3E031D7D2B93
:100708000130B0022F08300603199D2B0130AE02CC
:100718002E08073903199D2B7C2B01300310A90CD7
:10072800A80CA70CFF3E031D922B0130AA002A0833
:10073800AF0730082F06031D912BAE1FB32BFF30D8
:10074800A406FF30A506FF30A6060130A407003036
:1007580003180130A507003003180130A6072E1F23
:10076800C52BFF30A706FF30A806FF30A9060130C9
:10077800A707003003180130A8070030031801301C
:10078800A907AE012408A707250803110318250A9D
:10079800031DA807260803110318260A031DA90725
:1007A800A91FE82BFF30A706FF30A806FF30A906CF
:1007B8000130A707003003180130A80700300318DC
:1007C8000130A907AE01AE0A2708F2002808F30095
:1007D8002908F4003008AA002A08F5002E08AB0002
:1007E8002B08F6000A128A15D3247208A40073088D
:1007F800A5007408A6000800D3010A128A11A627CA
:100808000A128A1183125B08D2005208F200F3011F
:10081800F30A5A080A128A1543260A128A11831201
:100828005708D2005208F20056080A128A15B12059
:100838000A128A11013A031D242CD301D30A352C3C
:100848005508D2005208F20054080A128A15B1203D
:100858000A128A11013A031D352C0230D2005208BF
:10086800D3005308031D3F2C6B300A128A156A23E4
:100878000A128A11E62C5708D2005208F2005608CC
:100888000A128A15B1200A128A11013A031D8B2C0B
:100898005303031D772C8316C401C40A9030BE008D
:1008A8000130BF00BE300A128A152C230A128A11A1
:1008B800BE300A128A1102270A128A1183160313FC
:1008C800A601A60A9030A0000130A100A0300A12AB
:1008D8008A152C230A128A11A0300A128A110227BB
:1008E8000A128A11E62C8316B501B50A9030AF00BA
:1008F8000130B000AF300A128A152C230A128A116F
:10090800AF300A128A1102270A128A11E62C5508FA
:10091800D2005208F20054080A128A15B1200A12AD
:100928008A11013A031DD42C5303031DC12C8316CD
:10093800C4019030BE000130BF00BE300A128A15D3
:100948002C230A128A11BE300A128A1102270A12AF
:100958008A1183160313A6019030A0000130A1006C
:10096800A0300A128A152C230A128A11A0300A1202
:100978008A1102270A128A11E62C8316B5019030D3
:10098800AF000130B000AF300A128A152C230A12CA
:100998008A11AF300A128A1102270A128A11E62C2C
:1009A800BE300A128A1511210A128A11AF300A12B2
:1009B8008A1511210A128A11A0300A128A151121EA
:1009C8000A128A1183120313680869040319352C63
:1009D800E801E901352CCF005708C9004908F200A1
:1009E80056080A128A15B1200A128A11003A031D04
:1009F8000D2D2E2D033083120313CB000830CA00AF
:100A08007630C900C90B062DCA0B062DCB0B062D57
:100A18000000831203135708C9004908F20056085A
:100A28000A128A15B1200A128A11003A031DFE2CF7
:100A38004F088400000803192C2D4F088400023049
:100A4800000603192C2D4F0884008001800A842D8C
:100A580003307F2DB830F2000B30F30048088400D3
:100A68000008F400840A0008F5000A128A15822298
:100A78000A128A1172087304031D8C2D0A128A1532
:100A8800D5260A128A114008CC004108CD00420838
:100A9800CE004C08F2004D08F3004E08F4009A30DE
:100AA800F5009930F6003F30F7000A128A15C32185
:100AB8000A128A11031C772D4F088400053083130E
:100AC800000603198C2D4F08840006300006031910
:100AD8008C2D4F08840002300006031D752D06304A
:100AE8007F2D05307F2D4F088400063083130006C4
:100AF800031D8C2D0230C9004F088400490880006E
:100B08000030E5000030E4000030E3000030E2008F
:100B18004F088400000803199C2D4F088400000327
:100B280003199C2D4F08840002300006031DA12DD7
:100B38004F080A128A153F2508004F080A128A1121
:100B4800592608002008A6002108A7002208A800A6
:100B58000310270D280DA9002908AA002A08031D3B
:100B6800BC2D0030A0000030A1000030A200080019
:100B78002308A6002408A7002508A8000310270DAD
:100B8800280DA9002908AF002F08031DD22D003019
:100B9800A0000030A1000030A20008002F087B3E12
:100BA800A6002608AA072208A6002608AF002508DE
:100BB800A6002608AF068030A6002608AF05A117B4
:100BC800A417FF30A305FF30A4050030A5050030A9
:100BD800AB000030AC000030AD000730A60026089E
:100BE800AE00201C052E2308AB07240803110318A8
:100BF800240A031DAC07250803110318250A031D41
:100C0800AD0701300310A20CA10CA00CFF3E031D80
:100C1800062E01300310A30DA40DA50DFF3E031DE4
:100C28000E2E0130AE02031DF52D0930A600260850
:100C3800AE00201C2D2E2308AB072408031103182F
:100C4800240A031DAC07250803110318250A031DF0
:100C5800AD0701300310A20CA10CA00CFF3E031D30
:100C68002E2E01300310AD0CAC0CAB0CFF3E031D57
:100C7800362E0130AE02031D1D2E2B08F2002C0863
:100C8800F3002D08F4002A08A6002608F5002F080E
:100C9800A7002708F6000A128A15D3247208A000B4
:100CA8007308A1007408A2000800A40024088400A6
:100CB80005300006031DAE2E6508031D902E64083E
:100CC800031D902E6308031D902E0B306202031D36
:100CD8006D2E0318902E831203136108F90079080A
:100CE800F200F301F30A60080A128A1543260A1271
:100CF8008A11B501B50A0530AF000030B000AF3039
:100D08000A128A152C230030E5000030E400003078
:100D1800E3000B30E2000800831203136508031D8B
:100D2800A22E6408031DA22E0B306302031DA02E01
:100D3800B9306202031DA02E031C0800AF300A124E
:100D48008A1511210630F9008312240884007908D5
:100D5800800008002408840003300006031D0800F2
:100D68006508031DE42E6408031DE42E6308031DB3
:100D7800E42E0B306202031DC12E0318E42E8312E9
:100D880003136108F9007908F200F301F30A600817
:100D98000A128A1543260A128A11B501B50A0530C6
:100DA800AF000030B000AF300A128A152C23003093
:100DB800E5000030E4000030E3000B30E2000800FA
:100DC800831203136508031DF62E6408031DF62E0F
:100DD8000B306302031DF42EB9306202031DF42E9A
:100DE800031C0800AF300A128A1511210430F900DB
:100DF800831224088400790880000800F700770827
:100E0800023E84008313000883120313A000840A9F
:100E18000008A100840A0008A200840A0008A300B0
:100E280023082204210420040319952F77080E3E75
:100E380084000008A0002008F20077080D3E840016
:100E480000080A128A15B1200A128A11013A031DF4
:100E58003E2F77080E3E84000008A0002008F2000C
:100E6800F30177080D3E840000080A128A1543260C
:100E78000A128A1177080C3E840000088312A00029
:100E88002008F200F30177080B3E840000080A12DC
:100E98008A1543260A128A117708073E840000083B
:100EA800F200840A0008F3000A128A1570200A1258
:100EB8008A1177080C3E84008313000883120313F9
:100EC800A0002008F200F301F30A77080B3E840023
:100ED80000080A128A1543260A128A117708073E63
:100EE80084000008F200840A0008F3000A128A1538
:100EF80070207708023E8400013083138002840A40
:100F08000030031C01308002840A0030031C0130C9
:100F18008002840A0030031C0130800203308402FE
:100F2800080077080E3E84000008A0002008F200A0
:100F3800F301F30A77080D3E840000080A128A15A7
:100F4800432608000530AF002F08F70060300A126A
:100F58008A15AA230A128A110A128A1564200A120B
:100F68008A110A128A1547200A128A110030831240
:100F7800AA000030A9002530A8008030A7000A1276
:100F88008A1520220A128A110D3083120313B10028
:100F9800AF30B000B530AF00AF0BD02FB00BD02FB3
:100FA800B10BD02FD72F01300A128A1597210A12B8
:100FB8008A115D08AF002F08F200F3015C080A12DD
:100FC8008A1543260A128A11BE300A128A1511217F
:100FD8000A128A11A0300A128A1511210A128A11DE
:0C0FE800AF300A128A15112108000234F3
:1010000008308A000408840A8207003452344534C8
:101010005334453454343A3420344F344B340A3446
:0210200000349A
:10108E009F0183169F010730F20072089F0408002B
:10109E00F200720899000C1E52280C128316981832
:1010AE00080055289F0183169F0183121F088E305A
:1010BE00F200720883169F04080083120313920134
:1010CE00121592148B170B1783168C1483128C1017
:1010DE00080072087304031908000130F202003090
:1010EE00031CF303F3027B287C28000070280534D0
:1010FE000534053404340534003406340034063423
:10110E00023406340334063401347E088A007F0824
:10111E0082008C200A128A158000840A04087D063B
:10112E0003190034FF0A0319FE0A90282008F20062
:10113E002108F300F4018E30A3002308F500F60118
:10114E000A128A15D3247208A0007308A10074082D
:10115E00A2000800F400740884000130F300720A43
:10116E00BA280310F30DFF3E031DB828730883132E
:10117E0000050319C42801300800003008000230B1
:10118E00831203136A060319CE28FB0108007B089D
:10119E00031D0800FB01FB0A0030E5000030E400EF
:1011AE000030E3000030E2000800A7002708A3008B
:1011BE00A401A5012308F2002408F3002508F40079
:1011CE008E30A6002608F500F6010A128A15D324E1
:1011DE007208A0007308A1007408A2000800F500B0
:1011EE007508F4007408F600760884000A128A1551
:1011FE0000200A128A15003A03190A290130F40058
:10120E007408F607FB2875087602F200F301F21B4C
:10121E00F3030800F80002307807F700770884001F
:10122E0083138001840A8001840A8001840A80016C
:10123E0078080E3E84000008F7007708F200F301EC
:10124E00F30A78080D3E840000080A128A15432618
:10125E000800831203136D0803193D296D0303194A
:10126E003D290330F2007208EA00080002306A06D7
:10127E00031908006D03031D4629EA0108006A03DD
:10128E000319080004306A0603190800EA01EA0A85
:10129E000800F601F701721C5A297408F6070318A4
:1012AE00F70A7508F70701300310F40DF50DFF3E30
:1012BE00031D5B2901300310F30CF20CFF3E031DDE
:1012CE00622972087304031D52297708F300760809
:1012DE00F2000800F400740884000008F200840A8A
:1012EE000008F30067087306031D7F29660872065F
:1012FE0003190800740884000008E600840A000838
:10130E00E7000130E207003003180130E307003038
:10131E0003180130E407003003180130E507080018
:10132E0083120313A20022080A128A15F6200A124B
:10133E008A157308A1007208A000A3012308F70004
:10134E00F80178082102031DAE2977082002031C3C
:10135E0008002308220784000A128A1500200A12A8
:10136E008A150A128A154F200A128A150130F700C3
:10137E0077088312A307A529F41FD2297208003C0F
:10138E00F2007308031C730F003CF3007408031C77
:10139E00740F803CF400F71FE1297508003CF5003E
:1013AE007608031C760F003CF6007708031C770FB7
:1013BE00803CF7008030F4068030F7067708740220
:1013CE00031D080076087302031D080075087202DB
:1013DE000800831603138C1C112A83128C1C112AED
:1013EE000130E8070318E90A0030E9070130EB077E
:1013FE000318EC0A0030EC0775306C02313003191B
:10140E006B02031C0E2A0130EB000030EC00DD30C5
:10141E0091008C1013308312690288300319680210
:10142E00031C640071088A00700E8300FE0E7E0E8F
:10143E000900803083168700243098009030831284
:10144E0098002708AB002808AC002908AD002A0830
:10145E00AE0004300310AB0DAC0DAD0DAE0DFF3E66
:10146E00031D312A2E08F5002D08F4002C08F30078
:10147E002B08F2000130F9003130F8002D30F70062
:10148E000030F6000A128A15B6257208FF3E831642
:10149E009900080000340034003400340034003465
:1014AE0001344B3400340934023407340034093427
:1014BE00013400340034003400340034003401347C
:1014CE005A340034073403340834003407340234F9
:1014DE0000340034003400340034003401345A3403
:1014EE00003408340634083405340834073405341F
:1014FE00023405340334720873040319AF2AF7015A
:10150E00F70AF31B962A01300310F20DF30DFF3E7E
:10151E00031D8B2A0130F6007608F707882A730818
:10152E007502031D9C2A72087402031CA42A7208F9
:10153E00F4027308031CF503F50201300310F30CDB
:10154E00F20CFF3E031DA52A0130F702031D962A59
:10155E007508F3007408F2000800F701F80172082C
:10156E0073040319EB2AF901F90AF31BCA2A013095
:10157E000310F20DF30DFF3E031DBF2A0130F600DE
:10158E007608F907BC2A01300310F70DF80DFF3E5F
:10159E00031DCB2A73087502031DD72A7208740225
:1015AE00031CE02A7208F4027308031CF503F5020B
:1015BE00771401300310F30CF20CFF3E031DE12AE9
:1015CE000130F902031DCA2A7808F3007708F200E9
:1015DE000800F7000A128A1559200A128A150730D8
:1015EE00F6007D30F500F50BFA2AF60BFA2A77088D
:1015FE00F50002300310F50DFF3E031D012B031005
:10160E00750DF6007608831203139F041F1407301E
:10161E00F6007D30F500F50B122BF60B122B831214
:10162E0003131F151F19192B83169F010730F50081
:10163E0075089F04222B232B0000831203131E0810
:10164E00F40083161E08F3000800F80078080A3E1E
:10165E008400831300088312A0002008F20078088B
:10166E00063E84000008A1002108F3007808093E18
:10167E00840000080A128A1543260A128A15780871
:10168E0084000008F200840A0008F3004030F400E1
:10169E000630F5000A128A15502172088312A00036
:1016AE007308A100A201A3017808023E840020085D
:1016BE008000840A21088000840A22088000840A9F
:1016CE00230880000800D10004306A0603197C2B21
:1016DE006A0303197C2B5108D0005008C8006D30E6
:1016EE000A128A11EF240A128A150A128A1530215B
:1016FE000A128A1551080A128A114B200A128A15EB
:10170E000A128A15C6200A128A150A128A15F2239F
:10171E000A128A15BE300A128A1102270A128A1577
:10172E00A0300A128A1102270A128A15AF300A1245
:10173E008A1102270A128A158312031351080A12FC
:10174E008A1571210800F8000130F702770A031993
:10175E000800780A84008313000883120313A00084
:10176E002008F200F301F30A7808840000080A1238
:10177E008A1543260A128A15033083120313A20018
:10178E008A30A1005530A000A00BCB2BA10BCB2B88
:10179E00A20BCB2B780A8400831300088312031349
:1017AE00A0002008F200F3017808840000080A1255
:1017BE008A1543260A128A15033083120313A200D8
:1017CE008A30A1005530A000A00BEB2BA10BEB2B08
:1017DE00A20BEB2BAB2B7B03031D08006508031D2F
:1017EE00192C6408031D192C6308031D192C0630CF
:1017FE006202031D022C0318192C831203135B08BB
:10180E00F7007708F200F3015A080A128A154326E8
:10181E0000308312E5000030E4000030E3000630B3
:10182E00E2000800831203136508031D2B2C6408C5
:10183E00031D2B2C4E306302031D292C2030620217
:10184E00031D292C031C0800831203135B08F700E9
:10185E007708F200F301F30A5A080A128A15432692
:10186E000230F7007708FB000800AE00B201B301AA
:10187E00B101B1012E08AB002B08F700CD300A12D2
:10188E008A11F3210A128A15AC00AD0103102C0D3A
:10189E00AF002D0DB000003030028D3003192F0235
:1018AE00031C5B2C2F0808002F08B2070318B30A7D
:1018BE003008B3070130AB002B08B1070B303102F3
:1018CE00031C412C3108AB00AC012B08F2002C0894
:1018DE00F3003308F5003208F4000A128A15B42218
:1018EE000A128A157308B3007208B2003208330464
:1018FE00031D852C9630B2000030B300320808006C
:10190E0075087404730472040319CA2CA101A10A88
:10191E00F51B9F2C0130A0000310F20DF30DF40DFA
:10192E00F50DA00B932C0130A0002008A1078F2CE1
:10193E0075087902031DAD2C74087802031DAD2CB9
:10194E0073087702031DAD2C72087602031CBD2CA2
:10195E007208F6027308031C730FF7027408031C57
:10196E00740FF8027508031C750FF902013003108D
:10197E00F50CF40CF30CF20CFF3E031DBE2C0130E3
:10198E00A102031D9F2C7908F5007808F400770852
:10199E00F3007608F200080075080319DB2C7408B2
:1019AE0073047204031DEE2C0030F2000030F300BD
:1019BE000030F40008000130F7007708F507013019
:1019CE000310F40CF30CF20CFF3E031DE72CFE305B
:1019DE0074050319092DE22C0130F7007708F5077D
:1019EE000130F207003003180130F30700300318FE
:1019FE000130F40701300310F40CF30CF20CFF3E2F
:101A0E00031D022DFF30740503191C2DF32C02301B
:101A1E007502031C1E2D0130F50201300310F20D6C
:101A2E00F30DF40DFF3E031D152DF31F0E2D75182E
:101A3E00262DFF30F2057F30F305FF30F40503103D
:101A4E00F50C7508F700F801F90110300310F70DC9
:101A5E00F80DF90DFF3E031D2D2D7708F2047808C1
:101A6E00F3047908F404760803190800F417080043
:101A7E00A4002408840002300006031D662D6508AC
:101A8E00031D562D6408031D562DEA306302031DF7
:101A9E00542D61306202031D542D031C0800831265
:101AAE0003132408840083138001800A0030E500AC
:101ABE000030E4000030E3000030E20008002408AB
:101ACE0084000003031D08006508031D8E2D6408A5
:101ADE00031D8E2D6308031D8E2D0B306202031D18
:101AEE00782D03188E2D83160313B5010530AF0024
:101AFE000030B000AF300A128A152C230030E500FA
:101B0E000030E4000030E3000B30E20008008312E6
:101B1E0003136508031DA02D6408031DA02D0B30B3
:101B2E006302031D9E2DB9306202031D9E2D031C00
:101B3E000800831203136108F9007908F200F3011B
:101B4E0060080A128A1543260A128A15AF300A1245
:101B5E008A15112183122408840080010800A20135
:101B6E00F51FC62DF209F309F409F509F20A031956
:101B7E00F30A0319F40A0319F50AA201A20AF91FBE
:101B8E00D72DF609F709F809F909F60A0319F70A24
:101B9E000319F80A0319F90A0130A0002008A20659
:101BAE000030A6000030A5000030A4000030A300D5
:101BBE00750874047304720403192C2EA101A10A72
:101BCE00F51BF72D0130A0000310F20DF30DF40DEF
:101BDE00F50DA00BEB2D0130A0002008A107E72D7D
:101BEE000130A0000310A30DA40DA50DA60DA00B92
:101BFE00F92D75087902031D0E2E74087802031D47
:101C0E000E2E73087702031D0E2E72087602031C29
:101C1E001F2E7208F6027308031C730FF702740866
:101C2E00031C740FF8027508031C750FF9022314B8
:101C3E0001300310F50CF40CF30CF20CFF3E031DF7
:101C4E00202E0130A102031DF72D220803193A2E72
:101C5E00A309A409A509A609A30A0319A40A03192D
:101C6E00A50A0319A60A2608F5002508F40024087B
:101C7E00F3002308F2000800F6007608053A031D6B
:101C8E00592E0130F400720A4E2E0310F40DFF3E51
:101C9E00031D4C2E7408FF3AF500750883160313C6
:101CAE008505CC2E7608063A031D6E2E0130F40003
:101CBE00720A632E0310F40DFF3E031D612E74088D
:101CCE00FF3AF5007508831603138605CC2E7608A9
:101CDE00073A031D832E0130F400720A782E03108A
:101CEE00F40DFF3E031D762E7408FF3AF5007508BD
:101CFE00831603138705CC2E7608083A031D982EFB
:101D0E000130F400720A8D2E0310F40DFF3E031DF8
:101D1E008B2E7408FF3AF500750883160313880599
:101D2E00CC2E0130F400720A9E2E0310F40DFF3EED
:101D3E00031D9C2E7408FF3AF500750883160313D5
:101D4E008905CC2E0130F400720AAF2E0310F40D6B
:101D5E00FF3E031DAD2E7408F5007608840075084D
:101D6E008313800408000130F400720AC02E0310A1
:101D7E00F40DFF3E031DBE2E7408FF3AF5007608E3
:101D8E00840075088313800508007308003A031950
:101D9E00BA2E013A0319A92EBA2E08000030C5003A
:101DAE000030C6000030C700C40100300A128A1588
:101DBE00F0220A128A1574088312A1007308A0007B
:101DCE000A128A159D200A128A152008A4002108DD
:101DDE00A5002208A6004508A7004608A800470847
:101DEE00A9000A128A11FB220A128A152408C500BC
:101DFE002508C6002608C7004508F2004608F3006D
:101E0E004708F4000030F500C830F6004230F70005
:101E1E000A128A15C3210A128A15031C1E2F0130BD
:101E2E00C3004308C4070B304402031CDC2E4408D5
:101E3E000A128A15DC200A128A152008B000210821
:101E4E00B1002208B2004508B3004608B4004708A6
:101E5E00B5000A128A1568270A128A153008C500BD
:101E6E003108C6003208C7000030B0008030B10023
:101E7E004430B2000030A000A030A1004030A200DB
:101E8E004508A3004608A4004708A5000A128A11B7
:101E9E00A6250A128A152008B3002108B4002208CC
:101EAE00B5000A128A1568273008C5003108C60029
:101EBE003208C7004508C0004608C1004708C200E6
:101ECE0008003308B6003408B7003508B800031010
:101EDE00370D380DB9003908BE003E08031D7E2FA0
:101EEE000030B0000030B1000030B2000800300801
:101EFE00B6003108B7003208B8000310370D380DA0
:101F0E00B9003908BF003F08031D942F0030B00000
:101F1E000030B1000030B20008000030BB000030CD
:101F2E00BC000030BD0089303F07B6003608BE0247
:101F3E003508B6003608BF003208B6003608BF06B0
:101F4E008030B6003608BF05B417FF30B305FF303A
:101F5E00B4050030B505B117FF30B005FF30B1053F
:101F6E000030B2051830B6003608BA000130031042
:101F7E00BB0DBC0DBD0DFF3E031DBE2F320835023D
:101F8E00031DCF2F31083402031DCF2F300833022B
:101F9E00031CDC2F3008B3023108031C310FB402CE
:101FAE003208031C320AB5023B1401300310B30D84
:101FBE00B40DB50DFF3E031DDD2F0130BA02031D1A
:101FCE00BD2F3B08F2003C08F3003D08F4003E082C
:101FDE00B6003608F5003F08B7003708F6000A12BB
:101FEE008A15D3247208B0007308B1007408B200C9
:021FFE000800D9
:02400E003E3D35
:00000001FF
