:060000000A128A110C280F
:10000800FE00030EF0000A08F1000A128A15CC2E31
:100018000A128A110F288313D530FD000F30FE0015
:100028008F30FF00A03084000A128A157E250A123C
:100038008A116430FD000D30FE008B30FF00533014
:1000480084000A128A157E258316D501D601D701A8
:10005800D801D901DA01DB01DC01DD01DE018312FF
:10006800E401E501E601E701E801E901EA01EB0144
:10007800EC01ED01EE01FA01FB0183010A128A1578
:10008800C52D2408AA002508AB002608AC000310DB
:100098002B0D2C0DAD002D08B0002708AA0028084C
:1000A800AB002908AC0003102B0D2C0DAD002D085A
:1000B800AF00300803196C282F0830020318732882
:1000C8002F08AA003008AA0219302A02031C732834
:1000D8002708A4002808A5002908A60008002F085A
:1000E8000319080030082F02031882283008AA00D4
:1000F8002F08AA0219302A02031808000630AA009D
:100108002A08AE00A61BAE17A91B2E17A517FF308D
:10011800A405FF30A5050030A605A817FF30A705E0
:10012800FF30A8050030A9052F0830020318C2289F
:1001380001300310A70DA80DA90DFF3E031D9D2832
:100148000130AF022F0830060319BD280130AE0276
:100158002E0807390319BD289C2801300310A60C66
:10016800A50CA40CFF3E031DB2280130AA002A08E2
:10017800B00730082F060319EB28B12830082F02E2
:100188000318EB2801300310A40DA50DA60DFF3EA2
:10019800031DC7280130B0022F0830060319E728CD
:1001A8000130AE022E0807390319E728C6280130A6
:1001B8000310A90CA80CA70CFF3E031DDC28013076
:1001C800AA002A08AF0730082F06031DDB28AE1F38
:1001D800FD28FF30A406FF30A506FF30A606013033
:1001E800A407003003180130A507003003180130B8
:1001F800A6072E1F0F29FF30A706FF30A806FF30DD
:10020800A9060130A707003003180130A8070030FD
:1002180003180130A907AE012408A7072508031110
:100228000318250A031DA807260803110318260A20
:10023800031DA907A91F3229FF30A706FF30A8060A
:10024800FF30A9060130A707003003180130A807BE
:10025800003003180130A907AE01AE0A2708F200E2
:100268002808F3002908F4003008AA002A08F50035
:100278002E08AB002B08F6000A128A11AE26720867
:10028800A4007308A5007408A6000800CF0056084B
:10029800C9004908F20055080A128A15B0250A1241
:1002A8008A11003A031D6829892903308312031330
:1002B800CB000830CA007630C900C90B6129CA0BC7
:1002C8006129CB0B61290000831203135608C9006A
:1002D8004908F20055080A128A15B0250A128A112F
:1002E800003A031D59294F0884000008031987297B
:1002F8004F08840002300006031987294F0884003C
:100308008001800ADF290330DA29B830F2000B3087
:10031800F300480884000008F400840A0008F50087
:100328000A128A155D270A128A1172087304031DBE
:10033800E7290A128A11F3230A128A114008CC000D
:100348004108CD004208CE004C08F2004D08F300E9
:100358004E08F4009A30F5009930F6003F30F70067
:100368000A128A159F260A128A11031CD2294F08DD
:1003780084000530831300060319E7294F08840019
:10038800063000060319E7294F08840002300006EA
:10039800031DD0290630DA290530DA294F088400F0
:1003A800063083130006031DE7290230C9004F08F1
:1003B8008400490880000030E7000030E600003083
:1003C800E5000030E4004F08840000080319F7290D
:1003D8004F08840000030319F7294F0884000230EE
:1003E8000006031DFC294F080A128A113826080046
:1003F8004F080A128A11B42208002008A600210812
:10040800A7002208A8000310270D280DA900290815
:10041800AA002A08031D172A0030A0000030A100F6
:100428000030A20008002308A6002408A700250819
:10043800A8000310270D280DA9002908AF002F08D0
:10044800031D2D2A0030A0000030A1000030A200BA
:1004580008002F087B3EA6002608AA072208A60047
:100468002608AF002508A6002608AF068030A6009B
:100478002608AF05A117A417FF30A305FF30A40570
:100488000030A5050030AB000030AC000030AD00F6
:100498000730A6002608AE00201C602A2308AB07F8
:1004A800240803110318240A031DAC0725080311A7
:1004B8000318250A031DAD0701300310A20CA10C77
:1004C800A00CFF3E031D612A01300310A30DA40DEB
:1004D800A50DFF3E031D692A0130AE02031D502AF7
:1004E8000930A6002608AE00201C882A2308AB077E
:1004F800240803110318240A031DAC072508031157
:100508000318250A031DAD0701300310A20CA10C26
:10051800A00CFF3E031D892A01300310AD0CAC0C62
:10052800AB0CFF3E031D912A0130AE02031D782A51
:100538002B08F2002C08F3002D08F4002A08A60066
:100548002608F5002F08A7002708F6000A128A11C6
:10055800AE267208A0007308A1007408A200080063
:10056800A4002408840005300006031D082B670832
:10057800031DEB2A6608031DEB2A6508031DEB2AF9
:100588000B306402031DC82A0318EB2A83120313D5
:100598006308F9007908F200F301F30A62080A1205
:1005A8008A1119250A128A11B901B90A0530B3004E
:1005B8000030B400B3300A128A11B8270030E700BF
:1005C8000030E6000030E5000B30E400080083123C
:1005D80003136708031DFC2A6608031DFC2A650827
:1005E800031DFC2A65306402031DFA2A031C080057
:1005F800B3300A128A15F8250630F9008312240848
:10060800840079088000080024088400033000066C
:10061800031D08006708031D3E2B6608031D3E2BBB
:100628006508031D3E2B0B306402031D1B2B0318AA
:100638003E2B831203136308F9007908F200F301D3
:10064800F30A62080A128A1119250A128A11B901D5
:10065800B90A0530B3000030B400B3300A128A1169
:10066800B8270030E7000030E6000030E5000B3026
:10067800E4000800831203136708031D4F2B660864
:10068800031D4F2B6508031D4F2B65306402031DA6
:100698004D2B031C0800B3300A128A15F8250430C4
:1006A800F9008312240884007908800008003308C0
:1006B800B6003408B7003508B8000310370D380DF8
:1006C800B9003908BE003E08031D712B0030B00088
:1006D8000030B1000030B20008003008B600310820
:1006E800B7003208B8000310370D380DB9003908C3
:1006F800BF003F08031D872B0030B0000030B10059
:100708000030B20008000030BB000030BC000030F0
:10071800BD0089303F07B6003608BE023508B6006E
:100728003608BF003208B6003608BF068030B6006B
:100738003608BF05B417FF30B305FF30B4050030E5
:10074800B505B117FF30B005FF30B1050030B2056F
:100758001830B6003608BA0001300310BB0DBC0DC6
:10076800BD0DFF3E031DB12B32083502031DC22B00
:1007780031083402031DC22B30083302031CCF2B6F
:100788003008B3023108031C310FB4023208031CCD
:10079800320AB5023B1401300310B30DB40DB50D88
:1007A800FF3E031DD02B0130BA02031DB02B3B08BE
:1007B800F2003C08F3003D08F4003E08B600360895
:1007C800F5003F08B7003708F6000A128A11AE266E
:1007D8007208B0007308B1007408B2000800003055
:1007E800C5000030C6000030C700C40100300A123E
:1007F8008A15C4270A128A1174088312A100730883
:10080800A0000A128A159C250A128A112008A40041
:100818002108A5002208A6004508A7004608A80048
:100828004708A9000A128A1145200A128A112408C9
:10083800C5002508C6002608C7004508F200460876
:10084800F3004708F4000030F500C830F6004230E5
:10085800F7000A128A159F260A128A11031C3C2CDB
:100868000130C3004308C4070B304402031CFA2BB1
:1008780044080A128A15DE250A128A112008B000D7
:100888002108B1002208B2004508B3004608B400A8
:100898004708B5000A128A115B230A128A11300828
:1008A800C5003108C6003208C7000030B0008030EB
:1008B800B1004430B2000030A000A030A1004030A8
:1008C800A2004508A3004608A4004708A5000A128C
:1008D8008A1101220A128A112008B3002108B400E3
:1008E8002208B5000A128A115B233008C5003108B6
:1008F800C6003208C7004508C0004608C1004708BE
:10090800C2000800F7007708023E8400831300083D
:1009180083120313A000840A0008A100840A0008B7
:10092800A200840A0008A30023082204210420044A
:100938000319080077080E3E84000008A00020086C
:10094800F20077080D3E840000080A128A15B025C7
:100958000A128A11013A031DC22C77080E3E840040
:100968000008A0002008F200F30177080D3E84007B
:1009780000080A128A1119250A128A1177080C3EF2
:10098800840000088312A0002008F200F301770811
:100998000B3E840000080A128A1119250A128A11CE
:1009A8007708073E84000008F200840A0008F30074
:1009B8000A128A156C250A128A1177080C3E8400DF
:1009C8008313000883120313A0002008F200F30128
:1009D800F30A77080B3E840000080A128A111925C9
:1009E8000A128A117708073E84000008F200840A78
:1009F8000008F3000A128A156C257708023E840065
:100A0800013083138002840A0030031C0130800205
:100A1800840A0030031C01308002840A0030031C61
:100A280001308002033084020800F6007608053A97
:100A3800031D2F2D0130F400720A242D0310F40D2C
:100A4800FF3E031D222D7408FF3AF5007508831632
:100A580003138505A22D7608063A031D442D01309F
:100A6800F400720A392D0310F40DFF3E031D372DD3
:100A78007408FF3AF5007508831603138605A22D3E
:100A88007608073A031D592D0130F400720A4E2DDD
:100A98000310F40DFF3E031D4C2D7408FF3AF500BA
:100AA8007508831603138705A22D7608083A031DD7
:100AB8006E2D0130F400720A632D0310F40DFF3E11
:100AC800031D612D7408FF3AF5007508831603139A
:100AD8008805A22D0130F400720A742D0310F40D5C
:100AE800FF3E031D722D7408FF3AF5007508831642
:100AF80003138905A22D0130F400720A852D031015
:100B0800F40DFF3E031D832D7408F500760884005C
:100B180075088313800408000130F400720A962DCA
:100B28000310F40DFF3E031D942D7408FF3AF500E1
:100B38007608840075088313800508007308003A56
:100B48000319902D013A03197F2D902D0800A20159
:100B5800F51FBB2DF209F309F409F509F20A031987
:100B6800F30A0319F40A0319F50AA201A20AF91FE4
:100B7800CC2DF609F709F809F909F60A0319F70A55
:100B88000319F80A0319F90A0130A0002008A2067F
:100B98000030A6000030A5000030A4000030A300FB
:100BA80075087404730472040319212EA101A10AA3
:100BB800F51BEC2D0130A0000310F20DF30DF40D20
:100BC800F50DA00BE02D0130A0002008A107DC2DB9
:100BD8000130A0000310A30DA40DA50DA60DA00BB8
:100BE800EE2D75087902031D032E74087802031D83
:100BF800032E73087702031D032E72087602031C66
:100C0800142E7208F6027308031C730FF702740897
:100C1800031C740FF8027508031C750FF9022314DE
:100C280001300310F50CF40CF30CF20CFF3E031D1D
:100C3800152E0130A102031DEC2D220803192F2EB9
:100C4800A309A409A509A609A30A0319A40A031953
:100C5800A50A0319A60A2608F5002508F4002408A1
:100C6800F3002308F2000800A400240884000230DE
:100C78000006031D5F2E6708031D4F2E6608031D1F
:100C88004F2EEA306502031D4D2E61306402031DAC
:100C98004D2E031C080083120313240884008313B9
:100CA8008001800A0030E7000030E6000030E500EF
:100CB8000030E4000800240884000003031D080035
:100CC8006708031D872E6608031D872E6508031D08
:100CD800872E0B306402031D712E0318872E83168E
:100CE8000313B9010530B3000030B400B3300A1261
:100CF8008A11B8270030E7000030E6000030E50030
:100D08000B30E4000800831203136708031D982EB4
:100D18006608031D982E6508031D982E6530640229
:100D2800031D962E031C0800831203136308F900A1
:100D38007908F200F30162080A128A1119250A12C9
:100D48008A11B3300A128A15F82583122408840000
:100D58008001080075080319B62E7408730472041C
:100D6800031DC92E0030F2000030F3000030F400FB
:100D780008000130F7007708F50701300310F40C7C
:100D8800F30CF20CFF3E031DC22EFE30740503194E
:100D9800E42EBD2E0130F7007708F5070130F20781
:100DA800003003180130F307003003180130F4074E
:100DB80001300310F40CF30CF20CFF3E031DDD2E82
:100DC800FF3074050319F72ECE2E02307502031C6E
:100DD800F92E0130F50201300310F20DF30DF40D78
:100DE800FF3E031DF02EF31FE92E7518012FFF306B
:100DF800F2057F30F305FF30F4050310F50C750894
:100E0800F700F801F90110300310F70DF80DF90D8E
:100E1800FF3E031D082F7708F2047808F3047908C9
:100E2800F404760803190800F41708000530AF0029
:100E38002F08F70062300A128A1170270A128A11E5
:100E48000A128A1560250A128A110A128A154D2576
:100E58000A128A1100308312AA000030A900253036
:100E6800A8008030A7000A128A152C270A128A11B6
:100E78000D3083120313B100AF30B000B530AF00AE
:100E8800AF0B442FB00B442FB10B442F4B2F013025
:100E9800F6008030F7000A128A15FC260A128A1119
:100EA8005E08AF002F08F200F3015D080A128A11EC
:100EB80019250A128A11C2300A128A15F8250A124F
:100EC8008A11A4300A128A15F8250A128A11B33039
:100ED8000A128A15F8250800F8000130F702770A87
:100EE80003190800780A8400831300088312031387
:100EF800A0002008F200F301F30A78088400000833
:100F08000A128A1119250A128A110330831203134F
:100F1800A2008A30A1005530A000A00B912FA10B90
:100F2800912FA20B912F780A840083130008831253
:100F38000313A0002008F200F301780884000008D9
:100F48000A128A1119250A128A110330831203130F
:100F5800A2008A30A1005530A000A00BB12FA10B30
:100F6800B12FA20BB12F712FF80078080A3E840028
:100F7800831300088312A0002008F2007808063EB8
:100F880084000008A1002108F3007808093E8400C5
:100F980000080A128A1119250A128A117808840091
:100FA8000008F200840A0008F3004030F40006301C
:100FB800F5000A128A15362672088312A0007308F3
:100FC800A100A201A3017808023E84002008800045
:100FD800840A21088000840A22088000840A2308E1
:100FE80080000800F200720899000C1EF92F0C12FC
:100FF800831698180800FC2FFF1B0A2883137F18F4
:1010080083170008840A0319FF0A080008308A00B9
:101018000408840A82070034523445345334453472
:1010280054343A3420344F344B340A340034433483
:101038003A342534643463346D340A34003400346B
:101A9A009F0183169F010730F20072089F04080015
:101AAA009F0183169F0183121F088E30F20072086D
:101ABA0083169F04080083120313920112159214CD
:101ACA008B170B1783168C1483128C10080072085C
:101ADA007304031908000130F2020030031CF303F7
:101AEA00F302772D782D00006C2D7E088A007F087E
:101AFA0082007A250A128A158000840A04087D0663
:101B0A0003190034FF0A0319FE0A7E2D0534053431
:101B1A000534043405340134053400340634003401
:101B2A0006340234063403340234063401342008FD
:101B3A00F2002108F300F4018E30A3002308F50017
:101B4A00F6010A128A11AE267208A0007308A100D3
:101B5A007408A2000800F400740884000130F3003D
:101B6A00720AB92D0310F30DFF3E031DB72D73083A
:101B7A00831300050319C32D013008000030080043
:101B8A000A128A111A270A128A1583125C08D200CD
:101B9A005208F200F301F30A5B080A128A111925A6
:101BAA000A128A157A300A128A1517260A128A1513
:101BBA00D72DA7002708A300A401A5012308F20036
:101BCA002408F3002508F4008E30A6002608F50044
:101BDA00F6010A128A11AE267208A0007308A10043
:101BEA007408A2000800F80002307807F7007708A6
:101BFA00840083138001840A8001840A8001840A94
:101C0A00800178080E3E84000008F7007708F20089
:101C1A00F301F30A78080D3E840000080A128A11BB
:101C2A00192508008312D1005108D0005008C800B5
:101C3A006E300A128A114A210A128A15C2300A1211
:101C4A008A1186240A128A15B3300A128A11862446
:101C5A000A128A158312031351080A128A15792661
:101C6A000800F601F701721C402E7408F6070318E3
:101C7A00F70A7508F70701300310F40DF50DFF3E5A
:101C8A00031D412E01300310F30CF20CFF3E031D1D
:101C9A00482E72087304031D382E7708F30076085D
:101CAA00F20008007208F4007308F5007508831240
:101CBA000313FF00740884000A128A1500200A120E
:101CCA008A15003A0319702E0130F4070318F50A31
:101CDA000030F5075B2E72087402F2007308031CC9
:101CEA00730A7502F3000800F400740884000008FF
:101CFA00F200840A0008F30069087306031D872EA0
:101D0A006808720603190800740884000008E800CD
:101D1A00840A0008E9000130E407003003180130A2
:101D2A00E507003003180130E607003003180130D8
:101D3A00E7070800F41FAE2E7208003CF200730891
:101D4A00031C730F003CF3007408031C740F803CDF
:101D5A00F400F71FBD2E7508003CF5007608031C39
:101D6A00760F003CF6007708031C770F803CF700DB
:101D7A008030F4068030F70677087402031D0800E5
:101D8A0076087302031D080075087202080083169C
:101D9A0003138C1CED2E83128C1CED2E0130EA07E6
:101DAA000318EB0A0030EB070130FA070318FB0AA5
:101DBA000030FB0775307B02313003197A02031CAD
:101DCA00EA2E0130FA000030FB00DD3091008C1061
:101DDA00133083126B02883003196A02031C6400F1
:101DEA0071088A00700E8300FE0E7E0E09007608C6
:101DFA00F2007708F3000A128A1557260A128A1582
:101E0A007308A1007208A000A2012208F800F901D3
:101E1A0079082102031D132F78082002031C0800E9
:101E2A0022087607840077080318770AFF000A1247
:101E3A008A1500200A128A150A128A11F6270A122E
:101E4A008A150130F80078088312A2070A2F803019
:101E5A008316870024309800903083129800270850
:101E6A00AB002808AC002908AD002A08AE000430EF
:101E7A000310AB0DAC0DAD0DAE0DFF3E031D3D2F96
:101E8A002E08F5002D08F4002C08F3002B08F200A8
:101E9A000130F9003130F8002D30F7000030F6003B
:101EAA000A128A11AB257208FF3E831699000800B0
:101EBA007208730403198A2FF701F70AF31B712FAB
:101ECA0001300310F20DF30DFF3E031D662F0130A2
:101EDA00F6007608F707632F73087502031D772F3C
:101EEA0072087402031C7F2F7208F4027308031C21
:101EFA00F503F50201300310F30CF20CFF3E031D4B
:101F0A00802F0130F702031D712F7508F300740842
:101F1A00F200080006340434063405340034003470
:101F2A00003400340034003401344B3400340934B2
:101F3A0002340734003409340134003400340034E4
:101F4A0000340034003401345A3400340734033482
:101F5A0008340034073402340034003400340034C6
:101F6A000034003401345A34003408340634083456
:101F7A000534083407340534023405340334F700D1
:101F8A000A128A1555250A128A150730F6007D307D
:101F9A00F500F50BCE2FF60BCE2F7708F5000230A1
:101FAA000310F50DFF3E031DD52F0310750DF60026
:101FBA007608831203139F041F140730F6007D303E
:101FCA00F500F50BE62FF60BE62F831203131F1508
:101FDA001F19ED2F83169F010730F50075089F041E
:101FEA00F62FF72F0000831203131E08F40083163E
:061FFA001E08F3000800C0
:02400E003E3D35
:00000001FF
