:060000000A128A110C280F
:10000800FE00030EF0000A08F1000A128A11052CFE
:100018000A128A110F288313AF30FD000430FE0046
:10002800DF30FF00A03084000A128A11D2240A129D
:100038008A115730FD000330FE006D30FF0020307C
:1000480084000A128A11D2248316AF01B001B101CB
:10005800B201B301B401B501B601B701B801B901E4
:10006800BA01BB01BC018312E901EA01EB01EC0111
:10007800ED01EE01EF01FA01FB0183010A128A1179
:1000880045280A128A119F220A128A1183122D0802
:100098008316BD003D08F200F301F30A83122C0811
:1000A8000A128A1112220A128A1190308312C2008F
:1000B8000130C3002C30C9000130CA0042300A1296
:1000C8008A1131230A128A119030B3000130B4002A
:1000D8005E30BA000130BB0033300A128A11312376
:1000E8000A128A1127088316BD003D08F200831200
:1000F80026080A128A11BA240A128A11013A031D23
:10010800AC28C801C80A9030C2000130C300423090
:100118000A128A1131230A128A1142300A128A11EC
:10012800F5200A128A1183120313B901B90A903013
:10013800B3000130B40033300A128A1131230A1295
:100148008A1133300A128A11F5200A128A11EC2812
:1001580025088316BD003D08F200831224080A1200
:100168008A11BA240A128A11013A031DE028C8012B
:100178009030C2000130C30042300A128A11312384
:100188000A128A1142300A128A11F5200A128A11BB
:1001980083120313B9019030B3000130B400333037
:1001A8000A128A1131230A128A1133300A128A116B
:1001B800F5200A128A11EC2842300A128A119C246E
:1001C8000A128A1133300A128A119C240A128A11DF
:1001D800831203136B086C0403197628EB01EC01F6
:1001E8007628F7007708023E84000008D700840AC2
:1001F8000008D800840A0008D900840A0008DA0038
:100208005A085904580457040319080077080E3E81
:1002180084000008D7005708F20077080D3E8400D4
:1002280000080A128A11BA240A128A11013A031D17
:100238002E2977080E3E84000008D7005708F200E0
:10024800F30177080D3E840000080A128A11122271
:100258000A128A1177080C3E840000088312D7001E
:100268005708F200F30177080B3E840000080A12D1
:100278008A1112220A128A117708073E84000008A0
:10028800F200840A0008F3000A128A11EE240A1206
:100298008A1177080C3E8400831300088312031325
:1002A800D7005708F200F301F30A77080B3E8400E1
:1002B80000080A128A1112220A128A117708073EC8
:1002C80084000008F200840A0008F3000A128A1168
:1002D800EE247708023E8400013083138002840AEA
:1002E8000030031C01308002840A0030031C0130F6
:1002F8008002840A0030031C01308002033084022B
:100308000800D901F51F9529F209F309F409F5093F
:10031800F20A0319F30A0319F40A0319F50AD901B1
:10032800D90AF91FA629F609F709F809F909F60AF9
:100338000319F70A0319F80A0319F90A0130D70053
:100348005708D9060030DD000030DC000030DB0043
:100358000030DA0075087404730472040319FB2969
:10036800D801D80AF51BC6290130D7000310F20DB1
:10037800F30DF40DF50DD70BBA290130D700570846
:10038800D807B6290130D7000310DA0DDB0DDC0DD4
:10039800DD0DD70BC82975087902031DDD297408FE
:1003A8007802031DDD2973087702031DDD29720811
:1003B8007602031CEE297208F6027308031C730FF9
:1003C800F7027408031C740FF8027508031C750FF4
:1003D800F9025A1401300310F50CF40CF30CF20C6A
:1003E800FF3E031DEF290130D802031DC629590815
:1003F8000319092ADA09DB09DC09DD09DA0A031914
:10040800DB0A0319DC0A0319DD0A5D08F5005C083C
:10041800F4005B08F3005A08F2000800F6007608BA
:10042800053A031D272A0130F400720A1D2A031019
:10043800F40DFF3E031D1B2A7408FF3AF5007508EA
:1004480083168505962A7608063A031D3B2A01304D
:10045800F400720A312A0310F40DFF3E031D2F2AFF
:100468007408FF3AF500750883168605962A7608FB
:10047800073A031D4F2A0130F400720A452A031077
:10048800F40DFF3E031D432A7408FF3AF500750872
:1004980083168705962A7608083A031D632A0130D1
:1004A800F400720A592A0310F40DFF3E031D572A5F
:1004B8007408FF3AF500750883168805962A0130F6
:1004C800F400720A692A0310F40DFF3E031D672A1F
:1004D8007408FF3AF500750883168905962A0130D5
:1004E800F400720A792A0310F40DFF3E031D772ADF
:1004F8007408F500760884007508831380040800E2
:100508000130F400720A8A2A0310F40DFF3E031D1D
:10051800882A7408FF3AF500760884007508831362
:10052800800508007308003A0319842A013A031960
:10053800732A842A08000530E6006608F70055305B
:100548000A128A11E9220A128A110A128A11FC2453
:100558000A128A110A128A1112250A128A11003007
:100568008312E1000030E0002530DF008030DE003B
:100578000A128A11A4230A128A110D308312031356
:10058800E800AF30E700B530E600E60BC92AE70B14
:10059800C92AE80BC92AD02A0130F6008030F700B2
:1005A8000A128A11D5230A128A112F08E600660852
:1005B800F200F3012E080A128A1112220A128A1175
:1005C80042300A128A119C240800F8000130F70210
:1005D800770A03190800780A840083130008831235
:1005E8000313D7005708F200F301F30A78088400D0
:1005F80000080A128A1112220A128A110330831281
:100608000313D9008A30D8005530D700D70B0A2BEE
:10061800D80B0A2BD90B0A2B780A840083130008FD
:1006280083120313D7005708F200F30178088400F7
:1006380000080A128A1112220A128A110330831240
:100648000313D9008A30D8005530D700D70B2A2B8E
:10065800D80B2A2BD90B2A2BEA2AF80078080A3E4D
:1006680084000008D7005708F2007808063E840086
:100678000008D8005808F3007808093E84000008EC
:100688000A128A1112220A128A11780884000008B4
:10069800F200840A0008F3004030F4000630F50048
:1006A8000A128A117B2472088312D7007308D800B3
:1006B800D901DA017808023E840057088000840ACC
:1006C80058088000840A59088000840A5A08800063
:1006D800080006340434063405340534053405347A
:1006E8000434053401340534003406340034063447
:1006F8000234063403340234003400340034003445
:100708000034003401342C34013409340234073401
:100718000034093401340034003400340034003427
:10072800003401342C3401340834063408340534D8
:1007380008340734053402340534033406340134EC
:1007480080308316870024309800903083129800F8
:100758005E08E2005F08E3006008E4006108E50065
:1007680004300310E20DE30DE40DE50DFF3E031D1B
:10077800B52B6508F5006408F4006308F300620807
:10078800F2000130F9003130F8002D30F700003068
:10079800F6000A128A1185217208FF3E8316990015
:1007A80008007608F2007708F3000A128A11592423
:1007B8000A128A117308D8007208D700D90159089B
:1007C800F800F90179085802031DEC2B7808570244
:1007D800031C080059087607840077080318770A6D
:1007E800FF000A128A1135240A128A110A128A1184
:1007F80008250A128A110130F80078088312D907EF
:10080800E32B831603138C1C262C83128C1C262C9A
:100818000130EB070318EC0A0030EC070130ED0754
:100828000318EE0A0030EE0775306E0231300319F6
:100838006D02031C232C0130ED000030EE00DD308A
:1008480091008C10133083126C02883003196B02EC
:10085800031C640071088A00700E8300FE0E7E0E71
:100868000900FF1B3F2C83137F1883170008840A95
:100878000319FF0A080004308A000408840A820762
:100888000034523445345334453454343A342034E3
:100898004F344B340A34003443343A342534643406
:1008A80063346D340A34003400347208F400730879
:1008B800F500750883120313FF00740884000A12F8
:1008C8008A1135240A128A11003A0319722C013050
:1008D800F4070318F50A0030F5075D2C7208740256
:1008E800F2007308031C730A7502F3000800F6018E
:1008F800F701721C852C7408F6070318F70A7508A7
:10090800F70701300310F40DF50DFF3E031D862C8B
:1009180001300310F30CF20CFF3E031D8D2C7208FE
:100928007304031D7D2C7708F3007608F200080095
:10093800F80002307807F700770884008001840AFD
:100948008001840A8001840A800178080E3E8400B0
:100958000008F7007708F200F301F30A78080D3E63
:10096800840000080A128A1112220800F400740890
:1009780084000130F300720AC32C0310F30DFF3E0C
:10098800031DC12C730800050319CC2C0130080085
:10099800003008007E088A007F088200CE240A12F0
:1009A8008A118000840A04087D0603190034FF0AAE
:1009B8000319FE0AD22C0034003400340034003409
:1009C800003401342C34013407340334083400343F
:1009D8000734023472087304031908000130F20264
:1009E8000030031CF303F302F92CFA2C0000EE2C60
:1009F800831203139201121592148B170B17831687
:100A08008C1483128C100800F200720899000C1ED6
:100A18000B2D0C128316981808000E2D9F018316B3
:0C0A28009F010730F20072089F040800D4
:02400E003E3D35
:00000001FF
