:060000000A128A110C280F
:10000800FE00030EF0000A08F1000A128A150C2AF5
:100018000A128A110F288313C030FD000930FE0030
:100028004630FF00A03084000A128A15A9200A125F
:100038008A116530FD000830FE00F130FF004F30B6
:1000480084000A128A15A9200A128A110A128A1132
:10005800FE270A128A11FA000A128A11FF27FB00EA
:100068008316C001C101C201C301C401C501C60193
:10007800C701C801C9018312E501E601E701E801EA
:10008800E901EA01EB01EC01ED01EE01EF01830169
:100098000A128A15B628F9007908053E84008313E8
:1000A8000008F7007708F2007908043E8400000889
:1000B8000A128A15C9200A128A11003A031D7528E6
:1000C800790A84000008F7007708F20079088400AC
:1000D80000080A128A15C9200A128A11003A03195F
:1000E8001B297908053E84000008F7007708F2000C
:1000F800F3017908043E840000080A128A15432691
:100108000A128A117908073E84000008F700770868
:10011800F200F3017908063E840000080A128A15E5
:1001280043260A128A111030F700F70B99280000AD
:10013800790A840083130008F7007708F200F301B6
:10014800F30A7908840000080A128A1543260A125D
:100158008A117908033E84000008F7007708F20046
:10016800F301F30A7908023E840000080A128A158E
:1001780043260A128A110830F700F70BC128790ABA
:10018800840083130008F7007708F200F301790868
:10019800840000080A128A1543260A128A11D428F4
:1001A800D52800007908073E840083130008F7006B
:1001B8007708F200F301F30A7908063E8400000884
:1001C8000A128A1543260A128A11A630F700F70B7D
:1001D800EB2800007908033E840083130008F70029
:1001E8007708F200F3017908023E840000080A1239
:1001F8008A1543260A128A11012902290000790862
:10020800053E840083130008F7007708F200F30125
:10021800F30A7908043E840000080A128A15432666
:100228000A128A110830F700F70B1829BF29790834
:10023800053E84000008F7007708F200F30179080A
:10024800043E840000080A128A1543260A128A11FD
:100258007908073E84000008F7007708F200F301E8
:100268007908063E840000080A128A1543260A12F5
:100278008A111030F700F70B3F290000790A840033
:1002880083130008F7007708F200F301F30A7908EE
:10029800840000080A128A1543260A128A1179086E
:1002A800033E84000008F7007708F200F301F30A20
:1002B8007908023E840000080A128A1543260A12A9
:1002C8008A110830F700F70B67297908033E840084
:1002D80083130008F7007708F200F3017908023E5B
:1002E800840000080A128A1543260A128A117C29FA
:1002F8007D2900007908053E840083130008F70073
:100308007708F200F301F30A7908043E8400000834
:100318000A128A1543260A128A110830F700F70BC9
:100328009329790A840083130008F7007708F200FC
:10033800F3017908840000080A128A1543260A1274
:100348008A11A629A72900007908073E840083138B
:100358000008F7007708F200F301F30A7908063E6F
:10036800840000080A128A1543260A128A110830E6
:10037800F700F70BBD297908053E840083130008B0
:10038800F7007708F200F3017908043E84000008BA
:100398000A128A1543260A128A117908073E840030
:1003A8000008F7007708F200F3017908063E840098
:1003B80000080A128A1543260A128A116230F800C8
:1003C8006530F700F70BE629F80BE629EB2908005A
:1003D8008312C200383084000A30FF008313800182
:1003E800840AFF0BF229702B5E08B4003408F2006F
:1003F800F301F30A5D080A128A1543260A128A11C4
:1004080083125C08B4003408F200F3015B080A1296
:100418008A1543260A128A117B088312B40034080D
:10042800F200F3017A080A128A15432608005E08CA
:10043800B4003408F200F3015D080A128A15432655
:100448000A128A1183125C08B4003408F200F3011E
:100458005B080A128A1543260A128A117B0883123E
:10046800B4003408F200F3017A080A128A15432608
:100478000A128A11831242080A128A1503240A12E0
:100488008A11B4003408C30050304302031C512AB7
:100498000230B4003408EB0008000430B40034081B
:1004A800EB000030E8000030E7000030E6000030E4
:1004B800E50008005E08B4003408F200F3015D08A6
:1004C8000A128A1543260A128A117B088312B4007D
:1004D8003408F200F3017A080A128A1543260A1230
:1004E8008A1183125C08B4003408F200F301F30A9D
:1004F8005B080A128A1543260A128A110030F50091
:100508000030F4002730F3001030F200831268083E
:10051800F9006708F8006608F7006508F6000A128F
:100528008A154E240A128A11750874047304720419
:10053800031DDC2A42080A128A1503240A128A11AA
:10054800B4003408C3001630B4003408A6004308C9
:10055800B500B6013508A7003608A80038300A12D9
:100568008A1165260A128A113830F6000030F70021
:100578000A128A156C220A128A114308B400B501BE
:100588003508B7006C083402B600031CB7033708F7
:10059800803AFF0080307F02031DD42A05303602DE
:1005A800031CDC2A831203134308B4003408EC004C
:1005B800831203136808031D072B6708031D072B05
:1005C8006608031D072B0B306502031DEB2A031871
:1005D800072BB8300A128A153C220A128A11B03049
:1005E8000A128A153C220A128A11A8300A128A15A0
:1005F8003C2200308312E8000030E7000030E600BB
:100608000B30E5000800303083120313650675309F
:100618000319660667046804031D232BB8300A1201
:100628008A15DE210A128A11B0300A128A15DE21D3
:100638000A128A11A8300A128A15DE2108008312CC
:1006480003136808031D362B01306702031D342B82
:1006580038306602031D342B80306502031D342BAD
:10066800031C0800023083120313B4003408EB00A3
:10067800B8300A128A114F200A128A11B0300A12B1
:100688008A114F200A128A11A8300A128A114F20A3
:1006980008005E08B4003408F200F3015D080A128D
:1006A8008A1543260A128A1183125C08B40034089A
:1006B800F200F3015B080A128A1543260A128A110E
:1006C8007B088312B4003408F200F301F30A7A08B5
:1006D8000A128A15432608006B08003A0319F829FC
:1006E800013A03191B2A033A03194D2B063A031939
:1006F8005E2A7E2B0800AA002A0A840083130008B9
:10070800A0002008F200F3012A08840000080A1259
:100718008A1543260A128A11023083120313A00095
:10072800A00B942B0000831203132A0A840083135E
:100738000008A0002008F200F301F30A2A08840048
:1007480000080A128A1543260A128A1107308312F2
:100758000313A000A00BAE2B0000831203132A0A78
:10076800840083130008A0002008F200F3012A087F
:10077800840000080A128A1543260A128A11831275
:100788002A08033E84000008A0002008F2002A0876
:10079800023E840000080A128A15C9200A128A112A
:1007A800003A031DEC2B831203132A08033E84002E
:1007B8000008A0002008F2002A08023E8400000871
:1007C8000A128A15C9200A128A11003A0319D72B6E
:1007D80077088400000883120313A000840A000825
:1007E800A1002008A6002108A700A801A9018312DA
:1007F80003132A08033E840083130008A00020087E
:10080800F2002A08023E840000080A128A15C9204C
:100818000A128A11003A0319442C77088400000848
:1008280083120313A000840A0008A1002008A20074
:100838002108A300A401A5012608A2022708031C79
:10084800270F272C282CA3022808031C280F2D2C3F
:100858002E2CA4022908031C290F332C342CA502A2
:100868002508031D442C2408031D442C01302302B1
:10087800031D422C2D302202031D422C031CFB2B8E
:10088800770884008313000883120313A000840AE6
:100898000008A1002008A2002108A300A401A501C6
:1008A8002608A2022708031C270F5B2C5C2CA30236
:1008B8002808031C280F612C622CA4022908031C99
:1008C800290F672C682CA5022508A9002408A80070
:1008D8002308A7002208A6002908031D7F2C280842
:1008E800031D7F2C2708031D7F2C97302602031D2C
:1008F8007D2C031C892C003083120313A9000030BF
:10090800A8000030A7000030A600831203132608B1
:1009180008002408AA002508AB002608AC0003102C
:100928002B0D2C0DAD002D08B0002708AA002808B3
:10093800AB002908AC0003102B0D2C0DAD002D08C1
:10094800AF0030080319B42C2F0830020318BB2C51
:100958002F08AA003008AA0219302A02031CBB2C4F
:100968002708A4002808A5002908A60008002F08C1
:100978000319080030082F020318CA2C3008AA00EF
:100988002F08AA0219302A02031808000630AA0004
:100998002A08AE00A61BAE17A91B2E17A517FF30F5
:1009A800A405FF30A5050030A605A817FF30A70548
:1009B800FF30A8050030A9052F08300203180A2DBA
:1009C80001300310A70DA80DA90DFF3E031DE52C4E
:1009D8000130AF022F0830060319052D0130AE0291
:1009E8002E0807390319052DE42C01300310A60C35
:1009F800A50CA40CFF3E031DFA2C0130AA002A08FE
:100A0800B00730082F060319332DF92C30082F02B0
:100A18000318332D01300310A40DA50DA60DFF3EBC
:100A2800031D0F2D0130B0022F08300603192F2D9A
:100A38000130AE022E08073903192F2D0E2D013073
:100A48000310A90CA80CA70CFF3E031D242D013090
:100A5800AA002A08AF0730082F06031D232DAE1F52
:100A6800452DFF30A406FF30A506FF30A60601304D
:100A7800A407003003180130A5070030031801301F
:100A8800A6072E1F572DFF30A706FF30A806FF30F8
:100A9800A9060130A707003003180130A807003065
:100AA80003180130A907AE012408A7072508031178
:100AB8000318250A031DA807260803110318260A88
:100AC800031DA907A91F7A2DFF30A706FF30A80626
:100AD800FF30A9060130A707003003180130A80726
:100AE800003003180130A907AE01AE0A2708F2004A
:100AF8002808F3002908F4003008AA002A08F5009D
:100B08002E08AB002B08F6000A128A154A2572082F
:100B1800A4007308A5007408A6000800CD005608B4
:100B2800C9004908F20055080A128A15C9200A1294
:100B38008A11003A0319EA2D831203135608C900D3
:100B48004908F20055080A128A15C9200A128A11A2
:100B5800003A031DA02D831203134D0884000008DA
:100B68000319D22D4D088400023000060319D22D36
:100B78004D0884008001800A0030E8000030E7005A
:100B88000030E6000030E5001F30F6008030F70046
:100B98000A128A156C220A128A114A2E0330C900D9
:100BA8004D088400490880000030E8000030E70064
:100BB8000030E6000030E5002630F6008030F7000F
:100BC8000A128A156C220A128A114A2EB830831228
:100BD8000313A0000B30A100480884000008A200FD
:100BE800840A0008A3000A128A15CD220A128A1163
:100BF80020082104031D4A2E0A128A15D5260A1236
:100C08008A114008CA004108CB004208CC004A08B3
:100C1800F2004B08F3004C08F400CD30F500CC305E
:100C2800F6003E30F7000A128A15B1210A128A111D
:100C3800031C352E4D088400053083130006031964
:100C48004A2E4D0884000630000603194A2E4D0826
:100C5800840002300006031D332E06303D2E053079
:100C68003D2E4D088400063083130006031D4A2ECE
:100C78000230C9004D088400490880000030E800AF
:100C88000030E7000030E6000030E5004D08840041
:100C98008313000803195B2E4D0884000003031911
:100CA8005B2E4D08840002300006031D602E4D089F
:100CB8000A128A159A2408004D080A128A15EB248C
:100CC8000800B1002730A9002908AC000130A607A8
:100CD800FF30260784000A128A150A200A128A1190
:100CE800A9002908B200320803192C2F2530320632
:100CF80003198A2E3208A9003108840029088313B1
:100D080080000130A9002908B1076A2EAD01013021
:100D1800A607FF30260784000A128A150A200A123D
:100D28008A11B200003A03192C2F643A0319A02E35
:100D38000D3A0319A02E6A2E2C088400831300088C
:100D4800AF00840A0008B0000230A9002908AC07E7
:100D5800B01FB72E0330A9002908AD04AF09B009A8
:100D6800AF0A0319B00AB201B20A3208A90029076A
:100D7800013E84000A128A150A200A128A11AA0062
:100D88000A128A150A200A128A11AB002B083002AF
:100D9800031DD02E2A082F02031CDA2E0130A900C9
:100DA8002908B20705303206031DB92E2D0803396C
:100DB8000319E92E2D30A90031088400290883136E
:100DC80080000130A9002908B1073208A9002908C4
:100DD800AE00FF30A9002908AE072E0A03196A2EB3
:100DE8000A30A0000030A1002E08A9002907013E02
:100DF80084000A128A150A200A128A11F2000A12BD
:100E08008A150A200A128A11F3003008F5002F0803
:100E1800F4000A128A15FF220A128A117308A30025
:100E28007208A2000A128A15CD220A128A11200815
:100E3800303EAA002A08B2003208A900310884000E
:100E48002908831380000130A9002908B107ED2E75
:100E5800310884008313800108002008A6002108B7
:100E6800A7002208A8000310270D280DA9002908AB
:100E7800AA002A08031D472F0030A0000030A10057
:100E88000030A20008002308A6002408A7002508AF
:100E9800A8000310270D280DA9002908AF002F0866
:100EA800031D5D2F0030A0000030A1000030A2001B
:100EB80008002F087B3EA6002608AA072208A600DD
:100EC8002608AF002508A6002608AF068030A60031
:100ED8002608AF05A117A417FF30A305FF30A40506
:100EE8000030A5050030AB000030AC000030AD008C
:100EF8000730A6002608AE00201C902F2308AB0759
:100F0800240803110318240A031DAC07250803113C
:100F18000318250A031DAD0701300310A20CA10C0C
:100F2800A00CFF3E031D912F01300310A30DA40D4B
:100F3800A50DFF3E031D992F0130AE02031D802F22
:100F48000930A6002608AE00201CB82F2308AB07DE
:100F5800240803110318240A031DAC0725080311EC
:100F68000318250A031DAD0701300310A20CA10CBC
:100F7800A00CFF3E031DB92F01300310AD0CAC0CC3
:100F8800AB0CFF3E031DC12F0130AE02031DA82F7D
:100F98002B08F2002C08F3002D08F4002A08A600FC
:100FA8002608F5002F08A7002708F6000A128A1558
:100FB8004A257208A0007308A1007408A20008005E
:100FC800A7002708A300A401A5012308F20024080C
:100FD800F3002508F4008E30A6002608F500F60177
:100FE8000A128A154A257208A0007308A10074081D
:100FF800A200080006340234FF1B0A2883137F1856
:1010080083170008840A0319FF0A080008308A00B9
:101018000408840A82070034013400340A34003496
:1010280064340034E83403341034273452344534FB
:101038005334453454343A3420344F344B340A341E
:10104800003443343A342534643463346D340A3418
:101058000034003443344C344F34533445340A3468
:0E10680000344F34503445344E340A340034D2
:1010F8009F0183169F010730F20072089F040800C1
:10110800F200720899000C1E87280C128316981892
:1011180008008A289F0183169F0183121F088E30BA
:10112800F200720883169F040800831203139201C9
:10113800121592148B170B1783168C1483128C10AC
:1011480008007E088A007F088200A5200A128A15F6
:101158008000840A04087D0603190034FF0A031975
:10116800FE0AA9280A128A1577230A128A156D30F1
:101178000A128A1588210A128A15831269086A04D4
:101188000319BB28E901EA01BB28F40074088400AC
:101198000130F300720AD2280310F30DFF3E031D3D
:1011A800D028730800050319DB2801300800003037
:1011B80008002008F2002108F300F4018E30A30093
:1011C8002308F500F6010A128A154A257208A000BC
:1011D8007308A1007408A200080006340434063419
:1011E8000534053405340534043405340134053434
:1011F800003406340034063403340534023405342C
:10120800033406340134F40074088400831300089E
:10121800F200840A0008F300720873040319080036
:101228007408840001308312E50700300318013088
:10123800E607003003180130E707003003180130D3
:10124800E8070800831203136F08031933296F0393
:10125800031933290330F2007208EB00080002304A
:101268006B06031908006F03031D3C29EB010800F6
:101278006B030319080004306B0603190800EB011F
:10128800EB0A0800073404340734053407340634FD
:10129800073407340734013407340034093402347E
:1012A8000934013408340134083400340734033471
:1012B8000734023408340434083405340834063456
:1012C800083407347208F4007308F50075088312AF
:1012D8000313FF00740884000A128A1500200A12FA
:1012E8008A15003A03197F290130F4070318F50A13
:1012F8000030F5076A2972087402F2007308031CAB
:10130800730A7502F30008008316CA0004308312BA
:101318006B0603199E296B0303199E2983164A0835
:101328008312CE004E08C8006F300A128A11922527
:101338000A128A150A128A1526210A128A15831694
:101348004A080A128A11EC210A128A158316031315
:101358004A080A128A1507210800F41FC0297208D2
:10136800003CF2007308031C730F003CF300740880
:10137800031C740F803CF400F71FCF297508003C4C
:10138800F5007608031C760F003CF6007708031C6E
:10139800770F803CF7008030F4068030F706770836
:1013A8007402031D080076087302031D08007508FF
:1013B8007202080083120313A10021080A128A117D
:1013C8004F200A128A1583120313210A84008313FB
:1013D8000008A0002008F200F301F30A21088400A5
:1013E80000080A128A1543260A128A158312210850
:1013F800053E84000008A0002008F200F301F30A6B
:101408002108043E840000080A128A1543260800B1
:10141800831603138C1C2D2A83128C1C2D2A013051
:10142800E9070318EA0A0030EA070130ED07031854
:10143800EE0A0030EE0775306E02313003196D0286
:10144800031C2A2A0130ED000030EE00DD30910047
:101458008C10133083126A02883003196902031C46
:10146800640071088A00700E8300FE0E7E0E09006B
:1014780083120313A10021080A128A114F200A12AD
:101488008A15831203132108033E8400831300087E
:10149800A0002008F200F301F30A2108023E8400AC
:1014A80000080A128A1543260A128A15831221088F
:1014B800073E84000008A0002008F200F301F30AA8
:1014C8002108063E840000080A128A1543260800EF
:1014D8007608F2007708F3000A128A1566210A12C4
:1014E8008A157308A1007208A000A2012208F8005A
:1014F800F90179082102031D832A78082002031CB8
:10150800080022087607840077080318770AFF0086
:101518000A128A1500200A128A150A128A158420CE
:101528000A128A150130F80078088312A2077A2A6D
:1015380080308316870024309800903083129800FA
:101548002708AB002808AC002908AD002A08AE001F
:1015580004300310AB0DAC0DAD0DAE0DFF3E031DF9
:10156800AD2A2E08F5002D08F4002C08F3002B08EE
:10157800F2000130F9003130F8002D30F70000306A
:10158800F6000A128A15B6257208FF3E83169900DE
:101598000800200821040319FA2AA501A50AA11B9D
:1015A800E12A01300310A00DA10DFF3E031DD62A2C
:1015B8000130A4002408A507D32A21082302031D0B
:1015C800E72A20082202031CEF2A2008A202210889
:1015D800031CA303A30201300310A10CA00CFF3EBF
:1015E800031DF02A0130A502031DE12A2308A100EA
:1015F8002208A0000800F801F90172087304031911
:10160800362BF701F70AF31B152B01300310F20DE7
:10161800F30DFF3E031D0A2B0130F6007608F7078D
:10162800072B01300310F80DF90DFF3E031D162B93
:1016380073087502031D222B72087402031C2B2BDE
:101648007208F4027308031CF503F50278140130DC
:101658000310F30CF20CFF3E031D2C2B0130F70294
:10166800031D152B7908F3007808F2000800F7002D
:101678000A128A158E200A128A150730F6007D3064
:10168800F500F50B452BF60B452B7708F5000230D6
:101698000310F50DFF3E031D4C2B0310750DF600CE
:1016A8007608831203139F041F140730F6007D3059
:1016B800F500F50B5D2BF60B5D2B831203131F153D
:1016C8001F19642B83169F010730F50075089F04C6
:1016D8006D2B6E2B0000831203131E08F400831673
:1016E8001E08F30008000530AF002F08F70063302C
:1016F8000A128A15BB230A128A150A128A1599201A
:101708000A128A150A128A157C200A128A150030D4
:101718008312AA000030A9002530A8008030A70055
:101728000A128A159C220A128A150D308312031395
:10173800B100AF30B000B530AF00AF0BA12BB00B8C
:10174800A12BB10BA12BA82B0B30F6008030F70092
:101758000A128A156C220A128A157B08AF002F0814
:10176800F200F3017A080A128A1543260800F800E5
:101778000130F702770A03190800780A84008313F6
:10178800000883120313A0002008F200F301F30AF3
:101798007808840000080A128A1543260A128A1556
:1017A800033083120313A2008A30A1005530A00031
:1017B800A00BDC2BA10BDC2BA20BDC2B780A840002
:1017C8008313000883120313A0002008F200F3011A
:1017D8007808840000080A128A1543260A128A1516
:1017E800033083120313A2008A30A1005530A000F1
:1017F800A00BFC2BA10BFC2BA20BFC2BBC2BAE00D3
:10180800B201B301B101B1012E08AB002B08F700FA
:101818005F300A128A117F230A128A15AC00AD01C3
:1018280003102C0DAF002D0DB000003030028D30AC
:1018380003192F02031C222C2F0808002F08B207B7
:101848000318B30A3008B3070130AB002B08B107FF
:101858000B303102031C082C3108AB00AC012B08FB
:10186800F2002C08F3003308F5003208F4000A12DD
:101878008A15FF220A128A157308B3007208B2008B
:1018880032083304031D4C2C9630B2000030B300EC
:101898003208080075087404730472040319912C43
:1018A800A101A10AF51B662C0130A0000310F20D5E
:1018B800F30DF40DF50DA00B5A2C0130A0002008F3
:1018C800A107562C75087902031D742C7408780238
:1018D800031D742C73087702031D742C720876029A
:1018E800031C842C7208F6027308031C730FF7029A
:1018F8007408031C740FF8027508031C750FF902AD
:1019080001300310F50CF40CF30CF20CFF3E031D30
:10191800852C0130A102031D662C7908F500780892
:10192800F4007708F3007608F2000800F800780859
:10193800840002300006031DC12C6808031DB12C69
:101948006708031DB12CEA306602031DAF2C613015
:101958006502031DAF2C031C08007808840083135C
:101968008001800A003083120313E8000030E7008A
:101978000030E6000030E500080078088400000325
:10198800031D080068086704660465040319080055
:101998006808031DDC2C6708031DDC2C4E3066022A
:1019A800031DDA2C21306502031DDA2C031C080004
:1019B800831203136408F7007708F200F301630841
:1019C8000A128A1543267808840080010800F80066
:1019D8007808840005300006031D1B2D680867047D
:1019E80066046504031D032D6408F7007708F200F8
:1019F800F301F30A63080A128A15432608006808E7
:101A0800031D132D6708031D132D4E306602031D99
:101A1800112D21306502031D112D031C080006300D
:101A2800F700780884007708831380000800780896
:101A3800840003300006031D080068086704660474
:101A48006504031D322D6408F7007708F200F301DE
:101A5800F30A63080A128A15432608006808031D5A
:101A6800422D6708031D422D4E306602031D402D8E
:101A780021306502031D402D031C08000430F700C7
:101A88007808840077088313800008007508031914
:101A9800522D740873047204031D652D0030F20082
:101AA8000030F3000030F40008000130F700770838
:101AB800F50701300310F40CF30CF20CFF3E031D84
:101AC8005E2DFE3074050319802D592D0130F70065
:101AD8007708F5070130F207003003180130F307E3
:101AE800003003180130F40701300310F40CF30C34
:101AF800F20CFF3E031D792DFF3074050319932D59
:101B08006A2D02307502031C952D0130F502013053
:101B18000310F20DF30DF40DFF3E031D8C2DF31F82
:101B2800852D75189D2DFF30F2057F30F305FF30A8
:101B3800F4050310F50C7508F700F801F9011030E9
:101B48000310F70DF80DF90DFF3E031DA42D7708BE
:101B5800F2047808F3047908F404760803190800F5
:101B6800F4170800A201F51FC62DF209F309F409BC
:101B7800F509F20A0319F30A0319F40A0319F50A15
:101B8800A201A20AF91FD72DF609F709F809F909E0
:101B9800F60A0319F70A0319F80A0319F90A0130B2
:101BA800A0002008A2060030A6000030A5000030E2
:101BB800A4000030A30075087404730472040319A8
:101BC8002C2EA101A10AF51BF72D0130A00003104E
:101BD800F20DF30DF40DF50DA00BEB2D0130A00067
:101BE8002008A107E72D0130A0000310A30DA40DC4
:101BF800A50DA60DA00BF92D75087902031D0E2E53
:101C080074087802031D0E2E73087702031D0E2E2A
:101C180072087602031C1F2E7208F6027308031C52
:101C2800730FF7027408031C740FF8027508031C7D
:101C3800750FF902231401300310F50CF40CF30CA2
:101C4800F20CFF3E031D202E0130A102031DF72DCB
:101C5800220803193A2EA309A409A509A609A30A6B
:101C68000319A40A0319A50A0319A60A2608F500E8
:101C78002508F4002408F3002308F2000800F60001
:101C88007608053A031D592E0130F400720A4E2ECB
:101C98000310F40DFF3E031D4C2E7408FF3AF500A7
:101CA8007508831603138505CC2E7608063A031D9E
:101CB8006E2E0130F400720A632E0310F40DFF3EFD
:101CC800031D612E7408FF3AF50075088316031387
:101CD8008605CC2E7608073A031D832E0130F400C2
:101CE800720A782E0310F40DFF3E031D762E740839
:101CF800FF3AF5007508831603138705CC2E76087E
:101D0800083A031D982E0130F400720A8D2E031034
:101D1800F40DFF3E031D8B2E7408FF3AF50075087D
:101D2800831603138805CC2E0130F400720A9E2E08
:101D38000310F40DFF3E031D9C2E7408FF3AF500B6
:101D48007508831603138905CC2E0130F400720A36
:101D5800AF2E0310F40DFF3E031DAD2E7408F500E1
:101D68007608840075088313800408000130F400A5
:101D7800720AC02E0310F40DFF3E031DBE2E740818
:101D8800FF3AF5007608840075088313800508007B
:101D98007308003A0319BA2E013A0319A92EBA2E6C
:101DA80008000030C5000030C6000030C700C4017C
:101DB80000300A128A153B230A128A157408831206
:101DC800A1007308A0000A128A15DD200A128A15DC
:101DD8002008A4002108A5002208A6004508A7009D
:101DE8004608A8004708A9000A128A118D240A1279
:101DF8008A152408C5002508C6002608C700450816
:101E0800F2004608F3004708F4000030F500C83037
:101E1800F6004230F7000A128A15B1210A128A1513
:101E2800031C1E2F0130C3004308C4070B304402B3
:101E3800031CDC2E44080A128A11E4270A128A15A8
:101E48002008B0002108B1002208B2004508B300FC
:101E58004608B4004708B5000A128A1568270A120E
:101E68008A153008C5003108C6003208C70000309E
:101E7800B0008030B1004430B2000030A000A03083
:101E8800A1004030A2004508A3004608A400470866
:101E9800A5000A128A1131270A128A152008B300F0
:101EA8002108B4002208B5000A128A1568273008EC
:101EB800C5003108C6003208C7004508C0004608FA
:101EC800C1004708C20008003308B6003408B7004C
:101ED8003508B8000310370D380DB9003908BE00B1
:101EE8003E08031D7E2F0030B0000030B1000030E6
:101EF800B20008003008B6003108B7003208B80050
:101F08000310370D380DB9003908BF003F08031D0D
:101F1800942F0030B0000030B1000030B20008004B
:101F28000030BB000030BC000030BD0089303F07E6
:101F3800B6003608BE023508B6003608BF003208BB
:101F4800B6003608BF068030B6003608BF05B4179D
:101F5800FF30B305FF30B4050030B505B117FF30C9
:101F6800B005FF30B1050030B2051830B6003608AC
:101F7800BA0001300310BB0DBC0DBD0DFF3E031DA3
:101F8800BE2F32083502031DCF2F31083402031D3E
:101F9800CF2F30083302031CDC2F3008B30231087E
:101FA800031C310FB4023208031C320AB5023B1479
:101FB80001300310B30DB40DB50DFF3E031DDD2F29
:101FC8000130BA02031DBD2F3B08F2003C08F300A4
:101FD8003D08F4003E08B6003608F5003F08B70093
:101FE8003708F6000A128A154A257208B0007308E5
:081FF800B1007408B2000800FA
:02400E003E3D35
:00000001FF
