:100000000A128A110C280234FE00030EF0000A08BE
:10001000F1000A128A150E2A0A128A110F28831378
:10002000D130FD000A30FE006F30FF00A0308400A8
:100030000A128A15AE200A128A116230FD000830B9
:10004000FE009C30FF00543084000A128A15AE2056
:100050000A128A110A128A110320FB008316D101A9
:10006000D201D301D401D501D601D701D801D901DC
:10007000DA018312E201E301E401E501E601E701AF
:10008000E801E901EA01EB01EC01ED01FA0183016C
:100090000A128A11FA2BC000353084000A30FF00A2
:1000A00083138001840AFF0B5028DE295F08B40007
:1000B0003408F200F301F30A5E080A128A15482692
:1000C0000A128A1183125D08B4003408F200F301A9
:1000D0005C080A128A15482608005F08B400340834
:1000E000F200F3015E080A128A1548260A128A11E4
:1000F00083125D08B4003408F200F3015C080A12B0
:100100008A1548260A128A11831240080A128A1593
:100110005A240A128A11B4003408BF0050303F023A
:10012000031C982802308312B4003408EA00080047
:100130000430B4003408EA000030E5000030E40088
:100140000030E3000030E20008005F08B40034082B
:10015000F200F3015E080A128A1548260A128A1173
:1001600083125D08B4003408F200F3015C080A123F
:100170008A1548260A128A110030F5000030F40072
:100180002730F3001030F20083126508F90064088C
:10019000F8006308F7006208F6000A128A15A52421
:1001A0000A128A117508740473047204031DDE2890
:1001B00040080A128A155A240A128A116508031D7A
:1001C00008296408031D08296308031D08290B304A
:1001D0006202031DEB280318082983160313C401C8
:1001E000C40A3C30BE000030BF00A601A60A413060
:1001F000A0000030A100A0300A128A154A23003066
:10020000E5000030E4000030E3000B30E2000800BD
:10021000831203136508031D19296408031D192996
:100220006308031D19290B306202031D1729031CE3
:100230004B29831203136508031D4B290130640207
:10024000031D2A2911306302031D2A29703062021E
:10025000031D2A2903184B29831603132508031DA0
:1002600008002408031D080064302302031D3C29F4
:1002700040302202031D3C29031808008316031393
:100280004308420441044004031D0800BE300A1222
:100290008A154A2308007030831203136206113056
:1002A00003196306031D782964036504031D782977
:1002B00083160313C4013C30BE000030BF00BE30C3
:1002C0000A128A154A230A128A118316A60141309E
:1002D000A0000030A100A0300A128A154A23003085
:1002E000E5000130E4001130E3007130E200080065
:1002F000831203136508031DA72902306402031D3E
:10030000892922306302031D8929E0306202031D1E
:1003100089290318A729831603134308031D08001E
:100320004208031D08001F304102031D9B29403075
:100330004002031D9B290318080083160313440879
:10034000031D0800BE300A128A152F2108008312EF
:1003500003136508031DBA2902306402031DB8297E
:1003600022306302031DB829E0306202031DB82960
:10037000031C0800BE300A128A152F210A128A11A6
:10038000A0300A128A152F210A128A1192285F08BA
:10039000B4003408F200F3015E080A128A154826F8
:1003A0000A128A1183125D08B4003408F200F301C6
:1003B000F30A5C080A128A15482608006A08003AFF
:1003C00003195628013A03196D28033A0319C7295E
:1003D000063A0319A528EC290800AA002A0A840075
:1003E00083130008A0002008F200F3012A0884000B
:1003F00000080A128A1548260A128A11023083124E
:100400000313A000A00B022A0000831203132A0A80
:10041000840083130008A0002008F200F301F30A0F
:100420002A08840000080A128A1548260A128A112E
:10043000073083120313A000A00B1C2A00008312B4
:1004400003132A0A840083130008A0002008F20086
:10045000F3012A08840000080A128A1548260A12A5
:100460008A1183122A08033E84000008A000200895
:10047000F2002A08023E840000080A128A15CF20E2
:100480000A128A11003A031D582A2A08033E8400E2
:100490000008A0002008F2002A08023E840000089C
:1004A0000A128A15CF200A128A11003A0319452A26
:1004B000770884000008A000840A0008A100200832
:1004C000A6002108A700A801A901831203132A0886
:1004D000033E840083130008A0002008F2002A08CD
:1004E000023E840000080A128A15CF200A128A11DF
:1004F000003A0319AC2A770884000008A000840A97
:100500000008A1002008A2002108A300A401A50161
:100510002608A2022708031C270F8F2A902AA3026D
:100520002808031C280F952A962AA4022908031CD0
:10053000290F9B2A9C2AA5022508031DAC2A240802
:10054000031DAC2A01302302031DAA2A2D302202EA
:10055000031DAA2A031C652A770884008313000858
:1005600083120313A000840A0008A1002008A2003F
:100570002108A300A401A5012608A2022708031C44
:10058000270FC32AC42AA3022808031C280FC92A3C
:10059000CA2AA4022908031C290FCF2AD02AA5029F
:1005A0002508A9002408A8002308A7002208A600FF
:1005B0002908031DE72A2808031DE72A2708031D29
:1005C000E72A97302602031DE52A031CF12A003092
:1005D00083120313A9000030A8000030A7000030E8
:1005E000A60083120313260808002408AA00250881
:1005F000AB002608AC0003102B0D2C0DAD002D0810
:10060000B0002708AA002808AB002908AC00031096
:100610002B0D2C0DAD002D08AF00300803191C2B3D
:100620002F0830020318232B2F08AA003008AA0233
:1006300019302A02031C232B2708A4002808A50030
:100640002908A60008002F080319080030082F0207
:100650000318322B3008AA002F08AA0219302A02E8
:10066000031808000630AA002A08AE00A61BAE1721
:10067000A91B2E17A517FF30A405FF30A5050030D4
:10068000A605A817FF30A705FF30A8050030A9056B
:100690002F0830020318722B01300310A70DA80D8C
:1006A000A90DFF3E031D4D2B0130AF022F08300670
:1006B00003196D2B0130AE022E08073903196D2B7B
:1006C0004C2B01300310A60CA50CA40CFF3E031DFF
:1006D000622B0130AA002A08B00730082F06031940
:1006E0009B2B612B30082F0203189B2B013003102A
:1006F000A40DA50DA60DFF3E031D772B0130B00202
:100700002F0830060319972B0130AE022E08073947
:100710000319972B762B01300310A90CA80CA70CFA
:10072000FF3E031D8C2B0130AA002A08AF073008BA
:100730002F06031D8B2BAE1FAD2BFF30A406FF3001
:10074000A506FF30A6060130A407003003180130CB
:10075000A507003003180130A6072E1FBF2BFF305E
:10076000A706FF30A806FF30A9060130A707003012
:1007700003180130A807003003180130A907AE01A3
:100780002408A707250803110318250A031DA80735
:10079000260803110318260A031DA907A91FE22B27
:1007A000FF30A706FF30A806FF30A9060130A707D3
:1007B000003003180130A807003003180130A907E2
:1007C000AE01AE0A2708F2002808F3002908F40059
:1007D0003008AA002A08F5002E08AB002B08F60006
:1007E0000A128A1194277208A4007308A5007408DD
:1007F000A6000800D3010A128A15F1240A128A11F0
:1008000083125B08D2005208F200F301F30A5A087F
:100810000A128A1548260A128A1183125708D20032
:100820005208F20056080A128A15CF200A128A11BD
:10083000013A031D1E2CD301D30A2F2C5508D200D8
:100840005208F20054080A128A15CF200A128A119F
:10085000013A031D2F2C0230D2005208D300530856
:10086000031D392C6B300A128A1588230A128A114B
:10087000E02C5708D2005208F20056080A128A15D6
:10088000CF200A128A11013A031D852C5303031D40
:10089000712C8316C401C40A9030BE000130BF0021
:1008A000BE300A128A154A230A128A11BE300A1271
:1008B0008A15DA260A128A1183160313A601A60ADC
:1008C0009030A0000130A100A0300A128A154A23FE
:1008D0000A128A11A0300A128A15DA260A128A111F
:1008E000E02C8316B501B50A9030AF000130B0009E
:1008F000AF300A128A154A230A128A11AF300A123F
:100900008A15DA260A128A11E02C5508D2005208FC
:10091000F20054080A128A15CF200A128A11013AED
:10092000031DCE2C5303031DBB2C8316C401903032
:10093000BE000130BF00BE300A128A154A230A12D7
:100940008A11BE300A128A15DA260A128A11831613
:100950000313A6019030A0000130A100A0300A12BC
:100960008A154A230A128A11A0300A128A15DA2639
:100970000A128A11E02C8316B5019030AF000130C5
:10098000B000AF300A128A154A230A128A11AF301A
:100990000A128A15DA260A128A11E02CBE300A12CF
:1009A0008A152F210A128A11AF300A128A152F21B7
:1009B0000A128A11A0300A128A152F210A128A11EE
:1009C000831203136808690403192F2CE801E90155
:1009D0002F2CCF005708C9004908F20056080A1208
:1009E0008A15CF200A128A11003A031D072D282DDF
:1009F000033083120313CB000830CA007630C900DD
:100A0000C90B002DCA0B002DCB0B002D000083124B
:100A100003135708C9004908F20056080A128A153C
:100A2000CF200A128A11003A031DF82C4F088400C7
:100A300000080319262D4F08840002300006031910
:100A4000262D4F0884008001800A7E2D0330792DE9
:100A5000B830F2000B30F300480884000008F400BE
:100A6000840A0008F5000A128A15A0220A128A11C7
:100A700072087304031D862D0A128A156D270A1247
:100A80008A114008CC004108CD004208CE004C0835
:100A9000F2004D08F3004E08F4009A30F50099304A
:100AA000F6003F30F7000A128A15E1210A128A1176
:100AB000031C712D4F0884000530831300060319B1
:100AC000862D4F088400063000060319862D4F0836
:100AD000840002300006031D6F2D0630792D05308D
:100AE000792D4F088400063083130006031D862DE0
:100AF0000230C9004F088400490880000030E5003A
:100B00000030E4000030E3000030E2004F088400D1
:100B100000080319962D4F08840000030319962D31
:100B20004F08840002300006031D9B2D4F080A1257
:100B30008A15442508004F080A128A115326080016
:100B40002008A6002108A7002208A8000310270DEE
:100B5000280DA9002908AA002A08031DB62D003077
:100B6000A0000030A1000030A20008002308A60069
:100B70002408A7002508A8000310270D280DA900A8
:100B80002908AF002F08031DCC2D0030A000003035
:100B9000A1000030A20008002F087B3EA600260816
:100BA000AA072208A6002608AF002508A6002608E6
:100BB000AF068030A6002608AF05A117A417FF30A6
:100BC000A305FF30A4050030A5050030AB000030C0
:100BD000AC000030AD000730A6002608AE00201C97
:100BE000FF2D2308AB07240803110318240A031D53
:100BF000AC07250803110318250A031DAD070130B2
:100C00000310A20CA10CA00CFF3E031D002E01300E
:100C10000310A30DA40DA50DFF3E031D082E0130EA
:100C2000AE02031DEF2D0930A6002608AE00201CE1
:100C3000272E2308AB07240803110318240A031DD9
:100C4000AC07250803110318250A031DAD07013061
:100C50000310A20CA10CA00CFF3E031D282E013096
:100C60000310AD0CAC0CAB0CFF3E031D302E01305D
:100C7000AE02031D172E2B08F2002C08F3002D08DE
:100C8000F4002A08A6002608F5002F08A700270868
:100C9000F6000A128A1194277208A0007308A100B6
:100CA0007408A2000800A40024088400053000068F
:100CB000031DA82E6508031D8A2E6408031D8A2EB5
:100CC0006308031D8A2E0B306202031D672E031872
:100CD0008A2E831203136108F9007908F200F301E8
:100CE000F30A60080A128A1548260A128A11B50109
:100CF000B50A0530AF000030B000AF300A128A15D7
:100D00004A230030E5000030E4000030E3000B30FF
:100D1000E2000800831203136508031D9C2E64087B
:100D2000031D9C2E0B306302031D9A2EB930620204
:100D3000031D9A2E031C0800AF300A128A152F21BA
:100D40000630F90083122408840079088000080026
:100D50002408840003300006031D08006508031DF5
:100D6000DE2E6408031DDE2E6308031DDE2E0B300D
:100D70006202031DBB2E0318DE2E831203136108CB
:100D8000F9007908F200F301F30A60080A128A15E3
:100D900048260A128A11B501B50A0530AF000030A5
:100DA000B000AF300A128A154A230030E500003047
:100DB000E4000030E3000B30E2000800831203136C
:100DC0006508031DF02E6408031DF02E0B3063022E
:100DD000031DEE2EB9306202031DEE2E031C080027
:100DE000AF300A128A152F210430F900831224082B
:100DF00084007908800008003308B6003408B70082
:100E00003508B8000310370D380DB9003908BE0099
:100E10003E08031D122F0030B0000030B10000303A
:100E2000B20008003008B6003108B7003208B80038
:100E30000310370D380DB9003908BF003F08031DF6
:100E4000282F0030B0000030B1000030B2000800A0
:100E50000030BB000030BC000030BD0089303F07CF
:100E6000B6003608BE023508B6003608BF003208A4
:100E7000B6003608BF068030B6003608BF05B41786
:100E8000FF30B305FF30B4050030B505B117FF30B2
:100E9000B005FF30B1050030B2051830B600360895
:100EA000BA0001300310BB0DBC0DBD0DFF3E031D8C
:100EB000522F32083502031D632F31083402031DFF
:100EC000632F30083302031C702F3008B30231083F
:100ED000031C310FB4023208031C320AB5023B1462
:100EE00001300310B30DB40DB50DFF3E031D712F7E
:100EF0000130BA02031D512F3B08F2003C08F300F9
:100F00003D08F4003E08B6003608F5003F08B7007B
:100F10003708F6000A128A1194277208B000730885
:100F2000B1007408B2000800750803199C2F7408FA
:100F300073047204031DAF2F0030F2000030F30081
:100F40000030F40008000130F7007708F5070130A1
:100F50000310F40CF30CF20CFF3E031DA82FFE301F
:100F600074050319CA2FA32F0130F7007708F5077E
:100F70000130F207003003180130F3070030031886
:100F80000130F40701300310F40CF30CF20CFF3EB7
:100F9000031DC32FFF3074050319DD2FB42F02305A
:100FA0007502031CDF2F0130F50201300310F20D32
:100FB000F30DF40DFF3E031DD62FF31FCF2F751831
:100FC000E72FFF30F2057F30F305FF30F405031003
:100FD000F50C7508F700F801F90110300310F70D52
:100FE000F80DF90DFF3E031DEE2F7708F204780887
:100FF000F3047908F404760803190800F4170800CC
:1010000008308A000408840A8207003452344534C8
:101010005334453454343A3420344F344B340A3446
:0210200000349A
:1010CA009F0183169F010730F20072089F040800EF
:1010DA00F200720899000C1E70280C1283169818D8
:1010EA00080073289F0183169F0183121F088E3000
:1010FA00F200720883169F040800831203139201F8
:10110A00121592148B170B1783168C1483128C10DA
:10111A00080072087304031908000130F202003053
:10112A00031CF303F30299289A2800008E28053439
:10113A0005340534043405340034063400340634E6
:10114A00023406340334063401347E088A007F08E8
:10115A008200AA200A128A158000840A04087D06E1
:10116A0003190034FF0A0319FE0AAE282008F20008
:10117A002108F300F4018E30A3002308F500F601DC
:10118A000A128A1194277208A0007308A100740831
:10119A00A2000800F400740884000130F300720A07
:1011AA00D8280310F30DFF3E031DD62873088313B6
:1011BA0000050319E2280130080000300800023057
:1011CA00831203136A060319EC28FB0108007B0843
:1011DA00031D0800FB01FB0A0030E5000030E400B3
:1011EA000030E3000030E2000800A7002708A3004F
:1011FA00A401A5012308F2002408F3002508F4003D
:10120A008E30A6002608F500F6010A128A119427E4
:10121A007208A0007308A1007408A2000800F50073
:10122A007508F4007408F600760884000A128A1514
:10123A0000200A128A15003A031928290130F400FD
:10124A007408F607192975087602F200F301F21BF1
:10125A00F3030800F80002307807F70077088400E3
:10126A0083138001840A8001840A8001840A800130
:10127A0078080E3E84000008F7007708F200F301B0
:10128A00F30A78080D3E840000080A128A154826D7
:10129A000800831203136D0803195B296D030319F0
:1012AA005B290330F2007208EA00080002306A067D
:1012BA00031908006D03031D6429EA0108006A0383
:1012CA000319080004306A0603190800EA01EA0A49
:1012DA000800F601F701721C78297408F60703184A
:1012EA00F70A7508F70701300310F40DF50DFF3EF4
:1012FA00031D792901300310F30CF20CFF3E031D84
:10130A00802972087304031D70297708F300760890
:10131A00F2000800F400740884000008F200840A4D
:10132A000008F30067087306031D9D296608720604
:10133A0003190800740884000008E600840A0008FB
:10134A00E7000130E207003003180130E3070030FC
:10135A0003180130E407003003180130E5070800DC
:10136A0083120313A20022080A128A1514210A12F0
:10137A008A157308A1007208A000A3012308F700C8
:10138A00F80178082102031DCC2977082002031CE2
:10139A0008002308220784000A128A1500200A126C
:1013AA008A150A128A156D200A128A150130F70069
:1013BA0077088312A307C329F41FF0297208003C97
:1013CA00F2007308031C730F003CF3007408031C3B
:1013DA00740F803CF400F71FFF297508003CF500E4
:1013EA007608031C760F003CF6007708031C770F7B
:1013FA00803CF7008030F4068030F70677087402E4
:10140A00031D080076087302031D0800750872029E
:10141A000800831603138C1C2F2A83128C1C2F2A74
:10142A000130E8070318E90A0030E9070130EB0741
:10143A000318EC0A0030EC0775306C0231300319DE
:10144A006B02031C2C2A0130EB000030EC00DD306B
:10145A0091008C10133083126902883003196802D4
:10146A00031C640071088A00700E8300FE0E7E0E53
:10147A000900803083168700243098009030831248
:10148A0098002708AB002808AC002908AD002A08F4
:10149A00AE0004300310AB0DAC0DAD0DAE0DFF3E2A
:1014AA00031D4F2A2E08F5002D08F4002C08F3001E
:1014BA002B08F2000130F9003130F8002D30F70026
:1014CA000030F6000A128A15BB257208FF3E831601
:1014DA009900080000340034003400340034003429
:1014EA0001344B34003409340234073400340934EB
:1014FA000134003400340034003400340034013440
:10150A005A340034073403340834003407340234BC
:10151A0000340034003400340034003401345A34C6
:10152A0000340834063408340534083407340534E2
:10153A00023405340334720873040319CD2AF701FF
:10154A00F70AF31BB42A01300310F20DF30DFF3E24
:10155A00031DA92A0130F6007608F707A62A7308A0
:10156A007502031DBA2A72087402031CC22A720881
:10157A00F4027308031CF503F50201300310F30C9F
:10158A00F20CFF3E031DC32A0130F702031DB42AE1
:10159A007508F3007408F2000800F701F8017208F0
:1015AA0073040319092BF901F90AF31BE82A01301C
:1015BA000310F20DF30DFF3E031DDD2A0130F60084
:1015CA007608F907DA2A01300310F70DF80DFF3E05
:1015DA00031DE92A73087502031DF52A72087402AD
:1015EA00031CFE2A7208F4027308031CF503F502B1
:1015FA00771401300310F30CF20CFF3E031DFF2A8F
:10160A000130F902031DE82A7808F3007708F2008E
:10161A000800F7000A128A1577200A128A1507307D
:10162A00F6007D30F500F50B182BF60B182B770812
:10163A00F50002300310F50DFF3E031D1F2B0310AA
:10164A00750DF6007608831203139F041F140730E2
:10165A00F6007D30F500F50B302BF60B302B83129C
:10166A0003131F151F19372B83169F010730F50027
:10167A0075089F04402B412B0000831203131E0898
:10168A00F40083161E08F3000800F80078080A3EE2
:10169A008400831300088312A0002008F20078084F
:1016AA00063E84000008A1002108F3007808093EDC
:1016BA00840000080A128A1548260A128A15780830
:1016CA0084000008F200840A0008F3004030F400A5
:1016DA000630F5000A128A156E2172088312A000DC
:1016EA007308A100A201A3017808023E8400200821
:1016FA008000840A21088000840A22088000840A63
:10170A00230880000800D10004306A0603199A2BC6
:10171A006A0303199A2B5108D0005008C8006D308B
:10172A000A128A11E9240A128A150A128A154E2106
:10173A000A128A1551080A128A114B200A128A15AE
:10174A000A128A15E4200A128A150A128A15102426
:10175A000A128A15BE300A128A15DA260A128A1560
:10176A00A0300A128A15DA260A128A15AF300A122E
:10177A008A15DA260A128A158312031351080A12E5
:10178A008A158F210800F8000130F702770A031939
:10179A000800780A84008313000883120313A00048
:1017AA002008F200F301F30A7808840000080A12FC
:1017BA008A1548260A128A15033083120313A200D7
:1017CA008A30A1005530A000A00BE92BA10BE92B10
:1017DA00A20BE92B780A84008313000883120313EF
:1017EA00A0002008F200F3017808840000080A1219
:1017FA008A1548260A128A15033083120313A20097
:10180A008A30A1005530A000A00B092CA10B092C8D
:10181A00A20B092CC92B7B03031D08006508031DB5
:10182A00372C6408031D372C6308031D372C063038
:10183A006202031D202C0318372C831203135B0842
:10184A00F7007708F200F3015A080A128A154826A7
:10185A0000308312E5000030E4000030E300063077
:10186A00E2000800831203136508031D492C64086B
:10187A00031D492C4E306302031D472C203062029F
:10188A00031D472C031C0800831203135B08F7008F
:10189A007708F200F301F30A5A080A128A15482651
:1018AA000230F7007708FB000800AE00B201B3016E
:1018BA00B101B1012E08AB002B08F700CD300A1296
:1018CA008A11ED210A128A15AC00AD0103102C0D04
:1018DA00AF002D0DB000003030028D3003192F02F9
:1018EA00031C792C2F0808002F08B2070318B30A23
:1018FA003008B3070130AB002B08B1070B303102B7
:10190A00031C5F2C3108AB00AC012B08F2002C0839
:10191A00F3003308F5003208F4000A128A15D222BD
:10192A000A128A157308B3007208B2003208330427
:10193A00031DA32C9630B2000030B3003208080011
:10194A0075087404730472040319E82CA101A10A2E
:10195A00F51BBD2C0130A0000310F20DF30DF40DA0
:10196A00F50DA00BB12C0130A0002008A107AD2C69
:10197A0075087902031DCB2C74087802031DCB2C41
:10198A0073087702031DCB2C72087602031CDB2C2A
:10199A007208F6027308031C730FF7027408031C1B
:1019AA00740FF8027508031C750FF9020130031051
:1019BA00F50CF40CF30CF20CFF3E031DDC2C013089
:1019CA00A102031DBD2C7908F5007808F4007708F8
:1019DA00F3007608F20008000530AF002F08F70080
:1019EA0060300A128A15C8230A128A150A128A1541
:1019FA0082200A128A150A128A1565200A128A1585
:101A0A0000308312AA000030A9002530A8008030D7
:101A1A00A7000A128A153E220A128A150D3083126D
:101A2A000313B100AF30B000B530AF00AF0B1B2DC0
:101A3A00B00B1B2DB10B1B2D222D01300A128A155A
:101A4A00B5210A128A155D08AF002F08F200F301CA
:101A5A005C080A128A1548260A128A15BE300A122A
:101A6A008A152F210A128A15A0300A128A152F21E7
:101A7A000A128A15AF300A128A152F210800A4000B
:101A8A002408840002300006031D6B2D6508031D1F
:101A9A005B2D6408031D5B2DEA306302031D592D7B
:101AAA0061306202031D592D031C080083120313BF
:101ABA002408840083138001800A0030E500003086
:101ACA00E4000030E3000030E2000800240884004B
:101ADA000003031D08006508031D932D6408031DF8
:101AEA00932D6308031D932D0B306202031D7D2D78
:101AFA000318932D83160313B5010530AF00003088
:101B0A00B000AF300A128A154A230030E5000030CF
:101B1A00E4000030E3000B30E200080083120313F4
:101B2A006508031DA52D6408031DA52D0B3063024E
:101B3A00031DA32DB9306202031DA32D031C080047
:101B4A00831203136108F9007908F200F3016008AF
:101B5A000A128A1548260A128A15AF300A128A15FD
:101B6A002F2183122408840080010800A201F51F96
:101B7A00CB2DF209F309F409F509F20A0319F30A5C
:101B8A000319F40A0319F50AA201A20AF91FDC2DA6
:101B9A00F609F709F809F909F60A0319F70A031900
:101BAA00F80A0319F90A0130A0002008A206003039
:101BBA00A6000030A5000030A4000030A30075087C
:101BCA007404730472040319312EA101A10AF51BCE
:101BDA00FC2D0130A0000310F20DF30DF40DF50DEC
:101BEA00A00BF02D0130A0002008A107EC2D013038
:101BFA00A0000310A30DA40DA50DA60DA00BFE2D8C
:101C0A0075087902031D132E74087802031D132E1A
:101C1A0073087702031D132E72087602031C242E02
:101C2A007208F6027308031C730FF7027408031C88
:101C3A00740FF8027508031C750FF902231401309A
:101C4A000310F50CF40CF30CF20CFF3E031D252EC9
:101C5A000130A102031DFC2D220803193F2EA309FE
:101C6A00A409A509A609A30A0319A40A0319A50A1E
:101C7A000319A60A2608F5002508F4002408F3002B
:101C8A002308F2000800F6007608053A031D5E2EC6
:101C9A000130F400720A532E0310F40DFF3E031DA7
:101CAA00512E7408FF3AF50075088316031385054B
:101CBA00D12E7608063A031D732E0130F400720AFB
:101CCA00682E0310F40DFF3E031D662E7408FF3ABA
:101CDA00F5007508831603138605D12E7608073A90
:101CEA00031D882E0130F400720A7D2E0310F40DB4
:101CFA00FF3E031D7B2E7408FF3AF5007508831614
:101D0A0003138705D12E7608083A031D9D2E01304C
:101D1A00F400720A922E0310F40DFF3E031D902E5A
:101D2A007408FF3AF5007508831603138805D12E47
:101D3A000130F400720AA32E0310F40DFF3E031DB6
:101D4A00A12E7408FF3AF500750883160313890556
:101D5A00D12E0130F400720AB42E0310F40DFF3EA6
:101D6A00031DB22E7408F5007608840075088313E3
:101D7A00800408000130F400720AC52E0310F40D25
:101D8A00FF3E031DC32E7408FF3AF500760884004F
:101D9A0075088313800508007308003A0319BF2EDB
:101DAA00013A0319AE2EBF2E0800F7007708023E4B
:101DBA0084008313000883120313A000840A000816
:101DCA00A100840A0008A200840A0008A3002308CC
:101DDA002204210420040319080077080E3E840017
:101DEA000008A0002008F20077080D3E84000008D1
:101DFA000A128A15CF200A128A15013A031D162FD4
:101E0A0077080E3E84000008A0002008F200F301C3
:101E1A0077080D3E840000080A128A1548260A121D
:101E2A008A1577080C3E840000088312A000200857
:101E3A00F200F30177080B3E840000080A128A15A3
:101E4A0048260A128A157708073E84000008F2001D
:101E5A00840A0008F3000A128A158E200A128A15CB
:101E6A0077080C3E84008313000883120313A00032
:101E7A002008F200F301F30A77080B3E84000008F9
:101E8A000A128A1548260A128A157708073E84001C
:101E9A000008F200840A0008F3000A128A158E204C
:101EAA007708023E8400013083138002840A0030DE
:101EBA00031C01308002840A0030031C01308002B6
:101ECA00840A0030031C01308002033084020800B7
:101EDA000030C5000030C6000030C700C401003021
:101EEA000A128A150E230A128A1574088312A1008F
:101EFA007308A0000A128A15BB200A128A15200844
:101F0A00A4002108A5002208A6004508A700460843
:101F1A00A8004708A9000A128A11F5220A128A158E
:101F2A002408C5002508C6002608C7004508F2008F
:101F3A004608F3004708F4000030F500C830F60000
:101F4A004230F7000A128A15E1210A128A15031C87
:101F5A00B62F0130C3004308C4070B304402031CE8
:101F6A00742F44080A128A15FA200A128A152008C0
:101F7A00B0002108B1002208B2004508B3004608A3
:101F8A00B4004708B5000A128A11FC260A128A15FB
:101F9A003008C5003108C6003208C7000030B0005A
:101FAA008030B1004430B2000030A000A030A1005F
:101FBA004030A2004508A3004608A4004708A5002F
:101FCA000A128A11A0250A128A152008B3002108CC
:101FDA00B4002208B5000A128A11FC263008C5008E
:101FEA003108C6003208C7004508C0004608C100CB
:061FFA004708C2000800C8
:02400E003E3D35
:00000001FF
