:100000000A128A110C280234FE00030EF0000A08BE
:10001000F1000A168A119F2F0A128A110F288313E2
:10002000C330FD001630FE00FD30FF00A03084001C
:100030000A168A1139260A128A116230FD0016301A
:10004000FE001830FF00543084000A168A11392649
:100050000A128A110A128A110320FB008316C301B7
:10006000C401C501C601C701C801C901CA01CB014C
:10007000CC018312E201E301E401E501E601E701BD
:10008000E801E901EA01EB01EC01ED01FA0183016C
:100090000A128A11612D83120313A0002008053E65
:1000A000840083130008F7007708F2002008043E5C
:1000B000840000080A168A115A260A128A11003A88
:1000C000031D752883120313200A84000008F7001B
:1000D0007708F2002008840000080A168A115A26C0
:1000E0000A128A11003A03195C29831203132008AB
:1000F000053E84000008F7007708F200F3012008AD
:10010000043E840000080A128A1598250A128A11F2
:1001100083122008073E84000008F7007708F200E9
:10012000F3012008063E840000080A128A1598256B
:100130000A128A111030F700F70B9C280000831276
:100140000313200A840083130008F7007708F200E5
:10015000F301F30A2008840000080A128A15982582
:100160000A128A1183122008033E84000008F70057
:100170007708F200F301F30A2008023E8400000829
:100180000A128A1598250A128A110830F700F70B0F
:10019000C72883120313200A840083130008F70082
:1001A0007708F200F3012008840000080A128A157B
:1001B00098250A128A11DC28DD2800008312031317
:1001C0002008073E840083130008F7007708F20038
:1001D000F301F30A2008063E840000080A128A157B
:1001E00098250A128A11A630F700F70BF5280000AF
:1001F000831203132008033E840083130008F700D2
:100200007708F200F3012008023E840000080A1279
:100210008A1598250A128A110D290E2900008312C9
:1002200003132008053E840083130008F7007708B5
:10023000F200F301F30A2008043E840000080A12C9
:100240008A1598250A128A110830F700F70B26291B
:10025000831203132008053E840083130008F7006F
:100260007708F200F3012008043E840000080A1217
:100270008A1598250A128A1183122008073E8400E5
:100280000008F7007708F200F3012008063E84001A
:1002900000080A128A1598250A128A110430F900FA
:1002A000CF30F8000130F700F70B5429F80B542930
:1002B000F90B54295B290800831203132008073E19
:1002C00084000008F7007708F2002008063E84004A
:1002D00000080A168A115A260A128A11003A031DCA
:1002E0008629831203132008033E84000008F700C8
:1002F0007708F2002008023E840000080A168A11DE
:100300005A260A128A11003A0319080083120313AD
:100310002008053E84000008F7007708F200F3018A
:100320002008043E840000080A128A1598250A1243
:100330008A1183122008073E84000008F70077081E
:10034000F200F3012008063E840000080A128A1514
:1003500098250A128A111030F700F70BAD2900001A
:1003600083120313200A840083130008F700770820
:10037000F200F301F30A2008840000080A128A152B
:1003800098250A128A1183122008033E840000086F
:10039000F7007708F200F301F30A2008023E840018
:1003A00000080A128A1598250A128A110830F700E7
:1003B000F70BD829831203132008033E840083130C
:1003C0000008F7007708F200F3012008023E8400DD
:1003D00000080A128A1598250A128A11EF29F029B5
:1003E0000000831203132008053E840083130008D5
:1003F000F7007708F200F301F30A2008043E8400B6
:1004000000080A128A1598250A128A110830F70086
:10041000F70B082A83120313200A840083130008B1
:10042000F7007708F200F3012008840000080A12A0
:100430008A1598250A128A111D2A1E2A0000831285
:1004400003132008073E840083130008F700770891
:10045000F200F301F30A2008063E840000080A12A5
:100460008A1598250A128A110830F700F70B362AE8
:100470002829BF00353084000A30FF008313800133
:10048000840AFF0B3E2A3F2B5F08B4003408F200B9
:10049000F301F30A5E080A128A1598250A128A11D6
:1004A00083125D08B4003408F200F3015C080A12FC
:1004B0008A15982508005F08B4003408F200F3019B
:1004C0005E080A128A1598250A128A1183125D089D
:1004D000B4003408F200F3015C080A128A1598256A
:1004E0000A128A1183123F080A128A155E220A1222
:1004F0008A11B4003408C00050304002031C872A1F
:10050000023083120313B4003408EA0008000430F8
:10051000B4003408EA000030E5000030E4000030A8
:10052000E3000030E20008005F08B4003408F20085
:10053000F3015E080A128A1598250A128A1183129D
:100540005D08B4003408F200F3015C080A128A1551
:1005500098250A128A1183125708B4003408F20051
:1005600056080A168A115A260A128A11013A031DE0
:10057000D22AB7300A128A15F5220A128A11023AD3
:10058000031DD22AB7300A128A114B200A128A118F
:10059000003083120313E5000330E400F730E3007A
:1005A000A030E200831203136508031DF22A6408D9
:1005B000031DF22A6308031DF22A0B306202031D99
:1005C000E12A0318F22AB7300A128A11A52700304F
:1005D00083120313E5000030E4000030E3000B3029
:1005E000E2000800E030831203136206933003191F
:1005F00063060430031964066504031D0E2BB7302F
:100600000A128A154623003083120313E5000430D2
:10061000E4009330E300E130E200080083120313AA
:100620006508031D212B09306402031D1F2B4E306A
:100630006302031D1F2BD0306202031D1F2B031CFE
:100640000800B7300A128A114B200A128A11802A38
:100650005F08B4003408F200F3015E080A128A153C
:1006600098250A128A1183125D08B4003408F2003A
:10067000F301F30A5C080A128A15982508006A0833
:10068000003A0319442A013A03195B2A033A031971
:10069000282B063A0319942A4D2B0800AA002A0A8F
:1006A000840083130008A0002008F200F3012A0848
:1006B000840000080A128A1598250A128A1102304D
:1006C00083120313A000A00B632B000083120313FB
:1006D0002A0A840083130008A0002008F200F30116
:1006E000F30A2A08840000080A128A1598250A12BB
:1006F0008A11073083120313A000A00B7D2B00008A
:10070000831203132A0A840083130008A000200820
:10071000F200F3012A08840000080A128A159825BD
:100720000A128A1183122A08033E84000008A000DE
:100730002008F2002A08023E840000080A168A11E6
:100740005A260A128A11003A031DBB2B8312031387
:100750002A08033E84000008A0002008F2002A08AE
:10076000023E840000080A168A115A260A128A11CB
:10077000003A0319A62B770884000008831203139C
:10078000A000840A0008A1002008A6002108A700F4
:10079000A801A901831203132A08033E84008313CE
:1007A0000008A0002008F2002A08023E8400000889
:1007B0000A168A115A260A128A11003A0319132CB2
:1007C00077088400000883120313A000840A00083D
:1007D000A1002008A2002108A300A401A501260869
:1007E000A2022708031C270FF62BF72BA3022808C9
:1007F000031C280FFC2BFD2BA4022908031C290F26
:10080000022C032CA5022508031D132C2408031D0C
:10081000132C01302302031D112C2D302202031D45
:10082000112C031CCA2B7708840083130008831241
:100830000313A000840A0008A1002008A2002108D8
:10084000A300A401A5012608A2022708031C270F64
:100850002A2C2B2CA3022808031C280F302C312C07
:10086000A4022908031C290F362C372CA5022508C1
:10087000A9002408A8002308A7002208A600290828
:10088000031D4E2C2808031D4E2C2708031D4E2C3B
:1008900097302602031D4C2C031C582C0030831269
:1008A0000313A9000030A8000030A7000030A60004
:1008B00083120313260808002408AA002508AB00A9
:1008C0002608AC0003102B0D2C0DAD002D08B00038
:1008D0002708AA002808AB002908AC0003102B0D3C
:1008E0002C0DAD002D08AF0030080319832C2F0804
:1008F000300203188A2C2F08AA003008AA021930E7
:100900002A02031C8A2C2708A4002808A50029080D
:10091000A60008002F080319080030082F0203184A
:10092000992C3008AA002F08AA0219302A020318AD
:1009300008000630AA002A08AE00A61BAE17A91BA5
:100940002E17A517FF30A405FF30A5050030A6051A
:10095000A817FF30A705FF30A8050030A9052F080C
:1009600030020318D92C01300310A70DA80DA90DD2
:10097000FF3E031DB42C0130AF022F0830060319CF
:10098000D42C0130AE022E0807390319D42CB32C15
:1009900001300310A60CA50CA40CFF3E031DC92CAE
:1009A0000130AA002A08B00730082F060319022DCB
:1009B000C82C30082F020318022D01300310A40D9B
:1009C000A50DA60DFF3E031DDE2C0130B0022F0841
:1009D00030060319FE2C0130AE022E080739031928
:1009E000FE2CDD2C01300310A90CA80CA70CFF3E37
:1009F000031DF32C0130AA002A08AF0730082F0688
:100A0000031DF22CAE1F142DFF30A406FF30A506E7
:100A1000FF30A6060130A407003003180130A507F7
:100A2000003003180130A6072E1F262DFF30A70621
:100A3000FF30A806FF30A9060130A70700300318D1
:100A40000130A807003003180130A907AE012408BF
:100A5000A707250803110318250A031DA807260860
:100A600003110318260A031DA907A91F492DFF30EA
:100A7000A706FF30A806FF30A9060130A7070030FF
:100A800003180130A807003003180130A907AE0190
:100A9000AE0A2708F2002808F3002908F4003008FD
:100AA000AA002A08F5002E08AB002B08F6000A124F
:100AB0008A159D237208A4007308A5007408A60077
:100AC0000800D3010A128A1585210A128A1183129D
:100AD00003135B08D2005208F200F301F30A5A082C
:100AE0000A128A1598250A128A1183125708D20011
:100AF0005208F20056080A168A115A260A128A115A
:100B0000013A031D852D0230952D831203135508DC
:100B1000D2005208F20054080A168A115A260A1204
:100B20008A11013A031D9A2D033083120313D20058
:100B30005208D300831203135308031DA62D6B30F4
:100B40000A128A1554200A128A112E2E03305306D7
:100B50000319FE2D5708D2005208F20056080A1653
:100B60008A115A260A128A11013A031DD02D8316C2
:100B70000313AE01AE0A9030A8000130A900A830DE
:100B80000A128A1504210A128A116B30D200520807
:100B9000A200A8300A128A1581240A128A112E2E68
:100BA000831203135508D2005208F20054080A16A3
:100BB0008A115A260A128A11013A031DF72D83164B
:100BC0000313AE019030A8000130A900A8300A122A
:100BD0008A1504210A128A116B30D2005208A20031
:100BE000A8300A128A1581240A128A112E2EA830E2
:100BF0000A128A1542210A128A112E2E5708D20093
:100C00005208F20056080A168A115A260A128A1148
:100C1000013A031D122EB7300A128A1546230A1212
:100C20008A112E2E831203135508D2005208F200A7
:100C300054080A168A115A260A128A11013A031D0B
:100C4000282EB7300A128A11A5270A128A112E2ED1
:100C5000B7300A128A114B200A128A118312031329
:100C60006808690403199A2DE801E9019A2DCF005B
:100C70005708C9004908F20056080A168A115A2670
:100C80000A128A11003A031D552E782E0330831262
:100C90000313CB000830CA007630C900C90B4E2EB2
:100CA000CA0B4E2ECB0B4E2E000083120313570897
:100CB000C9004908F20056080A168A115A260A1273
:100CC0008A11003A031D462E831203134F08840035
:100CD00000080319762E4F0884000230000603191D
:100CE000762E4F0884008001800AD02E0330CB2E50
:100CF000B830F2000B30F30083120313480884006D
:100D00000008F400840A0008F5000A128A1522205F
:100D10000A128A1172087304031DD82E0A128A154A
:100D20002A260A128A114008CC004108CD00420848
:100D3000CE004C08F2004D08F3004E08F4009A3043
:100D4000F5009930F6003F30F7000A168A11722735
:100D50000A128A11031CC32E4F0884000530831326
:100D600000060319D82E4F08840006300006031928
:100D7000D82E4F08840002300006031DC12E063015
:100D8000CB2E0530CB2E4F0884000630831300068F
:100D9000031DD82E0230C9004F0884004908800086
:100DA0000030E5000030E4000030E3000030E200F5
:100DB0004F08840000080319E82E4F088400000340
:100DC0000319E82E4F08840002300006031DED2EA3
:100DD0004F080A128A15092408004F080A128A15BA
:100DE000552708002008A6002108A7002208A8000F
:100DF0000310270D280DA9002908AA002A08031DA1
:100E0000082F0030A0000030A1000030A200080030
:100E10002308A6002408A7002508A8000310270D12
:100E2000280DA9002908AF002F08031D1E2F003030
:100E3000A0000030A1000030A20008002F087B3E77
:100E4000A6002608AA072208A6002608AF00250843
:100E5000A6002608AF068030A6002608AF05A11719
:100E6000A417FF30A305FF30A4050030A50500300E
:100E7000AB000030AC000030AD000730A600260803
:100E8000AE00201C512F2308AB07240803110318C0
:100E9000240A031DAC07250803110318250A031DA6
:100EA000AD0701300310A20CA10CA00CFF3E031DE6
:100EB000522F01300310A30DA40DA50DFF3E031DFD
:100EC0005A2F0130AE02031D412F0930A60026081B
:100ED000AE00201C792F2308AB0724080311031848
:100EE000240A031DAC07250803110318250A031D56
:100EF000AD0701300310A20CA10CA00CFF3E031D96
:100F00007A2F01300310AD0CAC0CAB0CFF3E031D6F
:100F1000822F0130AE02031D692F2B08F2002C082E
:100F2000F3002D08F4002A08A6002608F5002F0873
:100F3000A7002708F6000A128A159D237208A00050
:100F40007308A1007408A200080083120313A20012
:100F50002208033E840083130008A1002108F20048
:100F60002208023E840000080A168A115A260A1234
:100F70008A11013A031DD12F831203132208073E61
:100F800084000008A1002108F2002208063E840027
:100F900000080A168A115A260A128A11013A031900
:100FA00008008312031322080A128A114B200A1226
:100FB0008A11831203132208033E8400831300085E
:100FC000A1002108F200F301F30A2208023E840086
:100FD00000080A128A1598250A128A11831222081B
:100FE000073E84000008A1002108F200F301F30A83
:100FF0002208063E840000080A128A159825080077
:10100200F601F701721C0B287408F6070318F70A99
:101012007508F70701300310F40DF50DFF3E031DAF
:101022000C2801300310F30CF20CFF3E031D1328B1
:1010320072087304031D03287708F3007608F20090
:1010420008007208730403194F28F701F70AF31B0B
:10105200362801300310F20DF30DFF3E031D2B283D
:101062000130F6007608F707282873087502031D79
:101072003C2872087402031C44287208F4027308A4
:10108200031CF503F50201300310F30CF20CFF3ED2
:10109200031D45280130F702031D36287508F300A9
:1010A2007408F2000800D10004306A0603196628A9
:1010B2006A03031966285108D0005008C8006D3031
:1010C2000A128A1137260A128A150A168A11BA26B4
:1010D2000A128A1551080A128A1139220A128A152D
:1010E2000A168A116F260A128A150A128A15142202
:1010F2000A128A15831203135108D0005008A20065
:10110200A8300A128A1581240A128A1551080A1671
:101112008A1120270800F701F801720873040319E5
:10112200C328F901F90AF31BA22801300310F20DBA
:10113200F30DFF3E031D97280130F6007608F907EC
:10114200942801300310F70DF80DFF3E031DA3286C
:1011520073087502031DAF2872087402031CB828B5
:101162007208F4027308031CF503F50277140130C8
:101172000310F30CF20CFF3E031DB9280130F902F3
:10118200031DA2287808F3007708F2000800F70090
:101192000A168A1101260A128A150730F6007D30D6
:1011A200F500F50BD228F60BD2287708F5000230AD
:1011B2000310F50DFF3E031DD9280310750DF6002F
:1011C2007608831203139F041F140730F6007D3044
:1011D200F500F50BEA28F60BEA28831203131F1514
:1011E2001F19F12883169F010730F50075089F0427
:1011F200FA28FB280000831203131E08F40083164A
:101202001E08F3000800F80078080A3E84008313E1
:1012120000088312A0002008F2007808063E84002D
:101222000008A1002108F3007808093E84000008A4
:101232000A128A1598250A128A157808840000086D
:10124200F200840A0008F3004030F4000630F50092
:101252000A128A15012072088312A0007308A100E5
:10126200A201A3017808023E840020088000840ABB
:1012720021088000840A22088000840A2308800052
:101282000800F80002307807F70077088400800130
:10129200840A8001840A8001840A800178080E3E53
:1012A20084000008F7007708F20078080D3E8400F9
:1012B20000080A168A115A260A128A15003A031DD4
:1012C200080078080C3E84000008F7007708F20056
:1012D200F301F30A78080B3E840000080A128A150B
:1012E20098250A128A1578080E3E84000008F70035
:1012F2007708F200F301F30A78080D3E8400000833
:101302000A128A15982508000530AF002F08F70049
:1013120060300A128A15CC210A128A150A168A111D
:101322000C260A128A150A168A11EF250A128A1544
:1013320000308312AA000030A9002530A8008030B6
:10134200A7000A168A11CF270A128A150D308312B6
:101352000313B100AF30B000B530AF00AF0BAF290F
:10136200B00BAF29B10BAF29B62901300A168A1189
:1013720046270A128A155D08AF002F08F200F30112
:101382005C080A128A1598250A128A15A8300A12D0
:101392008A1542210800F8000130F702770A031982
:1013A2000800780A84008313000883120313A00044
:1013B2002008F200F301F30A7808840000080A12F8
:1013C2008A1598250A128A15033083120313A20084
:1013D2008A30A1005530A000A00BED29A10BED2908
:1013E200A20BED29780A84008313000883120313E9
:1013F200A0002008F200F3017808840000080A1215
:101402008A1598250A128A15033083120313A20043
:101412008A30A1005530A000A00B0D2AA10B0D2A85
:10142200A20B0D2ACD297B03031D08006508031DAD
:101432003B2A6408031D3B2A6308031D3B2A06302E
:101442006202031D242A03183B2A831203135B083A
:10145200F7007708F200F3015A080A128A15982554
:1014620000308312E5000030E4000030E300063073
:10147200E2000800831203136508031D4D2A640865
:10148200031D4D2A4E306302031D4B2A2030620297
:10149200031D4B2A031C0800831203135B08F70089
:1014A2007708F200F301F30A5A080A128A159825FE
:1014B2000230F7007708FB000800AE00B201B3016A
:1014C200B101B1012E08AB002B08F700BF300A12A0
:1014D2008A114E230A128A15AC00AD0103102C0D9D
:1014E200AF002D0DB000003030028D3003192F02F5
:1014F200031C7D2A2F0808002F08B2070318B30A1D
:101502003008B3070130AB002B08B1070B303102B2
:10151200031C632A3108AB00AC012B08F2002C0833
:10152200F3003308F5003208F4000A128A158C2001
:101532000A128A157308B3007208B2003208330423
:10154200031DA72A9630B2000030B300320808000B
:1015520075087404730472040319EC2AA101A10A28
:10156200F51BC12A0130A0000310F20DF30DF40D9A
:10157200F50DA00BB52A0130A0002008A107B12A61
:1015820075087902031DCF2A74087802031DCF2A39
:1015920073087702031DCF2A72087602031CDF2A22
:1015A2007208F6027308031C730FF7027408031C17
:1015B200740FF8027508031C750FF902013003104D
:1015C200F50CF40CF30CF20CFF3E031DE02A013083
:1015D200A102031DC12A7908F5007808F4007708F2
:1015E200F3007608F2000800F6007608053E840053
:1015F2000008F5007508F2007608043E8400000831
:101602000A168A115A260A128A15003A031D1A2B43
:10161200760A84000008F5007508F2007608840056
:1016220000080A168A115A260A128A15003A031964
:101632001C2B013008007608073E84000008F500E4
:101642007508F2007608063E840000080A168A1120
:101652005A260A128A15003A031D422B7608033EC7
:1016620084000008F5007508F2007608023E840046
:1016720000080A168A115A260A128A15003A031914
:10168200442B023008000030080083120313A2002A
:10169200220A840083130008A1002108F200220814
:1016A200840000080A168A115A260A128A15013A7B
:1016B200031D702B831203132208053E84000008C9
:1016C200A1002108F2002208043E840000080A1644
:1016D2008A115A260A128A15013A0319080083123E
:1016E200031322080A128A114B200A128A15831246
:1016F2000313220A840083130008A1002108F200C8
:10170200F301F30A2208840000080A128A159825B8
:101712000A128A1583122208053E84000008A100DD
:101722002108F200F301F30A2208043E84000008B3
:101732000A128A159825080075080319A52B740842
:1017420073047204031DB82B0030F2000030F30062
:101752000030F40008000130F7007708F507013087
:101762000310F40CF30CF20CFF3E031DB12BFE3000
:1017720074050319D32BAC2B0130F7007708F5075A
:101782000130F207003003180130F307003003186C
:101792000130F40701300310F40CF30CF20CFF3E9D
:1017A200031DCC2BFF3074050319E62BBD2B023031
:1017B2007502031CE82B0130F50201300310F20D13
:1017C200F30DF40DFF3E031DDF2BF31FD82B75180D
:1017D200F02BFF30F2057F30F305FF30F4050310E4
:1017E200F50C7508F700F801F90110300310F70D38
:1017F200F80DF90DFF3E031DF72B7708F204780868
:10180200F3047908F404760803190800F4170800B1
:10181200A4002408840002300006031D302C650851
:10182200031D202C6408031D202CC3306302031DFA
:101832001E2C51306202031D1E2C031C0800831251
:1018420003132408840083138001800A0030E5001A
:101852000030E4000030E3000030E2000800240819
:1018620084000003031D08006508031D582C64084A
:10187200031D582C6308031D582C0B306202031DF4
:10188200422C0318582C83160313AE010530A8000E
:101892000030A900A8300A128A1504210030E500A0
:1018A2000030E4000030E3000B30E2000800831255
:1018B20003136508031D6A2C6408031D6A2C01309A
:1018C2006302031D682CF5306202031D682C031CA1
:1018D2000800831203136108F9007908F200F3018A
:1018E20060080A128A1598250A128A15A8300A1267
:1018F2008A15422183120313240884008001080000
:10190200A7002708023E840083130008A300840A6C
:101912000008A400840A0008A500840A0008A600A2
:1019220026082504240423040319080027080E3E70
:1019320084000008A3002308F20027080D3E84005B
:1019420000080A168A115A260A128A15013A031D3C
:10195200BD2C8312031327080E3E84000008A30047
:101962002308F200F30127080D3E840000080A1242
:101972008A1598250A128A15831203132708073E2F
:1019820084000008A300840A0008A4002308F200CF
:101992002408F300F401F501220884000008F6008F
:1019A200840A0008F700840A0008F800840A000884
:1019B200F9000A128A15A9220A128A1575087404F6
:1019C20073047204031DF32C27080C3E84000008E4
:1019D200A3002308F70027080B3E840000080A161C
:1019E2008A11DA2683122708023E8400013080021F
:1019F200840A0030031C01308002840A0030031C78
:101A020001308002840A0030031C0130800203305E
:101A120084020800A201F51F1B2DF209F309F40943
:101A2200F509F20A0319F30A0319F40A0319F50A6C
:101A3200A201A20AF91F2C2DF609F709F809F909E2
:101A4200F60A0319F70A0319F80A0319F90A013009
:101A5200A0002008A2060030A6000030A500003039
:101A6200A4000030A30075087404730472040319FF
:101A7200812DA101A10AF51B4C2D0130A0000310FC
:101A8200F20DF30DF40DF50DA00B402D0130A00069
:101A92002008A1073C2D0130A0000310A30DA40DC6
:101AA200A50DA60DA00B4E2D75087902031D632D01
:101AB20074087802031D632D73087702031D632DDA
:101AC20072087602031C742D7208F6027308031C56
:101AD200730FF7027408031C740FF8027508031CD5
:101AE200750FF902231401300310F50CF40CF30CFA
:101AF200F20CFF3E031D752D0130A102031D4C2D7A
:101B0200220803198F2DA309A409A509A609A30A6E
:101B12000319A40A0319A50A0319A60A2608F5003F
:101B22002508F4002408F3002308F2000800F60058
:101B32007608053A031DAE2D0130F400720AA32D7A
:101B42000310F40DFF3E031DA12D7408FF3AF500AA
:101B52007508831603138505212E7608063A031DA0
:101B6200C32D0130F400720AB82D0310F40DFF3EAC
:101B7200031DB62D7408FF3AF5007508831603138A
:101B82008605212E7608073A031DD82D0130F40070
:101B9200720ACD2D0310F40DFF3E031DCB2D7408E8
:101BA200FF3AF5007508831603138705212E760880
:101BB200083A031DED2D0130F400720AE22D0310E4
:101BC200F40DFF3E031DE02D7408FF3AF500750881
:101BD200831603138805212E0130F400720AF32DB7
:101BE2000310F40DFF3E031DF12D7408FF3AF500BA
:101BF2007508831603138905212E0130F400720A39
:101C0200042E0310F40DFF3E031D022E7408F5008E
:101C12007608840075088313800408000130F400FC
:101C2200720A152E0310F40DFF3E031D132E7408C5
:101C3200FF3AF500760884007508831380050800D2
:101C42007308003A03190F2E013A0319FE2D0F2EC5
:101C520008000030C5000030C6000030C700C401D3
:101C620000300A128A15C8200A128A1574088312D3
:101C7200A1007308A0000A168A1146260A128A15C4
:101C82002008A4002108A5002208A6004508A700F4
:101C92004608A8004708A9000A128A115C240A1201
:101CA2008A152408C5002508C6002608C70045086D
:101CB200F2004608F3004708F4000030F500C8308F
:101CC200F6004230F7000A168A1172270A128A15A4
:101CD200031C732E0130C3004308C4070B304402B7
:101CE200031C312E44080A168A1185260A128A1507
:101CF2002008B0002108B1002208B2004508B30054
:101D02004608B4004708B5000A128A15BD260A1211
:101D12008A153008C5003108C6003208C7000030F5
:101D2200B0008030B1004430B2000030A000A030DA
:101D3200A1004030A2004508A3004608A4004708BD
:101D4200A5000A128A11F2260A128A152008B30087
:101D52002108B4002208B5000A128A15BD263008EF
:101D6200C5003108C6003208C7004508C000460851
:101D7200C1004708C20008003308B6003408B700A3
:101D82003508B8000310370D380DB9003908BE0008
:101D92003E08031DD32E0030B0000030B1000030E9
:101DA200B20008003008B6003108B7003208B800A7
:101DB2000310370D380DB9003908BF003F08031D65
:101DC200E92E0030B0000030B1000030B20008004F
:101DD2000030BB000030BC000030BD0089303F073E
:101DE200B6003608BE023508B6003608BF00320813
:101DF200B6003608BF068030B6003608BF05B417F5
:101E0200FF30B305FF30B4050030B505B117FF3020
:101E1200B005FF30B1050030B2051830B600360803
:101E2200BA0001300310BB0DBC0DBD0DFF3E031DFA
:101E3200132F32083502031D242F31083402031DEB
:101E4200242F30083302031C312F3008B30231082B
:101E5200031C310FB4023208031C320AB5023B14D0
:101E620001300310B30DB40DB50DFF3E031D322F2B
:101E72000130BA02031D122F3B08F2003C08F300A6
:101E82003D08F4003E08B6003608F5003F08B700EA
:101E92003708F6000A128A159D237208B0007308EB
:101EA200B1007408B2000800A400240884000530C0
:101EB2000006031DAB2F6508031D8C2F6408031D4C
:101EC2008C2F6308031D8C2F0B306202031D692FB8
:101ED20003188C2F831203136108F9007908F200AA
:101EE200F301F30A60080A128A1598250A128A1564
:101EF200AE01AE0A0530A8000030A900A8300A12CF
:101F02008A1504210030E5000030E4000030E300CF
:101F12000B30E2000800831203136508031D9E2F95
:101F22006408031D9E2F01306302031D9C2FF530B0
:101F32006202031D9C2F031C0800A8300A168A1196
:101F420026260630F9008312031324088400790838
:101F5200800008002408840003300006031D0800E6
:101F62006508031DE12F6408031DE12F6308031DAB
:101F7200E12F0B306202031DBE2F0318E12F8312E3
:101F820003136108F9007908F200F301F30A60080B
:101F92000A128A1598250A128A15AE01AE0A053070
:101FA200A8000030A900A8300A128A1504210030C6
:101FB200E5000030E4000030E3000B30E2000800EE
:101FC200831203136508031DF32F6408031DF32F07
:101FD20001306302031DF12FF5306202031DF12F60
:101FE200031C0800A8300A168A1126260430F900BC
:101FF200831203132408840079088000080010303B
:102002008A000408840A8207003452344534533467
:10201200453454343A3420344F344B340A34003487
:102BDE009F0183169F010730F20072089F040800C0
:102BEE00F200720899000C1EFA2D0C12831698181A
:102BFE000800FD2D9F0183169F0183121F088E3042
:102C0E00F200720883169F040800831203139201C8
:102C1E00121592148B170B1783168C1483128C10AB
:102C2E000800053405340534043405340034063404
:102C3E000034063402340634033406340134F3000F
:102C4E0002307307F2007208840083138001840A35
:102C5E008001840A8001840A800108007E088A00AF
:102C6E007F08820035260A168A118000840A04081D
:102C7E007D0603190034FF0A0319FE0A392E2008B7
:102C8E00F2002108F300F4018E30A3002308F500B2
:102C9E00F6010A128A159D237208A0007308A1007E
:102CAE007408A2000800F400740884000130F300D8
:102CBE00720A632E0310F30DFF3E031D612E73087F
:102CCE008313000503196D2E013008000030080033
:102CDE000230831203136A060319772EFB010800D4
:102CEE007B08031D0800FB01FB0A0030E5000030E5
:102CFE00E4000030E3000030E2000800A7002708DF
:102D0E00A300A401A5012308F2002408F30025085E
:102D1E00F4008E30A6002608F500F6010A128A1578
:102D2E009D237208A0007308A1007408A200080079
:102D3E00F5007508F4007408F600760884000A168B
:102D4E008A1100200A168A11003A0319B32E013097
:102D5E00F4007408F607A42E75087602F200F3014B
:102D6E00F21BF3030800831203136D080319C72E19
:102D7E006D030319C72E0330F2007208EA00080033
:102D8E0002306A06031908006D03031DD02EEA01F6
:102D9E0008006A030319080004306A0603190800C4
:102DAE00EA01EA0A0800F9007708F8007808F2004C
:102DBE0079080A168A115A260A168A11003A031938
:102DCE00F22E7708F8007808F200F30179080A125B
:102DDE008A15982508007708F8007808F200F301A4
:102DEE00F30A79080A128A15982508000734013467
:102DFE000734003409340234093401340034003409
:102E0E0000340034003400340134C8340034073444
:102E1E0003340834003407340234083404340834DC
:102E2E0005340834063408340734053402340534C6
:102E3E000334F400740884000008F200840A0008C9
:102E4E00F30067087306031D2E2F6608720603191A
:102E5E000800740884000008E600840A0008E700F1
:102E6E000130E207003003180130E3070030031889
:102E7E000130E407003003180130E5070800831223
:102E8E000313A20022080A168A119F260A168A1117
:102E9E007308A1007208A000A3012308F700F8012F
:102EAE0078082102031D5D2F77082002031C0800FD
:102EBE002308220784000A168A1100200A168A1196
:102ECE000A168A11F7250A168A110130F7007708BB
:102EDE008312A307542FF41F812F7208003CF200B7
:102EEE007308031C730F003CF3007408031C740F6B
:102EFE00803CF400F71F902F7508003CF500760813
:102F0E00031C760F003CF6007708031C770F803CFD
:102F1E00F7008030F4068030F70677087402031D40
:102F2E00080076087302031D080075087202080077
:102F3E00831603138C1CC02F83128C1CC02F0130E0
:102F4E00E8070318E90A0030E9070130EB07031818
:102F5E00EC0A0030EC0775306C02313003196B024D
:102F6E00031CBD2F0130EB000030EC00DD30910072
:102F7E008C10133083126902883003196802031C07
:102F8E00640071088A00700E8300FE0E7E0E09002A
:102F9E00803083168700243098009030831298007A
:102FAE002708AB002808AC002908AD002A08AE009F
:102FBE0004300310AB0DAC0DAD0DAE0DFF3E031D79
:102FCE00E02F2E08F5002D08F4002C08F3002B0836
:102FDE00F2000130F9003130F8002D30F7000030EA
:102FEE00F6000A128A150B257208FF3E8316990009
:022FFE000800C9
:02400E003E3D35
:00000001FF
