:060000000A128A110C280F
:10000800FE00030EF0000A08F1000A128A15F82A09
:100018000A128A110F288313CD30FD000A30FE0022
:10002800CB30FF00A03084000A128A1559210A1229
:100038008A116430FD000930FE006630FF0052303E
:1000480084000A128A1559210A128A110A128A1181
:10005800FB27FB008316CD01CE01CF01D001D101D2
:10006800D201D301D401D501D6018312E401E501FF
:10007800E601E701E801E901EA01EB01EC01ED0124
:10008800EE01EF01FA0183010A128A119C2DC000CA
:10009800353084000A30FF0083138001840AFF0B87
:1000A80050286D295D08B4003408F200F301F30A02
:1000B8005C080A128A156E270A128A1183125B08D5
:1000C800B4003408F200F3015A080A128A156E27A0
:1000D80008005D08B4003408F200F3015C080A1255
:1000E8008A156E270A128A1183125B08B400340835
:1000F800F200F3015A080A128A156E270A128A11A9
:10010800831240080A128A1514250A128A11B400AB
:100118003408BF0050303F02031C98280230831275
:10012800B4003408EC0008000430B4003408EC00D3
:100138000030E7000030E6000030E5000030E40061
:1001480008005D08B4003408F200F3015C080A12E4
:100158008A156E270A128A1183125B08B4003408C4
:10016800F200F3015A080A128A156E270A128A1138
:100178000030F5000030F4002730F3001030F200B2
:1001880083126708F9006608F8006508F700640834
:10019800F6000A128A155F250A128A117508740476
:1001A80073047204031DDE2840080A128A151425F8
:1001B8000A128A116708031D0F296608031D0F29F3
:1001C8006508031D0F290B306402031DEB28031873
:1001D8000F2983160313C401C40A3230BE0000304D
:1001E800BF00BE300A128A1503240A128A11831628
:1001F800A601A60A3230A0000030A100A0300A12E1
:100208008A1503240030E7000030E6000030E500DE
:100218000B30E400080070308312031364061130B9
:1002280003196506031D3C2966036704031D3C2961
:1002380083160313C4013230BE000030BF00BE3045
:100248000A128A1503240A128A118316A60132306B
:10025800A0000030A100A0300A128A150324003043
:10026800E7000130E6001130E5007130E4000800D5
:10027800831203136708031D4F2902306602031D0A
:100288004D2922306502031D4D29E0306402031D0B
:100298004D29031C0800BE300A128A15EC210A12E7
:1002A8008A1192285D08B4003408F200F3015C0852
:1002B8000A128A156E270A128A1183125B08B40083
:1002C8003408F200F301F30A5A080A128A156E2755
:1002D80008006C08003A03195628013A03196D28DA
:1002E800033A03195629063A0319A5287B29080059
:1002F800AA002A0A840083130008A0002008F2003C
:10030800F3012A08840000080A128A156E270A12C7
:100318008A11023083120313A000A00B9129000058
:10032800831203132A0A840083130008A0002008FC
:10033800F200F301F30A2A08840000080A128A1559
:100348006E270A128A11073083120313A000A00B2C
:10035800AB290000831203132A0A840083130008C0
:10036800A0002008F200F3012A08840000080A12FD
:100378008A156E270A128A1183122A08033E8400FE
:100388000008A0002008F2002A08023E84000008A5
:100398000A128A158C210A128A11003A031DE729CC
:1003A8002A08033E84000008A0002008F2002A085A
:1003B800023E840000080A128A158C210A128A114A
:1003C800003A0319D429770884000008A000840A99
:1003D8000008A1002008A6002108A700A801A9017B
:1003E800831203132A08033E840083130008A00025
:1003F8002008F2002A08023E840000080A128A1522
:100408008C210A128A11003A03193B2A77088400C2
:100418000008A000840A0008A1002008A200210802
:10042800A300A401A5012608A2022708031C270F80
:100438001E2A1F2AA3022808031C280F242A252A5B
:10044800A4022908031C290F2A2A2B2AA5022508F9
:10045800031D3B2A2408031D3B2A01302302031DE8
:10046800392A2D302202031D392A031CF429770862
:1004780084008313000883120313A000840A000871
:10048800A1002008A2002108A300A401A5012608B4
:10049800A2022708031C270F522A532AA30228085E
:1004A800031C280F582A592AA4022908031C290FBB
:1004B8005E2A5F2AA5022508A9002408A8002308A7
:1004C800A7002208A6002908031D762A2808031D6C
:1004D800762A2708031D762A97302602031D742AD8
:1004E800031C802A003083120313A9000030A800DF
:1004F8000030A7000030A600831203132608080066
:100508002408AA002508AB002608AC0003102B0D10
:100518002C0DAD002D08B0002708AA002808AB0054
:100528002908AC0003102B0D2C0DAD002D08AF00D1
:1005380030080319AB2A2F0830020318B22A2F08F3
:10054800AA003008AA0219302A02031CB22A270876
:10055800A4002808A5002908A60008002F080319E8
:10056800080030082F020318C12A3008AA002F08F3
:10057800AA0219302A02031808000630AA002A081D
:10058800AE00A61BAE17A91B2E17A517FF30A40592
:10059800FF30A5050030A605A817FF30A705FF30D6
:1005A800A8050030A9052F0830020318012B0130D7
:1005B8000310A70DA80DA90DFF3E031DDC2A01306D
:1005C800AF022F0830060319FC2A0130AE022E08AC
:1005D80007390319FC2ADB2A01300310A60CA50CE5
:1005E800A40CFF3E031DF12A0130AA002A08B00717
:1005F80030082F0603192A2BF02A30082F02031877
:100608002A2B01300310A40DA50DA60DFF3E031DD6
:10061800062B0130B0022F0830060319262B0130B3
:10062800AE022E0807390319262B052B01300310BB
:10063800A90CA80CA70CFF3E031D1B2B0130AA0018
:100648002A08AF0730082F06031D1A2BAE1F3C2BB4
:10065800FF30A406FF30A506FF30A6060130A40728
:10066800003003180130A507003003180130A60731
:100678002E1F4E2BFF30A706FF30A806FF30A90615
:100688000130A707003003180130A807003003180D
:100698000130A907AE012408A7072508031103188C
:1006A800250A031DA807260803110318260A031D97
:1006B800A907A91F712BFF30A706FF30A806FF3036
:1006C800A9060130A707003003180130A807003039
:1006D80003180130A907AE01AE0A2708F20028085E
:1006E800F3002908F4003008AA002A08F5002E08AB
:1006F800AB002B08F6000A128A15FE257208A40022
:100708007308A5007408A6000800CF005508C900A2
:100718004908F20054080A128A158C210A128A1113
:10072800003A031DA72BC82B033083120313CB00F9
:100738000830CA007630C900C90BA02BCA0BA02B01
:10074800CB0BA02B0000831203135508C9004908DE
:10075800F20054080A128A158C210A128A11003AEA
:10076800031D982B4F08840000080319C62B4F0857
:100778008400023000060319C62B4F08840080014C
:10078800800A1E2C0330192CB830F2000B30F3000D
:10079800480884000008F400840A0008F5000A12DA
:1007A8008A1559230A128A1172087304031D262C0C
:1007B8000A128A11D5260A128A114008CC0041086B
:1007C800CD004208CE004C08F2004D08F3004E0858
:1007D800F4009A30F5009930F6003F30F7000A121D
:1007E8008A159E220A128A11031C112C4F088400B4
:1007F8000530831300060319262C4F0884000630A1
:1008080000060319262C4F08840002300006031D39
:100818000F2C0630192C0530192C4F08840006308F
:1008280083130006031D262C0230C9004F088400DC
:10083800490880000030E7000030E6000030E5009D
:100848000030E4004F08840000080319362C4F08D4
:10085800840000030319362C4F0884000230000678
:10086800031D3B2C4F080A128A156A2608004F08F8
:100878000A128A11F32408002008A6002108A700FC
:100888002208A8000310270D280DA9002908AA008E
:100898002A08031D562C0030A0000030A1000030AB
:1008A800A20008002308A6002408A7002508A8001D
:1008B8000310270D280DA9002908AF002F08031DD4
:1008C8006C2C0030A0000030A1000030A20008000D
:1008D8002F087B3EA6002608AA072208A60026089D
:1008E800AF002508A6002608AF068030A600260817
:1008F800AF05A117A417FF30A305FF30A4050030EA
:10090800A5050030AB000030AC000030AD0007306A
:10091800A6002608AE00201C9F2C2308AB0724083D
:1009280003110318240A031DAC0725080311031833
:10093800250A031DAD0701300310A20CA10CA00C61
:10094800FF3E031DA02C01300310A30DA40DA50D1F
:10095800FF3E031DA82C0130AE02031D8F2C093069
:10096800A6002608AE00201CC72C2308AB072408C5
:1009780003110318240A031DAC07250803110318E3
:10098800250A031DAD0701300310A20CA10CA00C11
:10099800FF3E031DC82C01300310AD0CAC0CAB0C92
:1009A800FF3E031DD02C0130AE02031DB72C2B08CF
:1009B800F2002C08F3002D08F4002A08A6002608E7
:1009C800F5002F08A7002708F6000A128A15FE2549
:1009D8007208A0007308A1007408A2000800A4000F
:1009E8002408840005300006031D482D6708031DF0
:1009F8002A2D6608031D2A2D6508031D2A2D0B3094
:100A08006402031D072D03182A2D8312031363089C
:100A1800F9007908F200F301F30A62080A128A154C
:100A28006E270A128A11B501B50A0530AF000030E9
:100A3800B000AF300A128A1503240030E7000030F6
:100A4800E6000030E5000B30E400080083120313D1
:100A58006708031D3C2D6608031D3C2D0730650201
:100A6800031D3A2DD1306402031D3A2D031C0800E2
:100A7800AF300A128A15EC210630F90083122408D7
:100A880084007908800008002408840003300006E8
:100A9800031D08006708031D7E2D6608031D7E2DB3
:100AA8006508031D7E2D0B306402031D5B2D0318A2
:100AB8007E2D831203136308F9007908F200F3010D
:100AC800F30A62080A128A156E270A128A11B501FA
:100AD800B50A0530AF000030B000AF300A128A15F1
:100AE80003240030E7000030E6000030E5000B305A
:100AF800E4000800831203136708031D902D66089D
:100B0800031D902D07306502031D8E2DD130640220
:100B1800031D8E2D031C0800AF300A128A15EC2124
:100B28000430F90083122408840079088000080042
:100B38000A128A15AB250A128A11831259088316DC
:100B4800D7005708F200F301F30A831258080A1273
:100B58008A156E270A128A116D300A128A154124E5
:100B68000A128A1155088316D7005708F200831213
:100B780054080A128A158C210A128A11013A031D97
:100B8800ED2D8316C401C40A9030BE000130BF00A9
:100B9800BE300A128A1503240A128A11BE300A12BC
:100BA8008A1168270A128A1183160313A601A60A56
:100BB8009030A0000130A100A0300A128A15032449
:100BC8000A128A11A0300A128A1168270A128A1199
:100BD800342E53088316D7005708F20083125208A0
:100BE8000A128A158C210A128A11013A031D222E33
:100BF8008316C4019030BE000130BF00BE300A1217
:100C08008A1503240A128A11BE300A128A1168272B
:100C18000A128A1183160313A6019030A00001302E
:100C2800A100A0300A128A1503240A128A11A030E2
:100C38000A128A1168270A128A11342EBE300A1243
:100C48008A15EC210A128A11AF300A128A15EC2192
:100C58000A128A11A0300A128A15EC210A128A1186
:100C6800831203136A086B040319B02DEA01EB0120
:100C7800B02D3308B6003408B7003508B8000310A3
:100C8800370D380DB9003908BE003E08031D532E34
:100C98000030B0000030B1000030B2000800300869
:100CA800B6003108B7003208B8000310370D380D08
:100CB800B9003908BF003F08031D692E0030B00095
:100CC8000030B1000030B20008000030BB00003036
:100CD800BC000030BD0089303F07B6003608BE02B0
:100CE8003508B6003608BF003208B6003608BF0619
:100CF8008030B6003608BF05B417FF30B305FF30A3
:100D0800B4050030B505B117FF30B005FF30B105A7
:100D18000030B2051830B6003608BA0001300310AA
:100D2800BB0DBC0DBD0DFF3E031D932E32083502D1
:100D3800031DA42E31083402031DA42E30083302EB
:100D4800031CB12E3008B3023108031C310FB40262
:100D58003208031C320AB5023B1401300310B30DEC
:100D6800B40DB50DFF3E031DB22E0130BA02031DAE
:100D7800922E3B08F2003C08F3003D08F4003E08C0
:100D8800B6003608F5003F08B7003708F6000A1223
:100D98008A15FE257208B0007308B1007408B20005
:100DA80008000030C5000030C6000030C700C4018C
:100DB80000300A128A15C7230A128A11740883128E
:100DC800A1007308A0000A128A1578210A128A1154
:100DD8002008A4002108A5002208A6004508A700AD
:100DE8004608A8004708A9000A128A1184220A1294
:100DF8008A112408C5002508C6002608C70045082A
:100E0800F2004608F3004708F4000030F500C83047
:100E1800F6004230F7000A128A159E220A128A1139
:100E2800031C1E2F0130C3004308C4070B304402C3
:100E3800031CDC2E44080A128A15B7210A128A11EB
:100E48002008B0002108B1002208B2004508B3000C
:100E58004608B4004708B5000A128A113D260A124E
:100E68008A113008C5003108C6003208C7000030B2
:100E7800B0008030B1004430B2000030A000A03093
:100E8800A1004030A2004508A3004608A400470876
:100E9800A5000A128A1140240A128A112008B300F8
:100EA8002108B4002208B5000A128A113D2630082C
:100EB800C5003108C6003208C7004508C00046080A
:100EC800C1004708C2000800F7007708023E840006
:100ED8008313000883120313A000840A0008A100EA
:100EE800840A0008A200840A0008A3002308220438
:100EF800210420040319080077080E3E8400000826
:100F0800A0002008F20077080D3E840000080A12AD
:100F18008A158C210A128A11013A031DA42F770819
:100F28000E3E84000008A0002008F200F3017708B4
:100F38000D3E840000080A128A156E270A128A11CB
:100F480077080C3E840000088312A0002008F200F5
:100F5800F30177080B3E840000080A128A156E27F1
:100F68000A128A117708073E84000008F200840AF2
:100F78000008F3000A128A1547210A128A11770815
:100F88000C3E84008313000883120313A00020087A
:100F9800F200F301F30A77080B3E840000080A12F6
:100FA8008A156E270A128A117708073E84000008FE
:100FB800F200840A0008F3000A128A15472177080C
:100FC800023E8400013083138002840A0030031C2F
:100FD80001308002840A0030031C01308002840A38
:100FE8000030031C01308002033084020800023400
:1010000008308A000408840A8207003452344534C8
:101010005334453454343A3420344F344B340A3446
:0210200000349A
:10123C009F0183169F010730F20072089F0408007B
:10124C00F200720899000C1E29290C1283169818AA
:10125C0008002C299F0183169F0183121F088E30D2
:10126C00F200720883169F04080083120313920184
:10127C00121592148B170B1783168C1483128C1067
:10128C00080072087304031908000130F2020030E0
:10129C00031CF303F30252295329000047297E084B
:1012AC008A007F08820055210A128A158000840A60
:1012BC0004087D0603190034FF0A0319FE0A592994
:1012CC000534053405340434053400340634003454
:1012DC000634023406340334053402340534033442
:1012EC00063401342008F2002108F300F4018E309A
:1012FC00A3002308F500F6010A128A15FE257208D0
:10130C00A0007308A1007408A2000800F40074087F
:10131C0084000130F300720A95290310F30DFF3E8F
:10132C00031D932973088313000503199F290130AA
:10133C000800003008000230831203136C060319F6
:10134C00A929FB0108007B08031D0800FB01FB0A0F
:10135C000030E7000030E6000030E5000030E4002B
:10136C000800A7002708A300A401A5012308F20088
:10137C002408F3002508F4008E30A6002608F5009A
:10138C00F6010A128A15FE257208A0007308A10046
:10139C007408A2000800F5007508F4007408F60043
:1013AC00760884000A128A1500200A128A15003A5F
:1013BC000319E5290130F4007408F607D6297508DD
:1013CC007602F200F301F21BF3030800F80002307E
:1013DC007807F7007708840083138001840A800162
:1013EC00840A8001840A800178080E3E840000087B
:1013FC00F7007708F200F301F30A78080D3E840039
:10140C0000080A128A156E270800831203136F084E
:10141C000319182A6F030319182A0330F2007208F3
:10142C00EC00080002306C06031908006F03031D62
:10143C00212AEC0108006C030319080004306C0627
:10144C0003190800EC01EC0A0800F601F701721C04
:10145C00352A7408F6070318F70A7508F7070130E0
:10146C000310F40DF50DFF3E031D362A0130031059
:10147C00F30CF20CFF3E031D3D2A72087304031D8E
:10148C002D2A7708F3007608F2000800F40074089F
:10149C0084000008F200840A0008F300690873064F
:1014AC00031D5A2A68087206031908007408840080
:1014BC000008E800840A0008E9000130E407003065
:1014CC0003180130E507003003180130E60700303F
:1014DC0003180130E707080083120313A200220847
:1014EC000A128A15D1210A128A157308A1007208F2
:1014FC00A000A3012308F700F80178082102031DBE
:10150C00892A77082002031C08002308220784007C
:10151C000A128A1500200A128A150A128A15262127
:10152C000A128A150130F70077088312A307802A64
:10153C00F41FAD2A7208003CF2007308031C730FF1
:10154C00003CF3007408031C740F803CF400F71F7C
:10155C00BC2A7508003CF5007608031C760F003C8D
:10156C00F6007708031C770F803CF7008030F406F8
:10157C008030F70677087402031D080076087302A2
:10158C00031D080075087202080000340034003492
:10159C0000340034003401344B3400340934023448
:1015AC00073400340934013400340034003400347E
:1015BC000034003401345A34003407340334083412
:1015CC000034073402340034003400340034003466
:1015DC00003401345A3400340834063408340534E9
:1015EC0008340734831603138C1C192B83128C1CA0
:1015FC00192B0130EA070318EB0A0030EB07013016
:10160C00ED070318EE0A0030EE0775306E0231302C
:10161C0003196D02031C162B0130ED000030EE0097
:10162C00DD3091008C10133083126B02883003195B
:10163C006A02031C640071088A00700E8300FE0E9F
:10164C007E0E09008030831687002430980090307D
:10165C00831298002708AB002808AC002908AD00BD
:10166C002A08AE0004300310AB0DAC0DAD0DAE0D61
:10167C00FF3E031D392B2E08F5002D08F4002C0815
:10168C00F3002B08F2000130F9003130F8002D3056
:10169C00F7000030F6000A128A15E1267208FF3EA8
:1016AC00831699000800720873040319862BF7013E
:1016BC00F70AF31B6D2B01300310F20DF30DFF3EF7
:1016CC00031D622B0130F6007608F7075F2B7308B9
:1016DC007502031D732B72087402031C7B2B72089A
:1016EC00F4027308031CF503F50201300310F30C2C
:1016FC00F20CFF3E031D7C2B0130F702031D6D2BFA
:10170C007508F3007408F2000800F701F80172087C
:10171C0073040319C22BF901F90AF31BA12B013035
:10172C000310F20DF30DFF3E031D962B0130F60056
:10173C007608F907932B01300310F70DF80DFF3ED7
:10174C00031DA22B73087502031DAE2B72087402C5
:10175C00031CB72B7208F4027308031CF503F50283
:10176C00771401300310F30CF20CFF3E031DB82B61
:10177C000130F902031DA12B7808F3007708F20061
:10178C000800F7000A128A1530210A128A15073050
:10179C00F6007D30F500F50BD12BF60BD12B77082D
:1017AC00F50002300310F50DFF3E031DD82B03107E
:1017BC00750DF6007608831203139F041F1407306F
:1017CC00F6007D30F500F50BE92BF60BE92B8312B7
:1017DC0003131F151F19F02B83169F010730F500FB
:1017EC0075089F04F92BFA2B0000831203131E08B3
:1017FC00F40083161E08F3000800F80078080A3E6F
:10180C008400831300088312A0002008F2007808DB
:10181C00063E84000008A1002108F3007808093E68
:10182C00840000080A128A156E270A128A15780895
:10183C0084000008F200840A0008F3004030F40031
:10184C000630F5000A128A152B2272088312A000AA
:10185C007308A100A201A3017808023E84002008AD
:10186C008000840A21088000840A22088000840AEF
:10187C002308800008008312D10004306C06031981
:10188C00542C6C030319542C5108D0005008C80078
:10189C006F300A128A1189230A128A150A128A15C4
:1018AC000B220A128A1551080A128A114B200A12AD
:1018BC008A150A128A15A1210A128A150A128A158A
:1018CC00CA240A128A15BE300A128A1168270A1213
:1018DC008A15A0300A128A1168270A128A15AF30AD
:1018EC000A128A1168270A128A15831203135108E7
:1018FC000A128A154C220800F8000130F702770A08
:10190C0003190800780A8400831300088312031358
:10191C00A0002008F200F301F30A78088400000804
:10192C000A128A156E270A128A15033083120313C2
:10193C00A2008A30A1005530A000A00BA32CA10B53
:10194C00A32CA20BA32C780A840083130008831207
:10195C000313A0002008F200F301780884000008AB
:10196C000A128A156E270A128A1503308312031382
:10197C00A2008A30A1005530A000A00BC32CA10BF3
:10198C00C32CA20BC32C832C7B03031D08006708FC
:10199C00031DF12C6608031DF12C6508031DF12CA9
:1019AC0006306402031DDA2C0318F12C8312031386
:1019BC005908F7007708F200F30158080A128A1543
:1019CC006E2700308312E7000030E6000030E5009F
:1019DC000630E4000800831203136708031D032D6F
:1019EC006608031D032D4E306502031D012D2030AA
:1019FC006402031D012D031C0800831203135908F4
:101A0C00F7007708F200F301F30A58080A128A1556
:101A1C006E270230F7007708FB000800AE00B20119
:101A2C00B301B101B1012E08AB002B08F7005E30F9
:101A3C000A128A117C210A128A15AC00AD0103101E
:101A4C002C0DAF002D0DB000003030028D3003197D
:101A5C002F02031C332D2F0808002F08B207031880
:101A6C00B30A3008B3070130AB002B08B1070B30B9
:101A7C003102031C192D3108AB00AC012B08F2000C
:101A8C002C08F3003308F5003208F4000A128A150A
:101A9C008B230A128A157308B3007208B20032083D
:101AAC003304031D5D2D9630B2000030B3003208B4
:101ABC00080075087404730472040319A22DA101A3
:101ACC00A10AF51B772D0130A0000310F20DF30DC8
:101ADC00F40DF50DA00B6B2D0130A0002008A10713
:101AEC00672D75087902031D852D74087802031D76
:101AFC00852D73087702031D852D72087602031C51
:101B0C00952D7208F6027308031C730FF702740804
:101B1C00031C740FF8027508031C750FF9020130D1
:101B2C000310F50CF40CF30CF20CFF3E031D962D78
:101B3C000130A102031D772D7908F5007808F40017
:101B4C007708F3007608F20008000530AF002F0884
:101B5C00F70062300A128A1582240A128A150A12B8
:101B6C008A153B210A128A150A128A151E210A129D
:101B7C008A1500308312AA000030A9002530A80075
:101B8C008030A7000A128A1528230A128A150D30F4
:101B9C0083120313B100AF30B000B530AF00AF0B00
:101BAC00D52DB00BD52DB10BD52DDC2D01300A1256
:101BBC008A1572220A128A155B08AF002F08F200F0
:101BCC00F3015A080A128A156E270A128A15BE30BA
:101BDC000A128A15EC210A128A15A0300A128A15EB
:101BEC00EC210A128A15AF300A128A15EC21080072
:101BFC0075080319062E740873047204031D192E3C
:101C0C000030F2000030F3000030F4000800013026
:101C1C00F7007708F50701300310F40CF30CF20C05
:101C2C00FF3E031D122EFE3074050319342E0D2EAB
:101C3C000130F7007708F5070130F2070030031880
:101C4C000130F307003003180130F40701300310A2
:101C5C00F40CF30CF20CFF3E031D2D2EFF3074051B
:101C6C000319472E1E2E02307502031C492E01301B
:101C7C00F50201300310F20DF30DF40DFF3E031DC0
:101C8C00402EF31F392E7518512EFF30F2057F3080
:101C9C00F305FF30F4050310F50C7508F700F80197
:101CAC00F90110300310F70DF80DF90DFF3E031D6F
:101CBC00582E7708F2047808F3047908F4047608AF
:101CCC0003190800F4170800A4002408840002304B
:101CDC000006031D912E6708031D812E6608031D47
:101CEC00812EEA306502031D7F2E61306402031DD4
:101CFC007F2E031C08008312031324088400831313
:101D0C008001800A0030E7000030E6000030E5007A
:101D1C000030E4000800240884000003031D0800C0
:101D2C006708031DB92E6608031DB92E6508031D2F
:101D3C00B92E0B306402031DA32E0318B92E831683
:101D4C000313B5010530AF000030B000AF300A12FC
:101D5C008A1503240030E7000030E6000030E5006F
:101D6C000B30E4000800831203136708031DCB2E0D
:101D7C006608031DCB2E07306502031DC92ED1301A
:101D8C006402031DC92E031C08008312031363088D
:101D9C00F9007908F200F30162080A128A156E271D
:101DAC000A128A15AF300A128A15EC218312240804
:101DBC00840080010800A201F51FF12EF209F3093D
:101DCC00F409F509F20A0319F30A0319F40A0319C1
:101DDC00F50AA201A20AF91F022FF609F709F80960
:101DEC00F909F60A0319F70A0319F80A0319F90A8B
:101DFC000130A0002008A2060030A6000030A5008B
:101E0C000030A4000030A30075087404730472043D
:101E1C000319572FA101A10AF51B222F0130A00095
:101E2C000310F20DF30DF40DF50DA00B162F013070
:101E3C00A0002008A107122F0130A0000310A30D51
:101E4C00A40DA50DA60DA00B242F75087902031D5A
:101E5C00392F74087802031D392F73087702031D7C
:101E6C00392F72087602031C4A2F7208F602730887
:101E7C00031C730FF7027408031C740FF802750827
:101E8C00031C750FF902231401300310F50CF40C2C
:101E9C00F30CF20CFF3E031D4B2F0130A102031D6E
:101EAC00222F22080319652FA309A409A509A60945
:101EBC00A30A0319A40A0319A50A0319A60A2608DA
:101ECC00F5002508F4002408F3002308F2000800AC
:101EDC00F6007608053A031D842F0130F400720ACF
:101EEC00792F0310F40DFF3E031D772F7408FF3A72
:101EFC00F5007508831603138505F72F7608063A47
:101F0C00031D992F0130F400720A8E2F0310F40D6B
:101F1C00FF3E031D8C2F7408FF3AF50075088316DD
:101F2C0003138605F72F7608073A031DAE2F0130F1
:101F3C00F400720AA32F0310F40DFF3E031DA12F12
:101F4C007408FF3AF5007508831603138705F72FFD
:101F5C007608083A031DC32F0130F400720AB82F1B
:101F6C000310F40DFF3E031DB62F7408FF3AF50065
:101F7C007508831603138805F72F0130F400720AD5
:101F8C00C92F0310F40DFF3E031DC72F7408FF3A31
:101F9C00F5007508831603138905F72F0130F4003B
:101FAC00720ADA2F0310F40DFF3E031DD82F7408AC
:101FBC00F50076088400750883138004080001304E
:101FCC00F400720AEB2F0310F40DFF3E031DE92FF2
:101FDC007408FF3AF50076088400750883138005B1
:101FEC0008007308003A0319E52F013A0319D42F9E
:041FFC00E52F0800C5
:02400E003E3D35
:00000001FF
