:060000000A128A110C280F
:10000800FE00030EF0000A08F1000A128A11892B7B
:100018000A128A110F288313BE30FD000430FE0037
:100028006730FF00A03084000A128A11BB240A122C
:100038008A114830FD000330FE00B930FF0020303F
:1000480084000A128A11BB240A128A1148308400DB
:100058005D300A128A11EC24FA01FB0183010A12AD
:100068008A11E029F7007708023E84000008DD00C5
:10007800840A0008DE00840A0008DF00840A0008F9
:10008800E00060085F045E045D0403190800770857
:100098000E3E84000008DD005D08F20077080D3E82
:1000A800840000080A128A11A3240A128A11013A4C
:1000B800031D6F2877080E3E84000008DD005D08E8
:1000C800F200F30177080D3E840000080A128A1135
:1000D80053210A128A1177080C3E84000008831203
:1000E800DD005D08F200F30177080B3E840000088C
:1000F8000A128A1153210A128A117708073E8400CE
:100108000008F200840A0008F3000A128A11C824C1
:100118000A128A1177080C3E8400831300088312A0
:100128000313DD005D08F200F301F30A77080B3EC4
:10013800840000080A128A1153210A128A117708CA
:10014800073E84000008F200840A0008F3000A123F
:100158008A11C8247708023E840001308313800284
:10016800840A0030031C01308002840A0030031C1A
:1001780001308002840A0030031C01308002033001
:1001880084020800DF01F51FD628F209F309F409F3
:10019800F509F20A0319F30A0319F40A0319F50A0F
:1001A800DF01DF0AF91FE728F609F709F809F90955
:1001B800F60A0319F70A0319F80A0319F90A0130AC
:1001C800DD005D08DF060030E3000030E2000030AB
:1001D800E1000030E0007508740473047204031928
:1001E8003C29DE01DE0AF51B07290130DD0003107A
:1001F800F20DF30DF40DF50DDD0BFB280130DD00DC
:100208005D08DE07F7280130DD000310E00DE10D81
:10021800E20DE30DDD0B092975087902031D1E297E
:1002280074087802031D1E2973087702031D1E290E
:1002380072087602031C2F297208F6027308031C41
:10024800730FF7027408031C740FF8027508031C77
:10025800750FF902601401300310F50CF40CF30C5F
:10026800F20CFF3E031D30290130DE02031D072971
:100278005F0803194A29E009E109E209E309E00AEC
:100288000319E10A0319E20A0319E30A6308F500EE
:100298006208F4006108F3006008F2000800F60044
:1002A8007608053A031D68290130F400720A5E29B0
:1002B8000310F40DFF3E031D5C297408FF3AF50096
:1002C800750883168505D7297608063A031D7C2903
:1002D8000130F400720A72290310F40DFF3E031D69
:1002E80070297408FF3AF500750883168605D72922
:1002F8007608073A031D90290130F400720A86290E
:100308000310F40DFF3E031D84297408FF3AF5001D
:10031800750883168705D7297608083A031DA42986
:100328000130F400720A9A290310F40DFF3E031DF0
:1003380098297408FF3AF500750883168805D729A7
:100348000130F400720AAA290310F40DFF3E031DC0
:10035800A8297408FF3AF500750883168905D72976
:100368000130F400720ABA290310F40DFF3E031D90
:10037800B8297408F500760884007508831380048A
:1003880008000130F400720ACB290310F40DFF3E77
:10039800031DC9297408FF3AF5007608840075081A
:1003A8008313800508007308003A0319C529013A28
:1003B8000319B429C52908000A128A1159220A12F8
:1003C8008A1183122D08EF006F08F200F301F30A77
:1003D8002C080A128A1153210A128A1190308312AA
:1003E800B3000130B4002C30BA000130BB00333008
:1003F8000A128A11EB220A128A1190308316A00081
:100408000130A1009030A7000130A800A0300A12E6
:100418008A11EB220A128A112708EF006F08F200EE
:1004280026080A128A11A3240A128A11013A031D06
:10043800442AB901B90A9030B3000130B40033300E
:100448000A128A11EB220A128A1133300A128A110F
:1004580036200A128A1183160313A601A60A9030C1
:10046800A0000130A100A0300A128A11EB220A1262
:100478008A11A0300A128A1136200A128A11502ACB
:1004880033300A128A1185240A128A11A0300A12FE
:100498008A1185240A128A118312031358085904F1
:1004A8000319102AD801D901102A0530EC006C086C
:1004B800F70046300A128A11A3220A128A110A1278
:1004C8008A11D6240A128A110A128A11F4240A12ED
:1004D8008A1100308312E7000030E6002530E5007D
:1004E8008030E4000A128A1128230A128A110D307A
:1004F80083120313EE00AF30ED00B530EC00EC0BC7
:10050800832AED0B832AEE0B832A8A2A0130F60010
:100518008030F7000A128A1159230A128A112F080B
:10052800EC006C08F200F3012E080A128A1153211C
:100538000A128A1133300A128A1185240800F80039
:100548000130F702770A03190800780A8400831338
:10055800000883120313DD005D08F200F301F30ABB
:100568007808840000080A128A1153210A128A1195
:10057800033083120313DF008A30DE005530DD00BC
:10058800DD0BC42ADE0BC42ADF0BC42A780A8400D8
:100598008313000883120313DD005D08F200F301E2
:1005A8007808840000080A128A1153210A128A1155
:1005B800033083120313DF008A30DE005530DD007C
:1005C800DD0BE42ADE0BE42ADF0BE42AA42AF80078
:1005D80078080A3E840000088312DD005D08F200F6
:1005E8007808063E84000008DE005E08F3007808FC
:1005F800093E840000080A128A1153210A128A113E
:10060800780884000008F200840A0008F3004030EB
:10061800F4000630F5000A128A1146247208831283
:10062800DD007308DE00DF01E0017808023E840087
:100638005D088000840A5E088000840A5F088000E4
:10064800840A600880000800803083168700243000
:1006580098009030831298006408E8006508E90063
:100668006608EA006708EB0004300310E80DE90D9E
:10067800EA0DEB0DFF3E031D392B6B08F5006A08E8
:10068800F4006908F3006808F2000130F90031301D
:10069800F8002D30F7000030F6000A128A11C62043
:1006A8007208FF3E8316990008007608F200770862
:1006B800F3000A128A1124240A128A117308DE0030
:1006C8007208DD00DF015F08F800F90179085E02B1
:1006D800031D702B78085D02031C08005F0876076D
:1006E800840077080318770AFF000A128A11002489
:1006F8000A128A110A128A11E2240A128A11013096
:10070800F80078088312DF07672B831603138C1C05
:10071800AA2B83128C1CAA2B0130D8070318D90ADC
:100728000030D9070130DA070318DB0A0030DB078D
:1007380075305B02313003195A02031CA72B0130B4
:10074800DA000030DB00DD3091008C1013308312AA
:100758005902883003195802031C640071088A0082
:10076800700E8300FE0E7E0E090006340434063433
:1007780005340534053405340434053401340534AE
:1007880000340634003406340234063403340234A8
:1007980000340034003400340034003401342C3484
:1007A8000134083406340834053408340734053471
:0A07B8000234053403340634013422
:10080000FF1B0A2C83137F1883170008840A03191F
:10081000FF0A080004308A000408840A82070034B2
:10082000523445345334453454343A3420344F34FC
:100830004B340A34003443343A342534643463345A
:100840006D340A34003400347208F4007308F50083
:10085000750883120313FF00740884000A128A11BA
:1008600000240A128A11003A03193D2C0130F407C2
:100870000318F50A0030F507282C72087402F200FC
:100880007308031C730A7502F3000800F601F701F0
:10089000721C502C7408F6070318F70A7508F7073E
:1008A00001300310F40DF50DFF3E031D512C0130F6
:1008B0000310F30CF20CFF3E031D582C7208730456
:1008C000031D482C7708F3007608F2000800003476
:1008D0000034003400340034003401342C3401344A
:1008E000093402340734003409340134003400344C
:1008F000003400340034003401342C340134073423
:1009000003340834003407340234F8000230780726
:10091000F700770884008001840A8001840A80013E
:10092000840A800178080E3E84000008F7007708EA
:10093000F200F301F30A78080D3E840000080A1261
:100940008A1153210800F400740884000130F30078
:10095000720AAC2C0310F30DFF3E031DAA2C730882
:1009600000050319B52C01300800003008007E088E
:100970008A007F088200B7240A128A118000840A44
:1009800004087D0603190034FF0A0319FE0ABB2C74
:1009900072087304031908000130F2020030031CCE
:1009A000F303F302D32CD42C0000C82C83120313BE
:1009B0009201121592148B170B1783168C14831245
:1009C0008C100800F200720899000C1EE52C0C1225
:1009D000831698180800E82C64008001840A040635
:1009E000031900340406ED2C9F0183169F01073084
:0809F000F20072089F040800E8
:02400E003E3D35
:00000001FF
