:060000000A128A110C280F
:10000800FE00030EF0000A08F1000A128A11E52E1C
:100018000A128A110F288313B830FD000730FE003A
:100028009E30FF00A03084000A128A11CF270A12DE
:100038008A116530FD000730FE008030FF00473030
:1000480084000A128A11CF270A128A110A128A1109
:10005800FA270A128A11FA000A128A11FB27FB00F2
:100068008316B801B901BA01BB01BC01BD01BE01CB
:10007800BF01C001C1018312E501E601E701E80102
:10008800E901EA0183010A128A11122FC100C00195
:10009800363084000A30FF0083138001840AFF0B86
:1000A80050284E08B3003308F2004D080A128A118E
:1000B800B6270A128A11003A031D722881280330D4
:1000C80083120313B5000830B4007630B300B30BC5
:1000D8006B28B40B6B28B50B6B2800008312031335
:1000E8004E08B3003308F2004D080A128A11B627E9
:1000F8000A128A11003A031D63280030F500013006
:10010800F4008630F300A030F200410884000008B3
:10011800F600840A0008F700840A0008F800840A38
:100128000008F9000A128A1128250A128A1175088E
:10013800031DCD287408031DCD28C3307302031D89
:10014800A92851307202031DA9280318CD2883124B
:1001580003135808B3003308F20057080A128A112B
:10016800B6270A128A11003A0319EE2857300A12E4
:100178008A115B260A128A11B0300A128A115B268C
:100188000A128A11A8300A128A115B260A128A11E9
:10019800EE28831203135A08B3003308F2005908F3
:1001A8000A128A11B6270A128A11003A0319EE2890
:1001B80057300A128A11B8260A128A11B0300A1268
:1001C8008A11B8260A128A11A8300A128A11B8268A
:1001D8000A128A110030F5000030F4007530F3007F
:1001E8003030F2008312410884000008F600840AC7
:1001F8000008F700840A0008F800840A0008F900DB
:100208000A128A1128250A128A110030F5000030D6
:10021800F4001330F3008830F2004108840000082D
:10022800F600840A0008F700840A0008F800840A27
:100238000008F9000A128A1128250A128A1175087D
:10024800031D08007408031D08007308031D080037
:1002580065307202031D3029031808008312031346
:100268004108B3003308F7005F300A128A1194215D
:100278000A128A11B4003408C2004208B3003307D6
:10028800B4003408C200420803198A291630B300A2
:100298003308A6004208B400B5013408A7003508A1
:1002A800A80036300A128A1165220A128A113630DD
:1002B800F6000030F7003630F2000030F3000A1282
:1002C8008A115F270A128A117308F9007208F80068
:1002D8000A128A113B270A128A1150304202031867
:1002E80080295608B3003308F200F301F30A5508D1
:1002F8000A128A114C2408005608B3003308F20089
:10030800F30155080A128A114C2408005608B30054
:100318003308F200F30155080A128A114C24080028
:10032800A800280A840083130008A0002008F2000F
:10033800F3012808840000080A128A114C240A12C2
:100348008A11023083120313A000A00BA929000010
:1003580083120313280A840083130008A0002008CE
:10036800F200F301F30A2808840000080A128A112F
:100378004C240A128A11073083120313A000A00B21
:10038800C329000083120313280A8400831300087A
:10039800A0002008F200F3012808840000080A12CF
:1003A8008A114C240A128A1183122808033E8400F9
:1003B8000008A0002008F2002808023E8400000877
:1003C8000A128A11B6270A128A11003A031DFF2958
:1003D8002808033E84000008A0002008F20028082E
:1003E800023E840000080A128A11B6270A128A11EE
:1003F800003A0319EC29770884000008A400840A4D
:100408000008A500840A0008A600840A0008A700BE
:100418002808033E84000008A0002008F2002808ED
:10042800023E840000080A128A11B6270A128A11AD
:10043800003A031D0C2A770884000008A000840AEB
:100448000008A100840A0008A200840A0008A3008A
:100458002408A0022508031C250F332A342AA102E8
:100468002608031C260F392A3A2AA2022708031C49
:10047800270F3F2A402AA3022308A7002208A60024
:100488002108A5002008A4002708031D572A2608CC
:10049800031D572A2508031D572A97302402031DD8
:1004A800552A031C612A003083120313A700003069
:1004B800A6000030A5000030A4008312031324080E
:1004C8000800B1002730A9002908AC000130A607B0
:1004D800FF30260784000A128A1194260A128A110C
:1004E800A9002908B200320803192C2B253032063E
:1004F80003198A2A3208A9003108840029088313BD
:1005080080000130A9002908B1076A2AAD0101302D
:10051800A607FF30260784000A128A1194260A12B9
:100528008A11B200003A03192C2B643A0319A02A45
:100538000D3A0319A02A6A2A2C088400831300089C
:10054800AF00840A0008B0000230A9002908AC07EF
:10055800B01FB72A0330A9002908AD04AF09B009B4
:10056800AF0A0319B00AB201B20A3208A900290772
:10057800013E84000A128A1194260A128A11AA00DE
:100588000A128A1194260A128A11AB002B0830022B
:10059800031DD02A2A082F02031CDA2A0130A900D9
:1005A8002908B20705303206031DB92A2D08033978
:1005B8000319E92A2D30A90031088400290883137A
:1005C80080000130A9002908B1073208A9002908CC
:1005D800AE00FF30A9002908AE072E0A03196A2ABF
:1005E8000A30A0000030A1002E08A9002907013E0A
:1005F80084000A128A1194260A128A11F2000A1239
:100608008A1194260A128A11F3003008F5002F087F
:10061800F4000A128A11BC250A128A117308A30071
:100628007208A2000A128A11F8250A128A112008F3
:10063800303EAA002A08B2003208A9003108840016
:100648002908831380000130A9002908B107ED2A81
:1006580031088400831380010800A0002008053EAB
:1006680084000008F7007708F200F3012008043E30
:10067800840000080A128A114C240A128A11831273
:100688002008073E84000008F7007708F200F3010D
:100698002008063E840000080A128A114C240A1217
:1006A8008A118230F800DD30F700F70B592BF80B70
:1006B800592B5E2B83120313200A8400831300082E
:1006C800F7007708F200F301F30A20088400000815
:1006D8000A128A114C240A128A1183122008033E36
:1006E80084000008F7007708F200F301F30A2008F5
:1006F800023E840000080A128A114C240A128A1148
:100708008230F800DD30F700F70B882BF80B882BC8
:100718008D2B83120313200A840083130008F7002B
:100728007708F200F3012008840000080A128A11F1
:100738004C240A128A1183122008033E8400000800
:10074800F7007708F200F3012008023E8400000851
:100758000A128A114C240A128A110B30F900263029
:10076800F8005D30F700F70BB72BF80BB72BF90B38
:10077800B72BBE2B0800A201F51FCF2BF209F309F6
:10078800F409F509F20A0319F30A0319F40A03191B
:10079800F50AA201A20AF91FE02BF609F709F809E0
:1007A800F909F60A0319F70A0319F80A0319F90AE5
:1007B8000130A0002008A2060030A6000030A500E5
:1007C8000030A4000030A300750874047304720498
:1007D8000319352CA101A10AF51B002C0130A0003A
:1007E8000310F20DF30DF40DF50DA00BF42B0130F1
:1007F800A0002008A107F02B0130A0000310A30DD2
:10080800A40DA50DA60DA00B022C75087902031DD9
:10081800172C74087802031D172C73087702031D20
:10082800172C72087602031C282C7208F60273082B
:10083800031C730FF7027408031C740FF802750881
:10084800031C750FF902231401300310F50CF40C86
:10085800F30CF20CFF3E031D292C0130A102031DED
:10086800002C22080319432CA309A409A509A609E9
:10087800A30A0319A40A0319A50A0319A60A260834
:10088800F5002508F4002408F3002308F200080006
:10089800F6007608053A031D612C0130F400720A4F
:1008A800572C0310F40DFF3E031D552C7408FF3A16
:1008B800F500750883168505D02C7608063A031DC1
:1008C800752C0130F400720A6B2C0310F40DFF3EF6
:1008D800031D692C7408FF3AF50075088316860510
:1008E800D02C7608073A031D892C0130F400720ACF
:1008F8007F2C0310F40DFF3E031D7D2C7408FF3A76
:10090800F500750883168705D02C7608083A031D6C
:100918009D2C0130F400720A932C0310F40DFF3E55
:10092800031D912C7408FF3AF50075088316880595
:10093800D02C0130F400720AA32C0310F40DFF3EF2
:10094800031DA12C7408FF3AF50075088316890564
:10095800D02C0130F400720AB32C0310F40DFF3EC2
:10096800031DB12C7408F5007608840075088313FC
:10097800800408000130F400720AC42C0310F40D3E
:10098800FF3E031DC22C7408FF3AF5007608840068
:1009980075088313800508007308003A0319BE2CF4
:1009A800013A0319AD2CBE2C08007B08AF002F08B4
:1009B800F200F301F30A7A080A128A114C240A1287
:1009C8008A1105308312AF002F08F70063300A122E
:1009D8008A1174250A128A110A128A11DC270A124E
:1009E8008A110A128A11F2270A128A110030831218
:1009F800AA000030A9002530A8008030A7000A12FC
:100A08008A112A260A128A110B30F6008030F70064
:100A18000B30F2008030F3000A128A115F270A12A5
:100A28008A117308F9007208F8000A128A113B2724
:100A38000A128A117B08AF002F08F200F3017A0826
:100A48000A128A114C24080075087404730472048D
:100A580003196B2DA101A10AF51B402D0130A0003F
:100A68000310F20DF30DF40DF50DA00B342D01302C
:100A7800A0002008A107302D75087902031D4E2D0E
:100A880074087802031D4E2D73087702031D4E2D3E
:100A980072087602031C5E2D7208F6027308031CA6
:100AA800730FF7027408031C740FF8027508031C0F
:100AB800750FF90201300310F50CF40CF30CF20C6D
:100AC800FF3E031D5F2D0130A102031D402D790853
:100AD800F5007808F4007708F3007608F2000800BB
:100AE800F8000130F702770A03190800780A840031
:100AF8008313000883120313A0002008F200F301F7
:100B08007808840000080A128A114C240A128A11F3
:100B1800033083120313A2008A30A1005530A000CD
:100B2800A00B942DA10B942DA20B942D780A840070
:100B38008313000883120313A0002008F200F301B6
:100B4800F30A7808840000080A128A114C240A1251
:100B58008A11033083120313A2008A30A100553092
:100B6800A000A00BB52DA10BB52DA20BB52D752D91
:100B7800F701F801720873040319F32DF901F90A52
:100B8800F31BD22D01300310F20DF30DFF3E031DB0
:100B9800C72D0130F6007608F907C42D013003107F
:100BA800F70DF80DFF3E031DD32D73087502031DC5
:100BB800DF2D72087402031CE82D7208F402730812
:100BC800031CF503F502771401300310F30CF20C43
:100BD800FF3E031DE92D0130F902031DD22D7808CF
:100BE800F3007708F2000800200821040319252ED5
:100BF800A501A50AA11B0C2E01300310A00DA10D03
:100C0800FF3E031D012E0130A4002408A507FE2D78
:100C180021082302031D122E20082202031C1A2E6B
:100C28002008A2022108031CA303A3020130031019
:100C3800A10CA00CFF3E031D1B2E0130A502031DB5
:100C48000C2E2308A1002208A0000800803083167B
:100C58008700243098009030831298002708AB0052
:100C68002808AC002908AD002A08AE00043003109B
:100C7800AB0DAC0DAD0DAE0DFF3E031D3B2E2E088A
:100C8800F5002D08F4002C08F3002B08F2000130C1
:100C9800F9003130F8002D30F7000030F6000A1264
:100CA8008A11BF237208FF3E831699000800831239
:100CB800A20022080A128A1131230A128A11831209
:100CC80003132208033E840083130008A1002108AF
:100CD800F200F301F30A2208023E840000080A1217
:100CE8008A114C240A128A1183122208073E8400B2
:100CF8000008A1002108F200F301F30A2208063EC9
:100D0800840000080A128A114C240800FF1B942E44
:100D180083137F1883170008840A0319FF0A080041
:100D280006308A000408840A82070034013400343B
:100D38000A34003464340034E8340334103427347B
:100D4800523445345334453454343A3420344F34CF
:100D58004B340A34003444343A342534643463342C
:100D68006D340A34003400348312A20022080A12B7
:100D78008A1131230A128A1183120313220A84006A
:100D880083130008A1002108F200F301F30A2208E6
:100D9800840000080A128A114C240A128A1183124C
:100DA8002208053E84000008A1002108F200F30192
:100DB800F30A2208043E840000080A128A114C240F
:100DC8000800831603138C1C032F83128C1C032F1B
:100DD8000130E5070318E60A0030E6070130E707A7
:100DE800003003180130E807003003180130E90724
:100DF800003003180130EA07E13091008C101330FD
:100E080083126602883003196502031C64007108A6
:100E18008A00700E8300FE0E7E0E09000030C600A8
:100E28000030C5000030C4000030C3000A128A1127
:100E3800D9240A128A1183126A084606031D2E2F26
:100E480069084506031D2E2F68084406031D2E2F2A
:100E58006708430603191F2F67300A128A114A20B0
:100E68000A128A1183120313E501E6011F2FA2015A
:100E7800A2012208A000A10121087902031D462F22
:100E880020087802031C08002208760784007708E7
:100E98000318770AFF000A128A118A260A128A1191
:100EA8000A128A11E8270A128A1101308312A00057
:100EB8002008A2073D2F7208F4007308F500750892
:100EC8008312FF00740884000A128A118A260A1203
:100ED8008A11003A0319772F0130F4070318F50A2D
:100EE8000030F507632F72087402F2007308031CC0
:100EF800730A7502F3000800063404340634053416
:100F0800053405340534043405340134053400341B
:100F18000634003406340334083404340834053401
:100F280008340634083407340534023405340334ED
:100F380006340134073404340734053407340634DE
:100F480007340734073401340734003409340234D1
:100F580009340134083401340834003407340334C4
:100F680007340234F400740884000130F300720A74
:100F7800BF2F0310F30DFF3E031DBD2F730883130E
:100F880000050319C92F01300800003008007E0849
:100F98008A007F088200CB270A128A118000840AFF
:100FA80004087D0603190034FF0A0319FE0ACF2F2F
:100FB800831203139201121592148B170B178316C1
:100FC8008C1483128C100800F200720899000C1E11
:100FD800EB2F0C12831698180800EE2F9F0183162A
:100FE8009F010730F20072089F040800063402349B
:02400E003E3D35
:00000001FF
