:100000000A128A110C280234FE00030EF0000A08BE
:10001000F1000A128A15AC2A0A128A110F288313DA
:10002000D130FD000B30FE000D30FF00A030840009
:100030000A128A154C210A128A116230FD00093019
:10004000FE003A30FF00543084000A128A154C2119
:100050000A128A110A128A110320FB008316D101A9
:10006000D201D301D401D501D601D701D801D901DC
:10007000DA018312E201E301E401E501E601E701AF
:10008000E801E901EA01EB01EC01ED01FA0183016C
:100090000A128A11F92CC000353084000A30FF00A2
:1000A00083138001840AFF0B502873295F08B40072
:1000B0003408F200F301F30A5E080A128A15DB26FF
:1000C0000A128A1183125D08B4003408F200F301A9
:1000D0005C080A128A15DB2608005F08B4003408A1
:1000E000F200F3015E080A128A15DB260A128A1151
:1000F00083125D08B4003408F200F3015C080A12B0
:100100008A15DB260A128A11831240080A128A1500
:10011000F8240A128A11B4003408BF0050303F029C
:10012000031C982802308312B4003408EA00080047
:100130000430B4003408EA000030E5000030E40088
:100140000030E3000030E20008005F08B40034082B
:10015000F200F3015E080A128A15DB260A128A11E0
:1001600083125D08B4003408F200F3015C080A123F
:100170008A15DB260A128A110030F5000030F400DF
:100180002730F3001030F20083126508F90064088C
:10019000F8006308F7006208F6000A128A15432582
:1001A0000A128A117508740473047204031DDE2890
:1001B00040080A128A15F8240A128A116508031DDC
:1001C0000F296408031D0F296308031D0F290B3035
:1001D0006202031DEB2803180F2983160313C401C1
:1001E000C40A3F30BE000030BF00BE300A128A157C
:1001F000E8230A128A118316A601A60A3F30A0003E
:100200000030A100A0300A128A15E8230030E50072
:100210000030E4000030E3000B30E20008007030F2
:10022000831203136206113003196306031D3C2970
:1002300064036504031D3C2983160313C4013F3086
:10024000BE000030BF00BE300A128A15E8230A1231
:100250008A118316A6013F30A0000030A100A03013
:100260000A128A15E8230030E5000130E40011305D
:10027000E3007130E2000800831203136508031DD8
:100280004F2902306402031D4D2922306302031DF1
:100290004D29E0306202031D4D29031C0800BE30C9
:1002A0000A128A15CD210A128A11A0300A128A1563
:1002B000CD210A128A1192285F08B4003408F20096
:1002C000F3015E080A128A15DB260A128A118312CC
:1002D0005D08B4003408F200F301F30A5C080A1266
:1002E0008A15DB2608006A08003A03195628013AE5
:1002F00003196D28033A03195C29063A0319A52846
:1003000081290800AA002A0A840083130008A0009B
:100310002008F200F3012A08840000080A128A1556
:10032000DB260A128A11023083120313A000A00BED
:1003300097290000831203132A0A840083130008FC
:10034000A0002008F200F301F30A2A088400000844
:100350000A128A15DB260A128A1107308312031348
:10036000A000A00BB1290000831203132A0A840005
:1003700083130008A0002008F200F3012A0884007B
:1003800000080A128A15DB260A128A1183122A082B
:10039000033E84000008A0002008F2002A08023E64
:1003A000840000080A128A156D210A128A11003A87
:1003B000031DED292A08033E84000008A000200840
:1003C000F2002A08023E840000080A128A156D21F4
:1003D0000A128A11003A0319DA2977088400000802
:1003E000A000840A0008A1002008A6002108A70098
:1003F000A801A901831203132A08033E8400831372
:100400000008A0002008F2002A08023E840000082C
:100410000A128A156D210A128A11003A0319412A1B
:10042000770884000008A000840A0008A1002008C2
:10043000A2002108A300A401A5012608A202270802
:10044000031C270F242A252AA3022808031C280F8F
:100450002A2A2B2AA4022908031C290F302A312A10
:10046000A5022508031D412A2408031D412A013045
:100470002302031D3F2A2D302202031D3F2A031CA5
:10048000FA29770884008313000883120313A0005D
:10049000840A0008A1002008A2002108A300A401EA
:1004A000A5012608A2022708031C270F582A592A4B
:1004B000A3022808031C280F5E2A5F2AA402290829
:1004C000031C290F642A652AA5022508A90024080F
:1004D000A8002308A7002208A6002908031D7C2ADB
:1004E0002808031D7C2A2708031D7C2A9730260232
:1004F000031D7A2A031C862A003083120313A900E5
:100500000030A8000030A7000030A60083120313BB
:10051000260808002408AA002508AB002608AC001D
:1005200003102B0D2C0DAD002D08B0002708AA00DC
:100530002808AB002908AC0003102B0D2C0DAD00D2
:100540002D08AF0030080319B12A2F083002031814
:10055000B82A2F08AA003008AA0219302A02031C60
:10056000B82A2708A4002808A5002908A600080022
:100570002F080319080030082F020318C72A300873
:10058000AA002F08AA0219302A0203180800063010
:10059000AA002A08AE00A61BAE17A91B2E17A51786
:1005A000FF30A405FF30A5050030A605A817FF30D1
:1005B000A705FF30A8050030A9052F083002031851
:1005C000072B01300310A70DA80DA90DFF3E031D39
:1005D000E22A0130AF022F0830060319022B013046
:1005E000AE022E0807390319022BE12A013003104D
:1005F000A60CA50CA40CFF3E031DF72A0130AA008F
:100600002A08B00730082F060319302BF62A3008C5
:100610002F020318302B01300310A40DA50DA60DD9
:10062000FF3E031D0C2B0130B0022F0830060319CA
:100630002C2B0130AE022E08073903192C2B0B2B63
:1006400001300310A90CA80CA70CFF3E031D212BA1
:100650000130AA002A08AF0730082F06031D202BFF
:10066000AE1F422BFF30A406FF30A506FF30A606C2
:100670000130A407003003180130A507003003182B
:100680000130A6072E1F542BFF30A706FF30A80607
:10069000FF30A9060130A707003003180130A80772
:1006A000003003180130A907AE012408A707250868
:1006B00003110318250A031DA807260803110318B0
:1006C000260A031DA907A91F772BFF30A706FF30B5
:1006D000A806FF30A9060130A70700300318013033
:1006E000A807003003180130A907AE01AE0A270899
:1006F000F2002808F3002908F4003008AA002A08AC
:10070000F5002E08AB002B08F6000A128A15E22528
:100710007208A4007308A5007408A6000800CF00A2
:100720005708C9004908F20056080A128A156D21B7
:100730000A128A11003A031DAD2BCE2B033083120F
:100740000313CB000830CA007630C900C90BA62BB2
:10075000CA0BA62BCB0BA62B000083120313570842
:10076000C9004908F20056080A128A156D210A12BA
:100770008A11003A031D9E2B4F08840000080319BC
:10078000CC2B4F088400023000060319CC2B4F08F5
:1007900084008001800A242C03301F2CB830F20022
:1007A0000B30F300480884000008F400840A0008B5
:1007B000F5000A128A153E230A128A117208730480
:1007C000031D2C2C0A128A11EA260A128A114008EB
:1007D000CC004108CD004208CE004C08F2004D0884
:1007E000F3004E08F4009A30F5009930F6003F30DF
:1007F000F7000A128A157F220A128A11031C172C8D
:100800004F08840005308313000603192C2C4F0871
:1008100084000630000603192C2C4F088400023097
:100820000006031D152C06301F2C05301F2C4F0809
:100830008400063083130006031D2C2C0230C900EF
:100840004F088400490880000030E5000030E400D3
:100850000030E3000030E2004F0884000008031974
:100860003C2C4F088400000303193C2C4F088400E3
:1008700002300006031D412C4F080A128A117D2701
:1008800008004F080A128A11A92508002008A600AE
:100890002108A7002208A8000310270D280DA90091
:1008A0002908AA002A08031D5C2C0030A000003093
:1008B000A1000030A20008002308A6002408A70019
:1008C0002508A8000310270D280DA9002908AF004E
:1008D0002F08031D722C0030A0000030A100003052
:1008E000A20008002F087B3EA6002608AA072208BF
:1008F000A6002608AF002508A6002608AF0680300F
:10090000A6002608AF05A117A417FF30A305FF30E6
:10091000A4050030A5050030AB000030AC0000306D
:10092000AD000730A6002608AE00201CA52C230829
:10093000AB07240803110318240A031DAC0725087C
:1009400003110318250A031DAD0701300310A20C83
:10095000A10CA00CFF3E031DA62C01300310A30D1B
:10096000A40DA50DFF3E031DAE2C0130AE02031DEC
:10097000952C0930A6002608AE00201CCD2C23089B
:10098000AB07240803110318240A031DAC0725082C
:1009900003110318250A031DAD0701300310A20C33
:1009A000A10CA00CFF3E031DCE2C01300310AD0C9A
:1009B000AC0CAB0CFF3E031DD62C0130AE02031D68
:1009C000BD2C2B08F2002C08F3002D08F4002A0897
:1009D000A6002608F5002F08A7002708F6000A122F
:1009E0008A15E2257208A0007308A1007408A2000D
:1009F0000800D3010A128A158F250A128A11831260
:100A00005B08D2005208F200F301F30A5A080A12F6
:100A10008A15DB260A128A1183125708D20052085F
:100A2000F20056080A128A156D210A128A11013A3B
:100A3000031D1C2DD301D30A5308031D262D6B3033
:100A40000A128A1526240A128A11A02D5708D200EC
:100A50005208F20056080A128A156D210A128A11EC
:100A6000013A031D5B2D8316C401C40A9030BE00F9
:100A70000130BF00BE300A128A15E8230A128A111B
:100A8000BE300A128A156D270A128A1183160313C3
:100A9000A601A60A9030A0000130A100A0300A12E1
:100AA0008A15E8230A128A11A0300A128A156D27C6
:100AB0000A128A11A02D5508D2005208F2005408DB
:100AC0000A128A156D210A128A11013A031D8E2D10
:100AD0008316C4019030BE000130BF00BE300A1240
:100AE0008A15E8230A128A11BE300A128A156D2768
:100AF0000A128A1183160313A6019030A000013058
:100B0000A100A0300A128A15E8230A128A11A03027
:100B10000A128A156D270A128A11A02DBE300A12F8
:100B20008A15CD210A128A11AF300A128A15CD21F9
:100B30000A128A11A0300A128A15CD210A128A11CE
:100B4000831203136808690403191C2DE801E901E5
:100B50001C2DA4002408840005300006031DFE2D72
:100B60006508031DE02D6408031DE02D6308031DC7
:100B7000E02D0B306202031DBD2D0318E02D831202
:100B800003136108F9007908F200F301F30A600821
:100B90000A128A15DB260A128A11B501B50A053038
:100BA000AF000030B000AF300A128A15E8230030E1
:100BB000E5000030E4000030E3000B30E200080004
:100BC000831203136508031DF22D6408031DF22D23
:100BD0000B306302031DF02DB9306202031DF02DAE
:100BE000031C0800AF300A128A15CD210630F90027
:100BF00083122408840079088000080024088400F7
:100C000003300006031D08006508031D342E640828
:100C1000031D342E6308031D342E0B306202031DA6
:100C2000112E0318342E831203136108F90079087A
:100C3000F200F301F30A60080A128A15DB260A1291
:100C40008A11B501B50A0530AF000030B000AF30F1
:100C50000A128A15E8230030E5000030E400003075
:100C6000E3000B30E2000800831203136508031D44
:100C7000462E6408031D462E0B306302031D442ECE
:100C8000B9306202031D442E031C0800AF300A1263
:100C90008A15CD210430F9008312240884007908D4
:100CA000800008003308B6003408B7003508B800E3
:100CB0000310370D380DB9003908BE003E08031D7A
:100CC000682E0030B0000030B1000030B2000800E3
:100CD0003008B6003108B7003208B8000310370DED
:100CE000380DB9003908BF003F08031D7E2E0030C3
:100CF000B0000030B1000030B20008000030BB008E
:100D00000030BC000030BD0089303F07B600360817
:100D1000BE023508B6003608BF003208B6003608F5
:100D2000BF068030B6003608BF05B417FF30B305E4
:100D3000FF30B4050030B505B117FF30B005FF3006
:100D4000B1050030B2051830B6003608BA000130DF
:100D50000310BB0DBC0DBD0DFF3E031DA82E3208B8
:100D60003502031DB92E31083402031DB92E300897
:100D70003302031CC62E3008B3023108031C310FA6
:100D8000B4023208031C320AB5023B1401300310CE
:100D9000B30DB40DB50DFF3E031DC72E0130BA02D1
:100DA000031DA72E3B08F2003C08F3003D08F400A9
:100DB0003E08B6003608F5003F08B7003708F600D1
:100DC0000A128A15E2257208B0007308B10074088F
:100DD000B20008000030C5000030C6000030C70077
:100DE000C40100300A128A15AC230A128A11740851
:100DF0008312A1007308A0000A128A1559210A1251
:100E00008A112008A4002108A5002208A600450890
:100E1000A7004608A8004708A9000A128A118A22DA
:100E20000A128A112408C5002508C6002608C70032
:100E30004508F2004608F3004708F4000030F500CA
:100E4000C830F6004230F7000A128A157F220A12D3
:100E50008A11031C332F0130C3004308C4070B3031
:100E60004402031CF12E44080A128A1598210A1222
:100E70008A112008B0002108B1002208B2004508FC
:100E8000B3004608B4004708B5000A128A1152267A
:100E90000A128A113008C5003108C6003208C7009E
:100EA0000030B0008030B1004430B2000030A0000B
:100EB000A030A1004030A2004508A3004608A400CD
:100EC0004708A5000A128A1146240A128A1120082E
:100ED000B3002108B4002208B5000A128A11522674
:100EE0003008C5003108C6003208C7004508C000F8
:100EF0004608C1004708C2000800A4002408840076
:100F000002300006031DA42F6508031D942F6408FA
:100F1000031D942FEA306302031D922F6130620299
:100F2000031D922F031C080083120313240884005E
:100F300083138001800A0030E5000030E4000030B7
:100F4000E3000030E2000800240884000003031DD1
:100F500008006508031DCC2F6408031DCC2F63080F
:100F6000031DCC2F0B306202031DB62F0318CC2FAC
:100F700083160313B5010530AF000030B000AF3069
:100F80000A128A15E8230030E5000030E400003042
:100F9000E3000B30E2000800831203136508031D11
:100FA000DE2F6408031DDE2F0B306302031DDC2FD0
:100FB000B9306202031DDC2F031C080083120313E7
:100FC0006108F9007908F200F30160080A128A1535
:100FD000DB260A128A11AF300A128A15CD2183123C
:100FE0002408840080010800831203139201121563
:100FF00092148B170B1783168C1483128C10080015
:1010000008308A000408840A8207003452344534C8
:101010005334453454343A3420344F344B340A3446
:0210200000349A
:10121E009F0183169F010730F20072089F04080099
:10122E00F200720899000C1E1A290C1283169818D7
:10123E0008001D299F0183169F0183121F088E30FF
:10124E00F200720883169F040800720873040319D3
:10125E0008000130F2020030031CF303F3023729B9
:10126E00382900002C29053405340534043405349E
:10127E0000340634003406340234063403340634A3
:10128E0001347E088A007F08820048210A128A15DE
:10129E008000840A04087D0603190034FF0A03192E
:1012AE00FE0A4C292008F2002108F300F4018E30CA
:1012BE00A3002308F500F6010A128A15E22572082A
:1012CE00A0007308A1007408A2000800F4007408BE
:1012DE0084000130F300720A76290310F30DFF3EED
:1012EE00031D742973088313000503198029013027
:1012FE000800003008000230831203136A06031937
:10130E008A29FB0108007B08031D0800FB01FB0A6C
:10131E000030E5000030E4000030E3000030E20071
:10132E000800A7002708A300A401A5012308F200C6
:10133E002408F3002508F4008E30A6002608F500D8
:10134E00F6010A128A15E2257208A0007308A100A0
:10135E007408A2000800F5007508F4007408F60081
:10136E00760884000A128A1500200A128A15003A9D
:10137E000319C6290130F4007408F607B729750859
:10138E007602F200F301F21BF3030800F8000230BC
:10139E007807F7007708840083138001840A8001A0
:1013AE00840A8001840A800178080E3E84000008B9
:1013BE00F7007708F200F301F30A78080D3E840077
:1013CE0000080A128A15DB260800831203136D0823
:1013DE000319F9296D030319F9290330F200720874
:1013EE00EA00080002306A06031908006D03031DA7
:1013FE00022AEA0108006A030319080004306A068B
:10140E0003190800EA01EA0A0800F601F701721C46
:10141E00162A7408F6070318F70A7508F70701303D
:10142E000310F40DF50DFF3E031D172A01300310B6
:10143E00F30CF20CFF3E031D1E2A72087304031DEB
:10144E000E2A7708F3007608F2000800F4007408FC
:10145E0084000008F200840A0008F300670873068F
:10146E00031D3B2A660872060319080074088400DF
:10147E000008E600840A0008E7000130E2070030A9
:10148E0003180130E307003003180130E407003081
:10149E0003180130E507080083120313A200220887
:1014AE000A128A15B2210A128A157308A10072084F
:1014BE00A000A3012308F700F80178082102031DFC
:1014CE006A2A77082002031C0800230822078400DA
:1014DE000A128A1500200A128A150A128A15172175
:1014EE000A128A150130F70077088312A307612AC2
:1014FE00F41F8E2A7208003CF2007308031C730F4F
:10150E00003CF3007408031C740F803CF400F71FBA
:10151E009D2A7508003CF5007608031C760F003CEA
:10152E00F6007708031C770F803CF7008030F40636
:10153E008030F70677087402031D080076087302E0
:10154E00031D0800750872020800831603138C1C15
:10155E00CD2A83128C1CCD2A0130E8070318E90A24
:10156E000030E9070130EB070318EC0A0030EC07F6
:10157E0075306C02313003196B02031CCA2A01301C
:10158E00EB000030EC00DD3091008C101330831234
:10159E006902883003196802031C640071088A000E
:1015AE00700E8300FE0E7E0E0900803083168700BB
:1015BE00243098009030831298002708AB0028083A
:1015CE00AC002908AD002A08AE0004300310AB0DA4
:1015DE00AC0DAD0DAE0DFF3E031DED2A2E08F50030
:1015EE002D08F4002C08F3002B08F2000130F9004E
:1015FE003130F8002D30F7000030F6000A128A154F
:10160E004E267208FF3E83169900080000340034FF
:10161E00003400340034003401344B3400340934C7
:10162E0002340734003409340134003400340034F9
:10163E0000340034003401345A3400340734033497
:10164E0008340034073402340034003400340034DB
:10165E000034003401345A3400340834063408346B
:10166E000534083407340534023405340334720863
:10167E00730403196B2BF701F70AF31B522B01307E
:10168E000310F20DF30DFF3E031D472B0130F60044
:10169E007608F707442B73087502031D582B720842
:1016AE007402031C602B7208F4027308031CF5030A
:1016BE00F50201300310F30CF20CFF3E031D612BFB
:1016CE000130F702031D522B7508F3007408F20067
:1016DE000800F701F801720873040319A72BF9012A
:1016EE00F90AF31B862B01300310F20DF30DFF3EAA
:1016FE00031D7B2B0130F6007608F907782B01309D
:10170E000310F70DF80DFF3E031D872B73087502AE
:10171E00031D932B72087402031C9C2B7208F40297
:10172E007308031CF503F502771401300310F30C54
:10173E00F20CFF3E031D9D2B0130F902031D862B7B
:10174E007808F3007708F2000800F7000A128A15ED
:10175E0021210A128A150730F6007D30F500F50BAF
:10176E00B62BF60BB62B7708F50002300310F50DED
:10177E00FF3E031DBD2B0310750DF6007608831278
:10178E0003139F041F140730F6007D30F500F50B90
:10179E00CE2BF60BCE2B831203131F151F19D52B31
:1017AE0083169F010730F50075089F04DE2BDF2B93
:1017BE000000831203131E08F40083161E08F300A4
:1017CE000800F80078080A3E84008313000883128C
:1017DE00A0002008F2007808063E84000008A10050
:1017EE002108F3007808093E840000080A128A15C1
:1017FE00DB260A128A15780884000008F200840A93
:10180E000008F3004030F4000630F5000A128A1585
:10181E000C2272088312A0007308A100A201A3017A
:10182E007808023E840020088000840A2108800087
:10183E00840A22088000840A230880000800D10050
:10184E0004306A060319382C6A030319382C510820
:10185E00D0005008C8006D300A128A118F230A1268
:10186E008A150A128A15EC210A128A1551080A12D3
:10187E008A114B200A128A150A128A1582210A121F
:10188E008A150A128A15AE240A128A15BE300A1259
:10189E008A156D270A128A15A0300A128A156D272D
:1018AE000A128A15AF300A128A156D270A128A1586
:1018BE008312031351080A128A152D220800F8000C
:1018CE000130F702770A03190800780A840083139F
:1018DE00000883120313A0002008F200F301F30A9C
:1018EE007808840000080A128A15DB260A128A1567
:1018FE00033083120313A2008A30A1005530A000DA
:10190E00A00B872CA10B872CA20B872C780A8400A6
:10191E008313000883120313A0002008F200F301C2
:10192E007808840000080A128A15DB260A128A1526
:10193E00033083120313A2008A30A1005530A00099
:10194E00A00BA72CA10BA72CA20BA72C672C7B03FB
:10195E00031D08006508031DD52C6408031DD52C36
:10196E006308031DD52C06306202031DBE2C03181E
:10197E00D52C831203135B08F7007708F200F301EE
:10198E005A080A128A15DB2600308312E500003051
:10199E00E4000030E3000630E20008008312031377
:1019AE006508031DE72C6408031DE72C4E30630207
:1019BE00031DE52C20306202031DE52C031C0800DC
:1019CE00831203135B08F7007708F200F301F30AA2
:1019DE005A080A128A15DB260230F7007708FB0038
:1019EE000800AE00B201B301B101B1012E08AB0087
:1019FE002B08F700CD300A128A1182210A128A159D
:101A0E00AC00AD0103102C0DAF002D0DB000003059
:101A1E0030028D3003192F02031C172D2F080800DA
:101A2E002F08B2070318B30A3008B3070130AB0012
:101A3E002B08B1070B303102031CFD2C3108AB0013
:101A4E00AC012B08F2002C08F3003308F500320825
:101A5E00F4000A128A1570230A128A157308B3004D
:101A6E007208B20032083304031D412D9630B200C5
:101A7E000030B30032080800750874047304720451
:101A8E000319862DA101A10AF51B5B2D0130A000C3
:101A9E000310F20DF30DF40DF50DA00B4F2D0130CB
:101AAE00A0002008A1074B2D75087902031D692D92
:101ABE0074087802031D692D73087702031D692DC2
:101ACE0072087602031C792D7208F6027308031C45
:101ADE00730FF7027408031C740FF8027508031CC9
:101AEE00750FF90201300310F50CF40CF30CF20C27
:101AFE00FF3E031D7A2D0130A102031D5B2D7908D7
:101B0E00F5007808F4007708F3007608F200080074
:101B1E000530AF002F08F70060300A128A156624D0
:101B2E000A128A150A128A11F4270A128A150A1243
:101B3E008A150F210A128A1500308312AA0000306E
:101B4E00A9002530A8008030A7000A128A15DC22D1
:101B5E000A128A150D3083120313B100AF30B00094
:101B6E00B530AF00AF0BB92DB00BB92DB10BB92DF0
:101B7E00C02D01300A128A1553220A128A155D08E9
:101B8E00AF002F08F200F3015C080A128A15DB265B
:101B9E000A128A15BE300A128A15CD210A128A152A
:101BAE00A0300A128A15CD210A128A15AF300A12F8
:101BBE008A15CD21080075080319EA2D74087304DF
:101BCE007204031DFD2D0030F2000030F3000030D2
:101BDE00F40008000130F7007708F5070130031014
:101BEE00F40CF30CF20CFF3E031DF62DFE307405C3
:101BFE000319182EF12D0130F7007708F507013083
:101C0E00F207003003180130F307003003180130DB
:101C1E00F40701300310F40CF30CF20CFF3E031D1D
:101C2E00112EFF30740503192B2E022E0230750271
:101C3E00031C2D2E0130F50201300310F20DF30DB1
:101C4E00F40DFF3E031D242EF31F1D2E7518352E89
:101C5E00FF30F2057F30F305FF30F4050310F50C6D
:101C6E007508F700F801F90110300310F70DF80DA3
:101C7E00F90DFF3E031D3C2E7708F2047808F3049D
:101C8E007908F404760803190800F4170800A20175
:101C9E00F51F5E2EF209F309F409F509F20A03198C
:101CAE00F30A0319F40A0319F50AA201A20AF91F8D
:101CBE006F2EF609F709F809F909F60A0319F70A5A
:101CCE000319F80A0319F90A0130A0002008A20628
:101CDE000030A6000030A5000030A4000030A300A4
:101CEE0075087404730472040319C42EA101A10AA9
:101CFE00F51B8F2E0130A0000310F20DF30DF40D25
:101D0E00F50DA00B832E0130A0002008A1077F2E19
:101D1E000130A0000310A30DA40DA50DA60DA00B60
:101D2E00912E75087902031DA62E74087802031DE4
:101D3E00A62E73087702031DA62E72087602031CC8
:101D4E00B72E7208F6027308031C730FF70274089D
:101D5E00031C740FF8027508031C750FF902231487
:101D6E0001300310F50CF40CF30CF20CFF3E031DC6
:101D7E00B82E0130A102031D8F2E22080319D22E78
:101D8E00A309A409A509A609A30A0319A40A0319FC
:101D9E00A50A0319A60A2608F5002508F40024084A
:101DAE00F3002308F2000800F6007608053A031D3A
:101DBE00F12E0130F400720AE62E0310F40DFF3EF0
:101DCE00031DE42E7408FF3AF500750883160313FD
:101DDE008505642F7608063A031D062F0130F400A0
:101DEE00720AFB2E0310F40DFF3E031DF92E74082C
:101DFE00FF3AF5007508831603138605642F7608DF
:101E0E00073A031D1B2F0130F400720A102F031026
:101E1E00F40DFF3E031D0E2F7408FF3AF5007508F2
:101E2E00831603138705642F7608083A031D302F97
:101E3E000130F400720A252F0310F40DFF3E031D2E
:101E4E00232F7408FF3AF5007508831603138805CF
:101E5E00642F0130F400720A362F0310F40DFF3E8A
:101E6E00031D342F7408FF3AF5007508831603130B
:101E7E008905642F0130F400720A472F0310F40D08
:101E8E00FF3E031D452F7408F50076088400750883
:101E9E008313800408000130F400720A582F0310D7
:101EAE00F40DFF3E031D562F7408FF3AF500760819
:101EBE00840075088313800508007308003A03191F
:101ECE00522F013A0319412F522F0800F7007708BD
:101EDE00023E84008313000883120313A000840AB9
:101EEE000008A100840A0008A200840A0008A300CA
:101EFE0023082204210420040319080077080E3E4B
:101F0E0084000008A0002008F20077080D3E84002F
:101F1E0000080A128A156D210A128A15013A031D4C
:101F2E00A92F77080E3E84000008A0002008F200BA
:101F3E00F30177080D3E840000080A128A15DB268D
:101F4E000A128A1577080C3E840000088312A0003E
:101F5E002008F200F30177080B3E840000080A12F5
:101F6E008A15DB260A128A157708073E84000008B8
:101F7E00F200840A0008F3000A128A152C210A12B4
:101F8E008A1577080C3E840083130008831203130E
:101F9E00A0002008F200F301F30A77080B3E84003C
:101FAE0000080A128A15DB260A128A157708073EE0
:101FBE0084000008F200840A0008F3000A128A1551
:101FCE002C217708023E8400013083138002840A9C
:101FDE000030031C01308002840A0030031C0130E3
:101FEE008002840A0030031C013080020330840218
:021FFE000800D9
:02400E003E3D35
:00000001FF
