:060000000A128A110C280F
:10000800FE00030EF0000A08F1000A128A15302AD1
:100018000A128A110F288313D530FD000A30FE001A
:10002800F330FF00A03084000A128A15F5200A1266
:100038008A116230FD000830FE00E230FF005330C4
:1000480084000A128A15F5200A128A110A128A15E2
:10005800A1200A128A11FA000A128A15A2200A128D
:100068008A11FB00D5308400DF300A128A15AB20D4
:100078000A128A11623084006F300A128A15AB2086
:1000880083010A128A15412DC100373084000A30D5
:10009800FF0083138001840AFF0B4D286E295E0838
:1000A800B4003408F200F301F30A5D080A128A1555
:1000B800DB260A128A117B088312B4003408F20086
:1000C800F3017A080A128A15DB2608005E08B400D4
:1000D8003408F200F3015D080A128A15DB260A12B9
:1000E8008A117B088312B4003408F200F3017A08FD
:1000F8000A128A15DB260A128A11831241080A128B
:100108008A15AB240A128A11B4003408C200503090
:100118004202031C952802308312B4003408EA0016
:1001280008000430B4003408EA000030E50000306C
:10013800E4000030E3000030E20008005E08B4008C
:100148003408F200F3015D080A128A15DB260A1248
:100158008A117B088312B4003408F200F3017A088C
:100168000A128A15DB260A128A110030F5000030BF
:10017800F4002730F3001030F20083126508F9000C
:100188006408F8006308F7006208F6000A128A1586
:100198008C250A128A117508740473047204031DED
:1001A800F82841080A128A15AB240A128A11B400E9
:1001B8003408C2001630B4003408A6004208B5005E
:1001C800B6013508A7003608A80037300A128A1188
:1001D8008A230A128A113730F6000030F7000A1213
:1001E8008A1560220A128A116508031D1C296408F1
:1001F800031D1C296308031D1C290B306202031D03
:10020800052903181C2983160313C801C80A0530D9
:10021800C2000030C300C2300A128A15DB23003046
:10022800E5000030E4000030E3000B30E200080095
:100238007030831203136206113003196306031D1D
:100248003D2964036504031D3D2983160313C80172
:100258000530C2000030C300C2300A128A15DB2301
:100268000030E5000130E4001130E3007130E200B5
:100278000800831203136508031D50290230640225
:10028800031D4E2922306302031D4E29E03062020D
:10029800031D4E29031C0800C2300A128A155B216F
:1002A8000A128A118F285E08B4003408F200F3019C
:1002B8005D080A128A15DB260A128A117B08831246
:1002C800B4003408F200F301F30A7A080A128A1516
:1002D800DB2608006A08003A03195328013A031973
:1002E8006A28033A03195729063A0319A2287C29D0
:1002F8000800AA002A0A840083130008A000200826
:10030800F200F3012A08840000080A128A15DB2685
:100318000A128A11023083120313A000A00B92293B
:100328000000831203132A0A840083130008A00024
:100338002008F200F301F30A2A08840000080A12D0
:100348008A15DB260A128A11073083120313A000CC
:10035800A00BAC290000831203132A0A840083131C
:100368000008A0002008F200F3012A088400000811
:100378000A128A15DB260A128A1183122A08033EFA
:1003880084000008A0002008F2002A08023E840029
:1003980000080A128A1516210A128A11003A031D4A
:1003A800E8292A08033E84000008A0002008F2007B
:1003B8002A08023E840000080A128A1516210A1229
:1003C8008A11003A0319D529770884000008A0008B
:1003D800840A0008A1002008A6002108A700A80197
:1003E800A901831203132A08033E8400831300081B
:1003F800A0002008F2002A08023E840000080A1221
:100408008A1516210A128A11003A03193C2A77081C
:1004180084000008A000840A0008A1002008A200A7
:100428002108A300A401A5012608A2022708031C8D
:10043800270F1F2A202AA3022808031C280F252A71
:10044800262AA4022908031C290F2B2A2C2AA502D4
:100458002508031D3C2A2408031D3C2A01302302D9
:10046800031D3A2A2D302202031D3A2A031CF529BE
:10047800770884008313000883120313A000840AFA
:100488000008A1002008A2002108A300A401A501DA
:100498002608A2022708031C270F532A542AA3025E
:1004A8002808031C280F592A5A2AA4022908031CC1
:1004B800290F5F2A602AA5022508A9002408A80098
:1004C8002308A7002208A6002908031D772A280860
:1004D800031D772A2708031D772A97302602031D54
:1004E800752A031C812A003083120313A9000030E7
:1004F800A8000030A7000030A600831203132608C6
:1005080008002408AA002508AB002608AC00031040
:100518002B0D2C0DAD002D08B0002708AA002808C7
:10052800AB002908AC0003102B0D2C0DAD002D08D5
:10053800AF0030080319AC2A2F0830020318B32A79
:100548002F08AA003008AA0219302A02031CB32A6D
:100558002708A4002808A5002908A60008002F08D5
:100568000319080030082F020318C22A3008AA000D
:100578002F08AA0219302A02031808000630AA0018
:100588002A08AE00A61BAE17A91B2E17A517FF3009
:10059800A405FF30A5050030A605A817FF30A7055C
:1005A800FF30A8050030A9052F0830020318022BD8
:1005B80001300310A70DA80DA90DFF3E031DDD2A6C
:1005C8000130AF022F0830060319FD2A0130AE02B0
:1005D8002E0807390319FD2ADC2A01300310A60C5E
:1005E800A50CA40CFF3E031DF22A0130AA002A081C
:1005F800B00730082F0603192B2BF12A30082F02D9
:1006080003182B2B01300310A40DA50DA60DFF3EDA
:10061800031D072B0130B0022F0830060319272BC2
:100628000130AE022E0807390319272B062B01309B
:100638000310A90CA80CA70CFF3E031D1C2B0130AE
:10064800AA002A08AF0730082F06031D1B2BAE1F70
:100658003D2BFF30A406FF30A506FF30A60601306B
:10066800A407003003180130A50700300318013033
:10067800A6072E1F4F2BFF30A706FF30A806FF3016
:10068800A9060130A707003003180130A807003079
:1006980003180130A907AE012408A707250803118C
:1006A8000318250A031DA807260803110318260A9C
:1006B800031DA907A91F722BFF30A706FF30A80644
:1006C800FF30A9060130A707003003180130A8073A
:1006D800003003180130A907AE01AE0A2708F2005E
:1006E8002808F3002908F4003008AA002A08F500B1
:1006F8002E08AB002B08F6000A128A1193277208FD
:10070800A4007308A5007408A6000800B1002730EB
:10071800A9002908AC000130A607FF30260784008D
:100728000A128A150A200A128A11A9002908B20099
:1007380032080319512C253032060319AF2B320821
:10074800A900310884002908831380000130A9001A
:100758002908B1078F2BAD010130A607FF30260706
:1007680084000A128A150A200A128A11B200003A75
:100778000319512C643A0319C52B0D3A0319C52BDB
:100788008F2B2C08840083130008AF00840A00080C
:10079800B0000230A9002908AC07B01FDC2B0330D9
:1007A800A9002908AD04AF09B009AF0A0319B00AB6
:1007B800B201B20A3208A9002907013E84000A12D0
:1007C8008A150A200A128A11AA000A128A150A2012
:1007D8000A128A11AB002B083002031DF52B2A08D8
:1007E8002F02031CFF2B0130A9002908B20705308E
:1007F8003206031DDE2B2D08033903190E2C2D306C
:10080800A900310884002908831380000130A90059
:100818002908B1073208A9002908AE00FF30A9004D
:100828002908AE072E0A03198F2B0A30A0000030C2
:10083800A1002E08A9002907013E84000A128A1582
:100848000A200A128A11F2000A128A150A200A12CC
:100858008A11F3003008F5002F08F4000A128A15EF
:1008680063230A128A117308A3007208A2000A12ED
:100878008A15C1220A128A112008303EAA002A08C5
:10088800B2003208A90031088400290883138000C7
:100898000130A9002908B107122C310884008313FC
:1008A80080010800CF005608C9004908F200550821
:1008B8000A128A1516210A128A11003A031D742C8D
:1008C800952C033083120313CB000830CA0076300E
:1008D800C900C90B6D2CCA0B6D2CCB0B6D2C0000FD
:1008E800831203135608C9004908F20055080A1272
:1008F8008A1516210A128A11003A031D652C4F0821
:10090800840000080319932C4F0884000230000665
:100918000319932C4F0884008001800AEB2C0330C4
:10092800E62CB830A0000B30A1004808840000086D
:10093800A200840A0008A3000A128A15C1220A121A
:100948008A1120082104031DF32C0A128A1100279A
:100958000A128A114008CC004108CD004208CE0096
:100968004C08F2004D08F3004E08F4009A30F500E8
:100978009930F6003F30F7000A128A1503220A124E
:100988008A11031CDE2C4F088400053083130006EF
:100998000319F32C4F088400063000060319F32CC2
:1009A8004F08840002300006031DDC2C0630E62CBC
:1009B8000530E62C4F088400063083130006031D1B
:1009C800F32C0230C9004F08840049088000003029
:1009D800E5000030E4000030E3000030E2004F089A
:1009E8008400831300080319042D4F0884000003B2
:1009F8000319042D4F08840002300006031D092D39
:100A08004F080A128A15D82508004F080A128A11B9
:100A1800C12508002008A6002108A7002208A80070
:100A28000310270D280DA9002908AA002A08031D6C
:100A3800242D0030A0000030A1000030A2000800E2
:100A48002308A6002408A7002508A8000310270DDE
:100A5800280DA9002908AF002F08031D3A2D0030E2
:100A6800A0000030A1000030A20008002F087B3E43
:100A7800A6002608AA072208A6002608AF0025080F
:100A8800A6002608AF068030A6002608AF05A117E5
:100A9800A417FF30A305FF30A4050030A5050030DA
:100AA800AB000030AC000030AD000730A6002608CF
:100AB800AE00201C6D2D2308AB0724080311031872
:100AC800240A031DAC07250803110318250A031D72
:100AD800AD0701300310A20CA10CA00CFF3E031DB2
:100AE8006E2D01300310A30DA40DA50DFF3E031DAF
:100AF800762D0130AE02031D5D2D0930A6002608B3
:100B0800AE00201C952D2308AB07240803110318F9
:100B1800240A031DAC07250803110318250A031D21
:100B2800AD0701300310A20CA10CA00CFF3E031D61
:100B3800962D01300310AD0CAC0CAB0CFF3E031D21
:100B48009E2D0130AE02031D852D2B08F2002C08C6
:100B5800F3002D08F4002A08A6002608F5002F083F
:100B6800A7002708F6000A128A1193277208A00026
:100B78007308A1007408A2000800A40024088400D7
:100B880005300006031D152E6508031DF82D6408A1
:100B9800031DF82D6308031DF82D0B306202031D99
:100BA800D52D0318F82D831203136108F90079086D
:100BB800F200F301F30A60080A128A15DB260A120A
:100BC8008A11B901B90A0530B3000030B400B33056
:100BD8000A128A15DB230030E5000030E4000030FB
:100BE800E3000B30E2000800831203136508031DBD
:100BF800092E6408031D092E6308031D092E65309C
:100C08006202031D072E031C0800B3300A128A155E
:100C18005B210630F90083122408840079088000DB
:100C280008002408840003300006031D0800650836
:100C3800031D4B2E6408031D4B2E6308031D4B2E0A
:100C48000B306202031D282E03184B2E8312031348
:100C58006108F9007908F200F301F30A60080A1242
:100C68008A15DB260A128A11B901B90A0530B300C0
:100C78000030B400B3300A128A15DB230030E500D7
:100C88000030E4000030E3000B30E200080083127B
:100C980003136508031D5C2E6408031D5C2E63089E
:100CA800031D5C2E65306202031D5A2E031C0800CA
:100CB800B3300A128A155B210430F9008312240824
:100CC80084007908800008003308B6003408B700AB
:100CD8003508B8000310370D380DB9003908BE00C3
:100CE8003E08031D7E2E0030B0000030B1000030F9
:100CF800B20008003008B6003108B7003208B80062
:100D08000310370D380DB9003908BF003F08031D1F
:100D1800942E0030B0000030B1000030B20008005E
:100D28000030BB000030BC000030BD0089303F07F8
:100D3800B6003608BE023508B6003608BF003208CD
:100D4800B6003608BF068030B6003608BF05B417AF
:100D5800FF30B305FF30B4050030B505B117FF30DB
:100D6800B005FF30B1050030B2051830B6003608BE
:100D7800BA0001300310BB0DBC0DBD0DFF3E031DB5
:100D8800BE2E32083502031DCF2E31083402031D52
:100D9800CF2E30083302031CDC2E3008B302310892
:100DA800031C310FB4023208031C320AB5023B148B
:100DB80001300310B30DB40DB50DFF3E031DDD2E3C
:100DC8000130BA02031DBD2E3B08F2003C08F300B7
:100DD8003D08F4003E08B6003608F5003F08B700A5
:100DE8003708F6000A128A1193277208B0007308B0
:100DF800B1007408B20008000030C5000030C60019
:100E08000030C700C40100300A128A159F230A1255
:100E18008A1174088312A1007308A0000A128A15A7
:100E280002210A128A112008A4002108A50022081C
:100E3800A6004508A7004608A8004708A9000A1206
:100E48008A1185220A128A112408C5002508C600BD
:100E58002608C7004508F2004608F3004708F400D2
:100E68000030F500C830F6004230F7000A128A1543
:100E780003220A128A11031C492F0130C3004308B8
:100E8800C4070B304402031C072F44080A128A15B2
:100E980041210A128A112008B0002108B100220855
:100EA800B2004508B3004608B4004708B5000A1266
:100EB8008A1168260A128A113008C5003108C6004E
:100EC8003208C7000030B0008030B1004430B200B2
:100ED8000030A000A030A1004030A2004508A300C7
:100EE8004608A4004708A5000A128A110E250A120E
:100EF8008A112008B3002108B4002208B5000A129C
:100F08008A1168263008C5003108C6003208C700B3
:100F18004508C0004608C1004708C2000800750817
:100F280003199B2F740873047204031DAE2F00303D
:100F3800F2000030F3000030F40008000130F70040
:100F48007708F50701300310F40CF30CF20CFF3EA0
:100F5800031DA72FFE3074050319C92FA22F0130D6
:100F6800F7007708F5070130F20700300318013061
:100F7800F307003003180130F40701300310F40CB4
:100F8800F30CF20CFF3E031DC22FFF30740503194A
:100F9800DC2FB32F02307502031CDE2F0130F5025F
:100FA80001300310F20DF30DF40DFF3E031DD52F94
:100FB800F31FCE2F7518E62FFF30F2057F30F305AB
:100FC800FF30F4050310F50C7508F700F801F90176
:100FD80010300310F70DF80DF90DFF3E031DED2F2E
:100FE8007708F2047808F3047908F40476080319FA
:060FF8000800F4170800D8
:10100000FF1B0A2883137F1883170008840A03191B
:10101000FF0A080008308A000408840A82070034A6
:10102000013400340A34003464340034E8340334C6
:1010300010342734523445345334453454343A341C
:1010400020344F344B340A34003443343A3425349A
:0C105000643463346D340A34003400341E
:10114200063402349F0183169F010730F2007208B1
:101152009F04080064008001840A04060319003415
:101162000406AC28F200720899000C1EB6280C1274
:10117200831698180800B9289F0183169F018312CD
:101182001F088E30F200720883169F040800831233
:1011920003139201121592148B170B1783168C14DA
:1011A20083128C10080072087304031908000130BE
:1011B200F2020030031CF303F302DF28E0280000F0
:1011C200D428053405340534043405340134053497
:1011D2000034063400340634033402340634013455
:1011E2007E088A007F088200F1200A128A15800098
:1011F200840A04087D0603190034FF0A0319FE0A53
:10120200F5282008F2002108F300F4018E30A30033
:101212002308F500F6010A128A1193277208A0002A
:101222007308A1007408A2000800F4007408840086
:101232000130F300720A1F290310F30DFF3E031D54
:101242001D29730883130005031929290130080099
:10125200003008000230831203136A06031933298F
:10126200DF0108005F08031D0800DF01DF0A00300C
:10127200E5000030E4000030E3000030E200080046
:10128200A7002708A300A401A5012308F20024084F
:10129200F3002508F4008E30A6002608F500F601BA
:1012A2000A128A1193277208A0007308A100740819
:1012B200A2000800F80002307807F70077088400DF
:1012C20083138001840A8001840A8001840A8001D8
:1012D20078080E3E84000008F7007708F200F30158
:1012E200F30A78080D3E840000080A128A15DB26EC
:1012F2000800831203136E08031987296E0303196A
:1013020087290330F2007208EA00080002306A06F8
:10131200031908006E03031D9029EA0108006A03FD
:101322000319080004306A0603190800EA01EA0AF0
:101332000800F601F701721CA4297408F6070318C5
:10134200F70A7508F70701300310F40DF50DFF3E9B
:10135200031DA52901300310F30CF20CFF3E031DFF
:10136200AC2972087304031D9C297708F3007608E0
:10137200F20008007208F4007308F5007508831281
:101382000313FF00740884000A128A1500200A124F
:101392008A15003A0319D4290130F4070318F50A13
:1013A2000030F507BF2972087402F2007308031CAB
:1013B200730A7502F3000800F40074088400000840
:1013C200F200840A0008F30067087306031DEB2984
:1013D2006608720603190800740884000008E60013
:1013E200840A0008E7000130E207003003180130E8
:1013F200E307003003180130E4070030031801301E
:10140200E5070800F41F122A7208003CF200730874
:10141200031C730F003CF3007408031C740F803C20
:10142200F400F71F212A7508003CF5007608031C1A
:10143200760F003CF6007708031C770F803CF7001C
:101442008030F4068030F70677087402031D080026
:1014520076087302031D08007508720208008316DD
:1014620003138C1C512A83128C1C512A0130E80769
:101472000318E90A0030E9070130EC070318ED0A06
:101482000030ED0775306D02313003196C02031C18
:101492004E2A0130EC000030ED00DD3091008C105E
:1014A200133083126902883003196802031C640036
:1014B20071088A00700E8300FE0E7E0E0900760807
:1014C200F2007708F3000A128A15BB210A128A1564
:1014D2007308A1007208A000A2012208F800F90115
:1014E20079082102031D772A78082002031C0800CC
:1014F20022087607840077080318770AFF000A1289
:101502008A1500200A128A150A128A15B3200A12B5
:101512008A150130F80078088312A2076E2A8030FB
:101522008316870024309800903083129800270891
:10153200AB002808AC002908AD002A08AE00043030
:101542000310AB0DAC0DAD0DAE0DFF3E031DA12A78
:101552002E08F5002D08F4002C08F3002B08F200E9
:101562000130F9003130F8002D30F7000030F6007C
:101572000A128A154E267208FF3E83169900080049
:10158200200821040319EE2AA501A50AA11BD52AC8
:1015920001300310A00DA10DFF3E031DCA2A013028
:1015A200A4002408A507C72A21082302031DDB2A59
:1015B20020082202031CE32A2008A2022108031C9D
:1015C200A303A30201300310A10CA00CFF3E031DD4
:1015D200E42A0130A502031DD52A2308A10022080E
:1015E200A000080006340434063405340034003404
:1015F200003400340034003401342C340134093412
:101602000234073400340934013400340034003425
:1016120000340034003401342C34013407340334F0
:101622000834003407340234003400340034003407
:101632000034003401342C340134083406340834C4
:101642000534083407340534023405340334831274
:10165200D10004306A0603193B2B6A0303193B2BA2
:101662005108D0005008C8006E300A128A11562460
:101672000A128A150A128A157A210A128A15510843
:101682000A128A1148200A128A150A128A152B2177
:101692000A128A150A128A15F6240A128A15C2300B
:1016A2000A128A156D270A128A15B3300A128A1590
:1016B2006D270A128A158312031351080A128A151A
:1016C200DD210800F701F8017208730403199A2B4F
:1016D200F901F90AF31B792B01300310F20DF30D16
:1016E200FF3E031D6E2B0130F6007608F9076B2BC7
:1016F20001300310F70DF80DFF3E031D7A2B73081E
:101702007502031D862B72087402031C8F2B72084C
:10171200F4027308031CF503F50277140130031079
:10172200F30CF20CFF3E031D902B0130F902031D56
:10173200792B7808F3007708F2000800F7000A1204
:101742008A15BD200A128A150730F6007D30F50091
:10175200F50BA92BF60BA92B7708F5000230031025
:10176200F50DFF3E031DB02B0310750DF600760834
:10177200831203139F041F140730F6007D30F50017
:10178200F50BC12BF60BC12B831203131F151F1967
:10179200C82B83169F010730F50075089F04D12BD3
:1017A200D22B0000831203131E08F40083161E08B6
:1017B200F3000800F80078080A3E8400831300084A
:1017C2008312A0002008F2007808063E8400000878
:1017D200A1002108F3007808093E840000080A12DB
:1017E2008A15DB260A128A15780884000008F2009E
:1017F200840A0008F3004030F4000630F5000A12B3
:101802008A159A2172088312A0007308A100A2010E
:10181200A3017808023E840020088000840A21087F
:101822008000840A22088000840A230880000800BD
:10183200F8000130F702770A03190800780A8400D9
:101842008313000883120313A0002008F200F3019F
:10185200F30A7808840000080A128A15DB260A12A5
:101862008A15033083120313A2008A30A100553077
:10187200A000A00B3A2CA10B3A2CA20B3A2C780A0E
:1018820084008313000883120313A0002008F200CF
:10189200F3017808840000080A128A15DB260A126E
:1018A2008A15033083120313A2008A30A100553037
:1018B200A000A00B5A2CA10B5A2CA20B5A2C1A2CAA
:1018C2000530AF002F08F70060300A128A1519247C
:1018D2000A128A150A128A15C8200A128A150A12D1
:1018E2008A15A3200A128A1500308312AA0000303A
:1018F200A9002530A8008030A7000A128A1590227C
:101902000A128A150D3083120313B100AF30B000F2
:10191200B530AF00AF0B8B2CB00B8B2CB10B8B2CDB
:10192200922C0B30F6008030F7000A128A156022E2
:101932000A128A157B08AF002F08F200F3017A0819
:101942000A128A15DB260A128A15C2300A128A1571
:101952005B210800AE00B201B301B101B1012E0852
:10196200AB002B08F700D1300A128A117D210A122E
:101972008A15AC00AD0103102C0DAF002D0DB00087
:10198200003030028D3003192F02031CCA2C2F089D
:1019920008002F08B2070318B30A3008B307013052
:1019A200AB002B08B1070B303102031CB02C3108FD
:1019B200AB00AC012B08F2002C08F3003308F50051
:1019C2003208F4000A128A1563230A128A15730870
:1019D200B3007208B20032083304031DF42C9630AF
:1019E200B2000030B300320808005F03031D080094
:1019F2006508031D1D2D6408031D1D2D6308031DAD
:101A02001D2D06306202031D062D03181D2D8312A3
:101A120003135C08F7007708F200F3015B080A126F
:101A22008A15DB2600308312E5000030E400003026
:101A3200E3000630E2000800831203136508031D69
:101A42002F2D6408031D2F2D4E306302031D2D2DF3
:101A520020306202031D2D2D031C08008312031384
:101A62005C08F7007708F200F301F30A5B080A1238
:101A72008A15DB260230F70077088312DF000800A0
:101A82000A128A1561240A128A1583125C08D2008E
:101A92005208F200F301F30A5B080A128A15DB26E8
:101AA2000A128A159030C2000130C3005A30C900B0
:101AB2000030CA00C2300A128A15DB230A128A15C4
:101AC20090308316A4000130A5004B30AB000030EB
:101AD200AC00A4300A128A15DB230A128A15903050
:101AE2008316B3000130B4005A30BA000030BB0094
:101AF200B3300A128A15DB230A128A15B3300A128E
:101B02008A155B210A128A156C300A128A1528235B
:101B12000A128A15852D7508740473047204031958
:101B2200CF2DA101A10AF51BA42D0130A0000310A5
:101B3200F20DF30DF40DF50DA00B982D0130A00060
:101B42002008A107942D75087902031DB22D74088F
:101B52007802031DB22D73087702031DB22D72089D
:101B62007602031CC22D7208F6027308031C730F5F
:101B7200F7027408031C740FF8027508031C750F32
:101B8200F90201300310F50CF40CF30CF20CFF3ED9
:101B9200031DC32D0130A102031DA42D7908F500F8
:101BA2007808F4007708F3007608F2000800A40031
:101BB2002408840002300006031DFF2D6508031D62
:101BC200EF2D6408031DEF2DEA306302031DED2D96
:101BD20061306202031DED2D031C08008312031302
:101BE2002408840083138001800A0030E50000305D
:101BF200E4000030E3000030E20008002408840022
:101C02000003031D08006508031D272E6408031D39
:101C1200272E6308031D272E0B306202031D112E8F
:101C22000318272E83160313B9010530B3000030C1
:101C3200B400B3300A128A15DB230030E50000300D
:101C4200E4000030E3000B30E200080083120313CB
:101C52006508031D382E6408031D382E6308031D12
:101C6200382E65306202031D362E031C08008312D3
:101C720003136108F9007908F200F30160080A12FF
:101C82008A15DB260A128A15B3300A128A155B21DD
:101C920083122408840080010800A201F51F5E2E31
:101CA200F209F309F409F509F20A0319F30A03190F
:101CB200F40A0319F50AA201A20AF91F6F2EF60906
:101CC200F709F809F909F60A0319F70A0319F80AD4
:101CD2000319F90A0130A0002008A2060030A6006C
:101CE2000030A5000030A4000030A3007508740481
:101CF200730472040319C42EA101A10AF51B8F2ECD
:101D02000130A0000310F20DF30DF40DF50DA00B40
:101D1200832E0130A0002008A1077F2E0130A000F1
:101D22000310A30DA40DA50DA60DA00B912E7508F1
:101D32007902031DA62E74087802031DA62E7308CD
:101D42007702031DA62E72087602031CB72E7208B4
:101D5200F6027308031C730FF7027408031C740F56
:101D6200F8027508031C750FF902231401300310E1
:101D7200F50CF40CF30CF20CFF3E031DB82E0130EF
:101D8200A102031D8F2E22080319D22EA309A40932
:101D9200A509A609A30A0319A40A0319A50A031986
:101DA200A60A2608F5002508F4002408F3002308F3
:101DB200F2000800F6007608053A031DF12E013004
:101DC200F400720AE62E0310F40DFF3E031DE42E0A
:101DD2007408FF3AF5007508831603138505642F0E
:101DE2007608063A031D062F0130F400720AFB2E14
:101DF2000310F40DFF3E031DF92E7408FF3AF5009F
:101E02007508831603138605642F7608073A031DA7
:101E12001B2F0130F400720A102F0310F40DFF3E45
:101E2200031D0E2F7408FF3AF5007508831603137D
:101E32008705642F7608083A031D302F0130F4001D
:101E4200720A252F0310F40DFF3E031D232F740881
:101E5200FF3AF5007508831603138805642F0130D5
:101E6200F400720A362F0310F40DFF3E031D342FC7
:101E72007408FF3AF5007508831603138905642F69
:101E82000130F400720A472F0310F40DFF3E031DC8
:101E9200452F7408F50076088400750883138004C2
:101EA20008000130F400720A582F0310F40DFF3EAF
:101EB200031D562F7408FF3AF50076088400750852
:101EC2008313800508007308003A0319522F013A60
:101ED2000319412F522F0800F7007708023E8400B1
:101EE2008313000883120313A000840A0008A100D0
:101EF200840A0008A200840A0008A300230822041E
:101F0200210420040319080077080E3E840000080B
:101F1200A0002008F20077080D3E840000080A1293
:101F22008A1516210A128A15013A031DA92F77086C
:101F32000E3E84000008A0002008F200F30177089A
:101F42000D3E840000080A128A15DB260A128A1541
:101F520077080C3E840000088312A0002008F200DB
:101F6200F30177080B3E840000080A128A15DB266B
:101F72000A128A157708073E84000008F200840AD4
:101F82000008F3000A128A15D4200A128A1577086B
:101F92000C3E84008313000883120313A000200860
:101FA200F200F301F30A77080B3E840000080A12DC
:101FB2008A15DB260A128A157708073E8400000874
:101FC200F200840A0008F3000A128A15D420770866
:101FD200023E8400013083138002840A0030031C15
:101FE20001308002840A0030031C01308002840A1E
:0E1FF2000030031C013080020330840208001E
:02400E003E3D35
:00000001FF
