:060000000A128A110C280F
:10000800FE00030EF0000A08F1000A128A15B12951
:100018000A128A110F288313D530FD000A30FE001A
:100028007430FF00A03084000A128A1576200A1264
:100038008A116230FD000830FE006330FF00533043
:1000480084000A128A1576200A128A110A128A1165
:10005800FE270A128A11FA000A128A11FF270A12C9
:100068008A11FB00D5308400DF300A168A11F82780
:100078000A128A11623084006F300A168A11F82732
:1000880083010A128A11832EC100373084000A3096
:10009800FF0083138001840AFF0B4D2887295E081F
:1000A800B4003408F200F301F30A5D080A128A1555
:1000B80048260A128A117B088312B4003408F20019
:1000C800F3017A080A128A15482608005E08B40067
:1000D8003408F200F3015D080A128A1548260A124C
:1000E8008A117B088312B4003408F200F3017A08FD
:1000F8000A128A1548260A128A11831241080A121E
:100108008A15A0230A128A11B4003408C20050309C
:100118004202031C952802308312B4003408EA0016
:1001280008000430B4003408EA000030E50000306C
:10013800E4000030E3000030E20008005E08B4008C
:100148003408F200F3015D080A128A1548260A12DB
:100158008A117B088312B4003408F200F3017A088C
:100168000A128A1548260A128A110030F500003052
:10017800F4002730F3001030F20083126508F9000C
:100188006408F8006308F7006208F6000A128A1586
:1001980036240A128A117508740473047204031D44
:1001A800F82841080A128A15A0230A128A11B400F5
:1001B8003408C2001630B4003408A6004208B5005E
:1001C800B6013508A7003608A80037300A128A1188
:1001D800A3230A128A113730F6000030F7000A12FA
:1001E8008A15E1210A128A116508031D2929640864
:1001F800031D29296308031D29290B306202031DE9
:1002080005290318292983160313C801C80A32309F
:10021800C2000030C300C2300A128A1521230A1214
:100228008A118316AA01AA0A3230A4000030A50058
:10023800A4300A128A1521230030E5000030E400BA
:100248000030E3000B30E200080070308312031323
:100258006206113003196306031D562964036504F9
:10026800031D562983160313C8013230C20000301B
:10027800C300C2300A128A1521230A128A11831672
:10028800AA013230A4000030A500A4300A128A1551
:1002980021230030E5000130E4001130E300713023
:1002A800E2000800831203136508031D6929023060
:1002B8006402031D672922306302031D6729E030A9
:1002C8006202031D6729031C0800C2300A128A153E
:1002D800DC200A128A118F285E08B4003408F20064
:1002E800F3015D080A128A1548260A128A117B084A
:1002F8008312B4003408F200F301F30A7A080A12F0
:100308008A15482608006A08003A03195328013A52
:1003180003196A28033A03197029063A0319A2280F
:1003280095290800AA002A0A840083130008A0005F
:100338002008F200F3012A08840000080A128A152E
:1003480048260A128A11023083120313A000A00B58
:10035800AB290000831203132A0A840083130008C0
:10036800A0002008F200F301F30A2A08840000081C
:100378000A128A1548260A128A11073083120313B3
:10038800A000A00BC5290000831203132A0A8400C9
:1003980083130008A0002008F200F3012A08840053
:1003A80000080A128A1548260A128A1183122A0896
:1003B800033E84000008A0002008F2002A08023E3C
:1003C800840000080A128A1597200A128A11003A36
:1003D800031D012A2A08033E84000008A000200803
:1003E800F2002A08023E840000080A128A159720A3
:1003F8000A128A11003A0319EE29770884000008C6
:10040800A000840A0008A1002008A6002108A7006F
:10041800A801A901831203132A08033E8400831349
:100428000008A0002008F2002A08023E8400000804
:100438000A128A1597200A128A11003A0319552AB6
:10044800770884000008A000840A0008A10020089A
:10045800A2002108A300A401A5012608A2022708DA
:10046800031C270F382A392AA3022808031C280F3F
:100478003E2A3F2AA4022908031C290F442A452A98
:10048800A5022508031D552A2408031D552A0130F5
:100498002302031D532A2D302202031D532A031C55
:1004A8000E2A770884008313000883120313A00020
:1004B800840A0008A1002008A2002108A300A401C2
:1004C800A5012608A2022708031C270F6C2A6D2AFB
:1004D800A3022808031C280F722A732AA4022908D9
:1004E800031C290F782A792AA5022508A9002408BF
:1004F800A8002308A7002208A6002908031D902A9F
:100508002808031D902A2708031D902A97302602E1
:10051800031D8E2A031C9A2A003083120313A90094
:100528000030A8000030A7000030A6008312031393
:10053800260808002408AA002508AB002608AC00F5
:1005480003102B0D2C0DAD002D08B0002708AA00B4
:100558002808AB002908AC0003102B0D2C0DAD00AA
:100568002D08AF0030080319C52A2F0830020318D8
:10057800CC2A2F08AA003008AA0219302A02031C24
:10058800CC2A2708A4002808A5002908A6000800E6
:100598002F080319080030082F020318DB2A300837
:1005A800AA002F08AA0219302A02031808000630E8
:1005B800AA002A08AE00A61BAE17A91B2E17A5175E
:1005C800FF30A405FF30A5050030A605A817FF30A9
:1005D800A705FF30A8050030A9052F083002031829
:1005E8001B2B01300310A70DA80DA90DFF3E031DFD
:1005F800F62A0130AF022F0830060319162B0130F6
:10060800AE022E0807390319162BF52A01300310FC
:10061800A60CA50CA40CFF3E031D0B2B0130AA0051
:100628002A08B00730082F060319442B0A2B300874
:100638002F020318442B01300310A40DA50DA60D9D
:10064800FF3E031D202B0130B0022F08300603198E
:10065800402B0130AE022E0807390319402B1F2BFF
:1006680001300310A90CA80CA70CFF3E031D352B65
:100678000130AA002A08AF0730082F06031D342BC3
:10068800AE1F562BFF30A406FF30A506FF30A60686
:100698000130A407003003180130A5070030031803
:1006A8000130A6072E1F682BFF30A706FF30A806CB
:1006B800FF30A9060130A707003003180130A8074A
:1006C800003003180130A907AE012408A707250840
:1006D80003110318250A031DA80726080311031888
:1006E800260A031DA907A91F8B2BFF30A706FF3079
:1006F800A806FF30A9060130A7070030031801300B
:10070800A807003003180130A907AE01AE0A270870
:10071800F2002808F3002908F4003008AA002A0883
:10072800F5002E08AB002B08F6000A128A15D8240B
:100738007208A4007308A5007408A6000800B10098
:100748002730A9002908AC000130A607FF3026078A
:1007580084000A128A150A200A128A11A900290897
:10076800B200320803196A2C253032060319C82B47
:100778003208A90031088400290883138000013059
:10078800A9002908B107A82BAD010130A607FF3041
:10079800260784000A128A150A200A128A11B20052
:1007A800003A03196A2C643A0319DE2B0D3A03192F
:1007B800DE2BA82B2C08840083130008AF00840AC2
:1007C8000008B0000230A9002908AC07B01FF52BBB
:1007D8000330A9002908AD04AF09B009AF0A03190D
:1007E800B00AB201B20A3208A9002907013E840002
:1007F8000A128A150A200A128A11AA000A128A15F0
:100808000A200A128A11AB002B083002031D0E2C95
:100818002A082F02031C182C0130A9002908B20746
:1008280005303206031DF72B2D0803390319272C31
:100838002D30A90031088400290883138000013075
:10084800A9002908B1073208A9002908AE00FF301D
:10085800A9002908AE072E0A0319A82B0A30A00000
:100868000030A1002E08A9002907013E84000A12C1
:100878008A150A200A128A11F2000A128A150A2019
:100888000A128A11F3003008F5002F08F4000A1242
:100898008A15A9220A128A117308A3007208A200F5
:1008A8000A128A1542220A128A112008303EAA002A
:1008B8002A08B2003208A9003108840029088313E5
:1008C80080000130A9002908B1072B2C31088400C9
:1008D800831380010800CF005608C9004908F200B8
:1008E80055080A128A1597200A128A11003A031D20
:1008F8008D2CAE2C033083120313CB000830CA00B2
:100908007630C900C90B862CCA0B862CCB0B862CDB
:100918000000831203135608C9004908F20055085D
:100928000A128A1597200A128A11003A031D7E2C92
:100938004F08840000080319AC2C4F0884000230CB
:1009480000060319AC2C4F0884008001800A042D8E
:100958000330FF2CB830A0000B30A10048088400F9
:100968000008A200840A0008A3000A128A1542227D
:100978000A128A1120082104031D0C2D0A128A1557
:100988006D270A128A114008CC004108CD004208A0
:10099800CE004C08F2004D08F3004E08F4009A30DF
:1009A800F5009930F6003F30F7000A128A158421C5
:1009B8000A128A11031CF72C4F0884000530831390
:1009C800000603190C2D4F08840006300006031991
:1009D8000C2D4F08840002300006031DF52C06304C
:1009E800FF2C0530FF2C4F088400063083130006C7
:1009F800031D0C2D0230C9004F08840049088000EF
:100A08000030E5000030E4000030E3000030E20090
:100A18004F0884008313000803191D2D4F08840014
:100A2800000303191D2D4F08840002300006031D22
:100A3800222D4F080A128A15442508004F080A1269
:100A48008A11DA2508002008A6002108A700220834
:100A5800A8000310270D280DA9002908AA002A08B4
:100A6800031D3D2D0030A0000030A1000030A20081
:100A780008002308A6002408A7002508A8000310DA
:100A8800270D280DA9002908AF002F08031D532D95
:100A98000030A0000030A1000030A20008002F089C
:100AA8007B3EA6002608AA072208A6002608AF0053
:100AB8002508A6002608AF068030A6002608AF0540
:100AC800A117A417FF30A305FF30A4050030A50522
:100AD8000030AB000030AC000030AD000730A6009D
:100AE8002608AE00201C862D2308AB072408031116
:100AF8000318240A031DAC07250803110318250A47
:100B0800031DAD0701300310A20CA10CA00CFF3E81
:100B1800031D872D01300310A30DA40DA50DFF3E65
:100B2800031D8F2D0130AE02031D762D0930A6005E
:100B38002608AE00201CAE2D2308AB07240803119D
:100B48000318240A031DAC07250803110318250AF6
:100B5800031DAD0701300310A20CA10CA00CFF3E31
:100B6800031DAF2D01300310AD0CAC0CAB0CFF3ED8
:100B7800031DB72D0130AE02031D9E2D2B08F20078
:100B88002C08F3002D08F4002A08A6002608F50012
:100B98002F08A7002708F6000A128A15D824720819
:100BA800A0007308A1007408A2000800A40024088B
:100BB800840005300006031D2F2E6508031D112E25
:100BC8006408031D112E6308031D112E0B306202E9
:100BD800031DEE2D0318112E831203136108F9006B
:100BE8007908F200F301F30A60080A128A15482608
:100BF8000A128A11B901B90A0530B3000030B400ED
:100C0800B3300A128A1521230030E5000030E400D1
:100C18000030E3000B30E20008008312031365087C
:100C2800031D232E6408031D232E07306302031DB2
:100C3800212ED1306202031D212E031C0800B3307F
:100C48000A128A15DC200630F90083122408840071
:100C58007908800008002408840003300006031D7A
:100C680008006508031D652E6408031D652E6308CA
:100C7800031D652E0B306202031D422E0318652EDC
:100C8800831203136108F9007908F200F301F30AEB
:100C980060080A128A1548260A128A11B901B90A87
:100CA8000530B3000030B400B3300A128A1521238E
:100CB8000030E5000030E4000030E3000B30E200D3
:100CC8000800831203136508031D772E6408031DAB
:100CD800772E07306302031D752ED1306202031D83
:100CE800752E031C0800B3300A128A15DC20043064
:100CF800F9008312240884007908800008000A1289
:100D08008A1582240A128A1183125C08D2005208BA
:100D1800F200F301F30A5B080A128A1548260A1240
:100D28008A116C300A128A155F230A128A11560832
:100D3800D2005208F20055080A128A1597200A12A2
:100D48008A11013A031DD02E8316C801C80A9030B3
:100D5800C2000130C300C2300A128A1521230A12C8
:100D68008A11C2300A128A15DA260A128A118316E3
:100D78000313AA01AA0A9030A4000130A500A430E8
:100D88000A128A1521230A128A11A4300A128A1516
:100D9800DA260A128A11152F5408D2005208F200D6
:100DA80053080A128A1597200A128A11013A031D5C
:100DB800032F8316C8019030C2000130C300C2302F
:100DC8000A128A1521230A128A11C2300A128A15B8
:100DD800DA260A128A1183160313AA019030A40096
:100DE8000130A500A4300A128A1521230A128A119B
:100DF800A4300A128A15DA260A128A11152FC2306F
:100E08000A128A15DC200A128A11B3300A128A15CE
:100E1800DC200A128A11A4300A128A15DC200A1270
:100E28008A1183120313680869040319952EE801CF
:100E3800E901952E3308B6003408B7003508B80024
:100E48000310370D380DB9003908BE003E08031DE0
:100E5800342F0030B0000030B1000030B20008007C
:100E68003008B6003108B7003208B8000310370D53
:100E7800380DB9003908BF003F08031D4A2F00305C
:100E8800B0000030B1000030B20008000030BB00F4
:100E98000030BC000030BD0089303F07B60036087E
:100EA800BE023508B6003608BF003208B60036085C
:100EB800BF068030B6003608BF05B417FF30B3054B
:100EC800FF30B4050030B505B117FF30B005FF306D
:100ED800B1050030B2051830B6003608BA00013046
:100EE8000310BB0DBC0DBD0DFF3E031D742F320852
:100EF8003502031D852F31083402031D852F300864
:100F08003302031C922F3008B3023108031C310F3F
:100F1800B4023208031C320AB5023B140130031034
:100F2800B30DB40DB50DFF3E031D932F0130BA026A
:100F3800031D732F3B08F2003C08F3003D08F40042
:100F48003E08B6003608F5003F08B7003708F60037
:100F58000A128A15D8247208B0007308B100740800
:100F6800B2000800F8000130F702770A03190800F8
:100F7800780A84008313000883120313A000200852
:100F8800F200F301F30A7808840000080A128A15AF
:100F980048260A128A11033083120313A2008A30EA
:100FA800A1005530A000A00BD72FA10BD72FA20B63
:100FB800D72F780A84008313000883120313A00034
:100FC8002008F200F3017808840000080A128A1544
:100FD80048260A128A11033083120313A2008A30AA
:100FE800A1005530A000A00BF72FA10BF72FA20BE3
:100FF800F72FB72F06340234FF1B0A2883137F18F4
:1010080083170008840A0319FF0A080008308A00B9
:101018000408840A82070034013400340A34003496
:1010280064340034E83403341034273452344534FB
:101038005334453454343A3420344F344B340A341E
:10104800003443343A342534643463346D340A3418
:04105800003400342C
:10106800F200720899000C1E37280C128316981883
:1010780008003A289F0183169F0183121F088E30AB
:10108800F200720883169F0408008312031392016A
:10109800121592148B170B1783168C1483128C104D
:1010A800080072087304031908000130F2020030C6
:1010B800031CF303F3026028612800005528053457
:1010C8000534053404340534013405340034063459
:1010D8000034063403340234063401347E088A00AE
:1010E8007F08820072200A128A158000840A040888
:1010F8007D0603190034FF0A0319FE0A7628200822
:10110800F2002108F300F4018E30A3002308F50053
:10111800F6010A128A15D8247208A0007308A100E3
:101128007408A2000800F400740884000130F30079
:10113800720AA0280310F30DFF3E031D9E287308B2
:10114800831300050319AA2801300800003008009D
:101158000230831203136A060319B428DF0108005A
:101168005F08031D0800DF01DF0A0030E5000030DA
:10117800E4000030E3000030E2000800A700270880
:10118800A300A401A5012308F2002408F300250800
:10119800F4008E30A6002608F500F6010A128A151A
:1011A800D8247208A0007308A1007408A2000800DF
:1011B800F80002307807F70077088400831380016D
:1011C800840A8001840A8001840A800178080E3E1E
:1011D80084000008F7007708F200F301F30A7808A2
:1011E8000D3E840000080A128A154826080083125A
:1011F80003136E08031908296E030319082903301D
:10120800F2007208EA00080002306A0603190800B2
:101218006E03031D1129EA0108006A030319080077
:1012280004306A0603190800EA01EA0A0800F60110
:10123800F701721C25297408F6070318F70A7508C0
:10124800F70701300310F40DF50DFF3E031D2629A5
:1012580001300310F30CF20CFF3E031D2D29720818
:101268007304031D1D297708F3007608F2000800AF
:101278007208F4007308F500750883120313FF0061
:10128800740884000A128A1500200A128A15003A86
:10129800031955290130F4070318F50A0030F5073A
:1012A800402972087402F2007308031C730A75025D
:1012B800F3000800F400740884000008F200840AAF
:1012C8000008F30067087306031D6C296608720698
:1012D80003190800740884000008E600840A00085E
:1012E800E7000130E207003003180130E30700305F
:1012F80003180130E407003003180130E50708003F
:10130800F41F93297208003CF2007308031C730F42
:10131800003CF3007408031C740F803CF400F71FB2
:10132800A2297508003CF5007608031C760F003CDE
:10133800F6007708031C770F803CF7008030F4062E
:101348008030F70677087402031D080076087302D8
:10135800031D0800750872020800831603138C1C0D
:10136800D22983128C1CD2290130E8070318E90A14
:101378000030E9070130EC070318ED0A0030ED07EB
:1013880075306D02313003196C02031CCF2901300E
:10139800EC000030ED00DD3091008C10133083122A
:1013A8006902883003196802031C640071088A0006
:1013B800700E8300FE0E7E0E09007608F200770894
:1013C800F3000A128A153C210A128A157308A10033
:1013D8007208A000A2012208F800F9017908210288
:1013E800031DF82978082002031C08002208760744
:1013F800840077080318770AFF000A128A1500206C
:101408000A128A150A128A1534200A128A1501301E
:10141800F80078088312A207EF2980308316870026
:10142800243098009030831298002708AB002808D1
:10143800AC002908AD002A08AE0004300310AB0D3B
:10144800AC0DAD0DAE0DFF3E031D222A2E08F50092
:101458002D08F4002C08F3002B08F2000130F900E5
:101468003130F8002D30F7000030F6000A128A15E6
:10147800BB257208FF3E8316990008002008210446
:1014880003196F2AA501A50AA11B562A01300310CA
:10149800A00DA10DFF3E031D4B2A0130A400240816
:1014A800A507482A21082302031D5C2A20082202D6
:1014B800031C642A2008A2022108031CA303A30218
:1014C80001300310A10CA00CFF3E031D652A01305A
:1014D800A502031D562A2308A1002208A00008001F
:1014E800063404340634053400340034003400343F
:1014F8000034003401344B340034093402340734E6
:101508000034093401340034003400340034003429
:10151800003401345A3400340734033408340034B6
:10152800073402340034003400340034003400340A
:1015380001345A3400340834063408340534083485
:1015480007340534023405340334F701F80172080E
:1015580073040319E02AF901F90AF31BBF2A0130C1
:101568000310F20DF30DFF3E031DB42A0130F600FF
:101578007608F907B12A01300310F70DF80DFF3E80
:10158800031DC02A73087502031DCC2A7208740251
:10159800031CD52A7208F4027308031CF503F5022C
:1015A800771401300310F30CF20CFF3E031DD62A0A
:1015B8000130F902031DBF2A7808F3007708F2000A
:1015C8000800F7000A128A153E200A128A15073009
:1015D800F6007D30F500F50BEF2AF60BEF2A7708B9
:1015E800F50002300310F50DFF3E031DF62A031027
:1015F800750DF6007608831203139F041F14073035
:10160800F6007D30F500F50B072BF60B072B831240
:1016180003131F151F190E2B83169F010730F500A2
:1016280075089F04172B182B0000831203131E083C
:10163800F40083161E08F3000800F80078080A3E34
:101648008400831300088312A0002008F2007808A1
:10165800063E84000008A1002108F3007808093E2E
:10166800840000080A128A1548260A128A15780882
:1016780084000008F200840A0008F3004030F400F7
:101688000630F5000A128A151B2172088312A00081
:101698007308A100A201A3017808023E8400200873
:1016A8008000840A21088000840A22088000840AB5
:1016B8002308800008008312D10004306A06031949
:1016C800722B6A030319722B5108D0005008C80006
:1016D8006E300A128A116F240A128A150A128A15A4
:1016E800FB200A128A1551080A128A1148200A1288
:1016F8008A150A128A15AC200A128A150A128A1546
:10170800EB230A128A15C2300A128A15DA260A123F
:101718008A15A4300A128A15DA260A128A15B330F5
:101728000A128A15DA260A128A1583120313510837
:101738000A128A155E210800AE00B201B301B10198
:10174800B1012E08AB002B08F700D1300A128A111C
:1017580096210A128A15AC00AD0103102C0DAF00BA
:101768002D0DB000003030028D3003192F02031CFC
:10177800BF2B2F0808002F08B2070318B30A300838
:10178800B3070130AB002B08B1070B303102031C43
:10179800A52B3108AB00AC012B08F2002C08F30094
:1017A8003308F5003208F4000A128A15A9220A1231
:1017B8008A157308B3007208B20032083304031D97
:1017C800E92B9630B2000030B300320808005F03FE
:1017D800031D08006508031D122C6408031D122C44
:1017E8006308031D122C06306202031DFB2B03182D
:1017F800122C831203135C08F7007708F200F30138
:101808005B080A128A15482600308312E50000306A
:10181800E4000030E3000630E200080083120313FE
:101828006508031D242C6408031D242C4E30630214
:10183800031D222C20306202031D222C031C0800E9
:10184800831203135C08F7007708F200F301F30A28
:101858005B080A128A1548260230F70077088312B7
:10186800DF00080075087404730472040319792CE6
:10187800A101A10AF51B4E2C0130A0000310F20DA6
:10188800F30DF40DF50DA00B422C0130A00020083B
:10189800A1073E2C75087902031D5C2C7408780298
:1018A800031D5C2C73087702031D5C2C72087602FA
:1018B800031C6C2C7208F6027308031C730FF702E2
:1018C8007408031C740FF8027508031C750FF902DD
:1018D80001300310F50CF40CF30CF20CFF3E031D61
:1018E8006D2C0130A102031D4E2C7908F5007808F3
:1018F800F4007708F3007608F20008000530AF001E
:101908002F08F70060300A128A11B6270A128A15C2
:101918000A128A1549200A128A150A168A11F0270E
:101928000A128A1500308312AA000030A900253057
:10193800A8008030A7000A128A1511220A128A15F7
:101948000D3083120313B100AF30B000B530AF00D3
:10195800AF0BAC2CB00BAC2CB10BAC2CB32C0B30AC
:10196800F6008030F7000A128A15E1210A128A155A
:101978007B08AF002F08F200F3017A080A128A15D3
:1019880048260A128A15C2300A128A15DC200A1261
:101998008A15A4300A128A15DC200A128A15B33077
:1019A8000A128A15DC20080075080319E02C74084F
:1019B80073047204031DF32C0030F2000030F300AE
:1019C8000030F40008000130F7007708F50701300F
:1019D8000310F40CF30CF20CFF3E031DEC2CFE304C
:1019E800740503190E2DE72C0130F7007708F50769
:1019F8000130F207003003180130F30700300318F4
:101A08000130F40701300310F40CF30CF20CFF3E24
:101A1800031D072DFF3074050319212DF82C023002
:101A28007502031C232D0130F50201300310F20D5D
:101A3800F30DF40DFF3E031D1A2DF31F132D75181A
:101A48002B2DFF30F2057F30F305FF30F40503102E
:101A5800F50C7508F700F801F90110300310F70DBF
:101A6800F80DF90DFF3E031D322D7708F2047808B2
:101A7800F3047908F404760803190800F417080039
:101A8800A4002408840002300006031D6B2D65089D
:101A9800031D5B2D6408031D5B2DEA306302031DE3
:101AA800592D61306202031D592D031C0800831251
:101AB80003132408840083138001800A0030E500A2
:101AC8000030E4000030E3000030E20008002408A1
:101AD80084000003031D08006508031D932D640896
:101AE800031D932D6308031D932D0B306202031D04
:101AF8007D2D0318932D83160313B9010530B30008
:101B08000030B400B3300A128A1521230030E500F2
:101B18000030E4000030E3000B30E20008008312DC
:101B280003136508031DA52D6408031DA52D0730A3
:101B38006302031DA32DD1306202031DA32D031CD4
:101B48000800831203136108F9007908F200F30111
:101B580060080A128A1548260A128A15B3300A1232
:101B68008A15DC2083122408840080010800A20161
:101B7800F51FCB2DF209F309F409F509F20A031947
:101B8800F30A0319F40A0319F50AA201A20AF91FB4
:101B9800DC2DF609F709F809F909F60A0319F70A15
:101BA8000319F80A0319F90A0130A0002008A2064F
:101BB8000030A6000030A5000030A4000030A300CB
:101BC80075087404730472040319312EA101A10A63
:101BD800F51BFC2D0130A0000310F20DF30DF40DE0
:101BE800F50DA00BF02D0130A0002008A107EC2D69
:101BF8000130A0000310A30DA40DA50DA60DA00B88
:101C0800FE2D75087902031D132E74087802031D32
:101C1800132E73087702031D132E72087602031C15
:101C2800242E7208F6027308031C730FF702740857
:101C3800031C740FF8027508031C750FF9022314AE
:101C480001300310F50CF40CF30CF20CFF3E031DED
:101C5800252E0130A102031DFC2D220803193F2E59
:101C6800A309A409A509A609A30A0319A40A031923
:101C7800A50A0319A60A2608F5002508F400240871
:101C8800F3002308F2000800F6007608053A031D61
:101C98005E2E0130F400720A532E0310F40DFF3E3D
:101CA800031D512E7408FF3AF500750883160313B7
:101CB8008505D12E7608063A031D732E0130F400EF
:101CC800720A682E0310F40DFF3E031D662E740879
:101CD800FF3AF5007508831603138605D12E76089A
:101CE800073A031D882E0130F400720A7D2E031076
:101CF800F40DFF3E031D7B2E7408FF3AF5007508AE
:101D0800831603138705D12E7608083A031D9D2EE6
:101D18000130F400720A922E0310F40DFF3E031DE9
:101D2800902E7408FF3AF50075088316031388058A
:101D3800D12E0130F400720AA32E0310F40DFF3ED9
:101D4800031DA12E7408FF3AF500750883160313C6
:101D58008905D12E0130F400720AB42E0310F40D57
:101D6800FF3E031DB22E7408F5007608840075083E
:101D78008313800408000130F400720AC52E031092
:101D8800F40DFF3E031DC32E7408FF3AF5007608D4
:101D9800840075088313800508007308003A031946
:101DA800BF2E013A0319AE2EBF2E0800F7007708A0
:101DB800023E84008313000883120313A000840AE0
:101DC8000008A100840A0008A200840A0008A300F1
:101DD80023082204210420040319080077080E3E72
:101DE80084000008A0002008F20077080D3E840057
:101DF80000080A128A1597200A128A15013A031D4B
:101E0800162F77080E3E84000008A0002008F20074
:101E1800F30177080D3E840000080A128A15482647
:101E28000A128A1577080C3E840000088312A00065
:101E38002008F200F30177080B3E840000080A121C
:101E48008A1548260A128A157708073E8400000872
:101E5800F200840A0008F3000A128A1555200A12B3
:101E68008A1577080C3E8400831300088312031335
:101E7800A0002008F200F301F30A77080B3E840063
:101E880000080A128A1548260A128A157708073E9A
:101E980084000008F200840A0008F3000A128A1578
:101EA80055207708023E8400013083138002840A9B
:101EB8000030031C01308002840A0030031C01300A
:101EC8008002840A0030031C01308002033084023F
:101ED80008000030C5000030C6000030C700C4014B
:101EE80000300A128A15E5220A128A15740883122C
:101EF800A1007308A0000A128A1583200A128A1505
:101F08002008A4002108A5002208A6004508A7006B
:101F18004608A8004708A9000A128A119E220A1238
:101F28008A152408C5002508C6002608C7004508E4
:101F3800F2004608F3004708F4000030F500C83006
:101F4800F6004230F7000A128A1584210A128A150F
:101F5800031CB62F0130C3004308C4070B304402EA
:101F6800031C742F44080A128A15C2200A128A1503
:101F78002008B0002108B1002208B2004508B300CB
:101F88004608B4004708B5000A128A111E270A122B
:101F98008A153008C5003108C6003208C70000306D
:101FA800B0008030B1004430B2000030A000A03052
:101FB800A1004030A2004508A3004608A400470835
:101FC800A5000A128A1127250A128A152008B300CB
:101FD8002108B4002208B5000A128A111E27300809
:101FE800C5003108C6003208C7004508C0004608C9
:081FF800C1004708C200080007
:102FE0009F0183169F010730F20072089F040800BA
:102FF00064008001840A0406031900340406F92FD2
:02400E003E3D35
:00000001FF
