:020000040000FA
:060000000A128A11FC2F18
:100C940008008312031392011215921408008312A0
:100CA400031390013030F00070089004901110117B
:100CB4009010101408008B0183160313810101089E
:100CC4000108010801150B080B080B080B080800A4
:100CD4000A128A114A260A128A110A128A117826DD
:100CE4000A128A116F2E0A128A1100280730F600A0
:100CF4000030F700F801F80A0A128A11A8260A122D
:100D04008A11E830F1000330F20002300A128A112D
:100D1400D9260A128A110800700884008317711CEE
:100D240083130130F300720A992E0310F30DFF3E72
:100D3400031D972E730800050319A12EA22EA52EBC
:100D4400F401F40AA62EF401740808007608F000F1
:100D54007708F1007808F9007908F2000A128A117C
:100D64008E260A128A11003A0319B92EBA2EC92EF8
:100D74007608F0007708F1007808F9007908F200A5
:100D8400F3010A128A1147270A128A11D82E76080B
:100D9400F0007708F1007808F9007908F200F3010F
:100DA400F30A0A128A1147270A128A110800F50069
:100DB400F22E0A128A115D260A128A11382F0A129B
:100DC4008A1151260A128A11382F0310710DF1006D
:100DD400720DF2000A128A114B260A128A11382F58
:100DE4007508F300F4017408003A0319FA2E462F2B
:100DF4007308003A0319DB2E013A0319E12E033A72
:100E04000319E72E462F0B1164308312031381005C
:100E14000B1D0D2F0E2F0A2F382F831203130C10C6
:100E2400FD308F0093308E000C1C192F1A2F162FB3
:100E3400382F831203138C10643091008C1C232FE1
:100E4400242F202F382F7508F300F4017408003A7A
:100E540003192D2F462F7308003A0319052F013A61
:100E640003190F2F033A03191B2F462F0130F102E8
:100E74000030031CF203F202710A031D452F720AAB
:100E8400031D452F462F252F080000307106031D32
:100E94004D2F05307006031D502F512F622F013046
:100EA400F400720A572F0310F40DFF3E031D552F53
:100EB4007408FF3AF5007508831603138505EB2FB4
:100EC40000307106031D682F06307006031D6B2F5A
:100ED4006C2F7D2F0130F400720A722F0310F40D71
:100EE400FF3E031D702F7408FF3AF5007508831642
:100EF40003138605EB2F00307106031D832F073083
:100F04007006031D862F872F982F0130F400720A74
:100F14008D2F0310F40DFF3E031D8B2F7408FF3A31
:100F2400F5007508831603138705EB2F003071064F
:100F3400031D9E2F08307006031DA12FA22FB32F6F
:100F44000130F400720AA82F0310F40DFF3E031DB4
:100F5400A62F7408FF3AF500750883160313880555
:100F6400EB2F0130F400720AB92F0310F40DFF3E89
:100F7400031DB72F7408FF3AF50075088316031391
:100F84008905EB2F0130F400720ACA2F0310F40D07
:100F9400FF3E031DC82F7408F500700884008317F2
:100FA400711C831375088000FB2F0130F400720A52
:100FB400DD2F0310F40DFF3E031DDB2F7408FF3AF1
:100FC400F500700884008317711C8313750880056D
:100FD400FB2F7308F400F5017508003A0319F32F89
:100FE400D72F7408003A0319D72F013A0319C42FD5
:0C0FF400D72F080083010A128A116A2E10
:02400E003A3F37
:00000001FF
